:020000040800F2
:10000000C8130020C9000008EF000008F100000834
:1000100000000000000000000000000000000000E0
:10002000000000000000000000000000F3000008D5
:100030000000000000000000F5000008F7000008C4
:10004000F900000800000000F90000083D06000863
:10005000F90000082D050008F9000008F900000863
:1000600000000000F9000008F9000008F90000088D
:10007000F9000008F9000008F9000008000000007D
:10008000312100080000000000000000F900000815
:10009000F9000008F9000008F9000008F90000085C
:1000A000F9000008F9000008F9000008E52100083F
:1000B000192200080348854600F0BAF800480047B6
:1000C000D9340008C81300200C4880F308880C4875
:1000D0000168090E0B4A914205D10B480B4901609A
:1000E0000B480C4901600C4880470C480047FEE76C
:1000F000FEE7FEE7FEE7FEE7FEE70000C81300208C
:10010000040000001F000000181002400100000061
:10011000000001400000000071200008B500000848
:1001200030B50B46014600202022012409E00D468F
:10013000D5409D4205D31D469540491B2546954017
:1001400040191546521E002DF1DC30BD03460B430D
:100150009B0703D009E008C9121F08C0042AFAD27D
:1001600003E00B780370401C491C521EF9D2704703
:10017000D2B201E00270401C491EFBD2704700223F
:10018000F6E710B513460A4604461946FFF7F0FF96
:10019000204610BD421C0178401C0029FBD1801A6A
:1001A000704730B504460020034600E05B1C9342D4
:1001B00003D2E05CCD5C401BF8D030BD03460A782A
:1001C0000270401C491C002AF9D118467047F0B54E
:1001D0001FB40646002082B00546402401910090DD
:1001E0001BE0019922460F46304600F043F8049A7E
:1001F000059B801A994110D310461946224600F0FB
:1002000029F8361A8F410197224601200021009FCC
:1002100000F020F838184D4100902046641E002858
:10022000DFDC019B00982946324607B0F0BD000094
:10023000064C0125064E05E0E36807CC2B430C3C39
:1002400098471034B442F7D3FFF738FF044800084A
:100250002448000810B5202A04DB0146203A9140CA
:10026000002010BD914020239C1A0346E34019430F
:10027000904010BD10B5202A04DB0846203AD0403B
:10028000002110BD0B46D340D0402024A21A91403B
:100290000843194610BD00001F2805D81C214843FB
:1002A00003490A5CDD2A01D00020704740187047DE
:1002B0008C010020F8B5144D064601241C20604333
:1002C000285CDD281AD01C20DD2760432F544519F7
:1002D0002E71E972EA60681D06221946FFF736FFA3
:1002E000002028616861A861002E01D0074800E065
:1002F0000748686103F0D2FE2046F8BD641CE4B2F2
:10030000202CDBD3FF20F8BD8C010020E0930400FB
:100310008813000010B5002805D0FF221C21FFF72C
:1003200027FF03F0BBFE10BD10B50721FF22C90156
:100330000348FFF71DFF034800F094FA10BD0000CA
:100340008C01002000F4000870B5049D1F2819D806
:100350001C2460430C4C0419DD2020702571E172CF
:10036000E26006221946601DFFF7F0FE00202061C2
:100370006061A061002D01D0044800E00448606184
:1003800003F08CFE70BD00008C010020E09304009F
:100390008813000010B50346084A00201C21414381
:1003A000545CDD2C03D18918C968994204D0401CE3
:1003B000C0B22028F2D3FF2010BD00008C01002025
:1003C000014948607047000034000020F8B5064637
:1003D000002004461C210E4A61438D182978DD292E
:1003E00010D1297C00290DD03454401CC7B2F0191B
:1003F0000622691DFFF7AAFEBF1DF8B22979315404
:10040000401CC0B2641CE4B2202CE3D3F8BD000051
:100410008C010020F8B50646002004461C210C4A39
:1004200061438D182978DD290DD13454401CC7B2A1
:10043000F0190622691DFFF789FEBF1DF8B2297960
:100440003154401CC0B2641CE4B2202CE6D3F8BD89
:100450008C01002010B50722D2010849084800F09D
:1004600017FA0020054B02461C214143C918401CC5
:100470000A74C0B28A612028F6D310BD8C01002016
:1004800000F4000870B51D461346094CDD222270A9
:1004900000262671E072E16006221946601DFFF712
:1004A00055FE2661A661656103F0F8FD70BD000090
:1004B0008C01002010B502F06FFF10BD10B503468F
:1004C000FFF7EAFE04000DD0207C002806D10120B1
:1004D0000A4A2074526800211846904700F0D4FA66
:1004E000A06110BD064907A002F084FB09A002F03C
:1004F00081FB0DA002F07EFB10BD00003400002047
:100500008746000825733A5B2121214552524F52FC
:100510005D000000646576696365206E6F74206617
:100520006F756E64212121000A00000010B50120C2
:1005300000F00EF8002804D002F04CFB012000F07F
:1005400001F810BD014948617047000000040140F6
:10055000034A0146526900200A4200D00120704738
:100560000004014010B5837918490268002B26D099
:100570000B6893430B604A6803689A434A600279A8
:10058000521813680468234313608A6803689A4307
:100590008A60CA6803689A43CA604279102A05D003
:1005A00051180A68006802430A6010BD8A6803682F
:1005B0001A438A60CA6800680243CA6010BD0079A5
:1005C000401801689143016010BD00000004014023
:1005D0000149C8607047000000200240F0B50B27B9
:1005E00006463F04384600F08DF804280FD1084C29
:1005F0002069022528432061666120694021084363
:100600002061384600F07EF82169A9432161F0BDE0
:100610000020024008490420CA68D20701D0012006
:100620007047CA68D20601D502207047C9684907D9
:10063000FBD50320704700000020024010B502499E
:1006400002A002F0D7FA10BDAA4600082573204583
:100650006E7472792121210A0000000002480169AC
:10066000802211430161704700200240044910229A
:100670000028086801D0104300E0904308607047EC
:1006800000200240F8B5064600200B273F040090EA
:100690000D46384600F036F8042815D10B4C206979
:1006A0000121084320613580384600F02BF80428EA
:1006B00006D1B61C290C00963180384600F022F88D
:1006C0002169490849002161F8BD0000002002406D
:1006D000034A11684908490001431160704700004E
:1006E0000020024004480169090603D5034941601E
:1006F0000349416070470000002002402301674524
:10070000AB89EFCD00B50346FFF784FF02E0FFF7AA
:1007100081FF5B1E012803D0002B00D1052000BD06
:10072000002BF4D1FAE7F0B50022032501230C6871
:1007300093401C409C422AD10C79012C01D0022C00
:1007400012D1876854002E46A640B74387604E7981
:10075000A64084682643866084889C43848084887D
:100760008B7993401C438480066853002C469C4040
:10077000A64306600E7907689E403E430660C66841
:10078000A643C660CC799C40C3681C43C460521C1D
:10079000102ACBD3F0BD4B07DB0E9A40C90810B529
:1007A00089000818016A0F249C40A1430162016A74
:1007B0001143016210BD0246128A00200A4200D095
:1007C00001207047002A01D0816170470185704780
:1007D00010B501F0C9F9012001F0DCFA01F012FBBB
:1007E0000120FFF743FF0120FFF772FF002001F017
:1007F000C7FA002001F0D6FA0521C904002001F053
:10080000E9FA012001F0D8FA192001F097FA00283E
:10081000FAD0022001F0ECFA01F0AAFA0828FBD184
:1008200003200121400401F07BF90121880301F03C
:100830008FF90121480401F07FF90121022001F024
:100840007BF90121C80201F083F90121080301F0BD
:100850007FF90121084601F07BF90121080701F029
:100860006BF910BD70B50546FFF73CFF002434203E
:10087000FFF7AEFE2846FFF7B1FE042803D0641C44
:10088000E4B20A2CF3D3FFF7E9FE70BD704770475E
:100890000B4610B50146184692B2FFF757FC10BD43
:1008A000F0B50027C3B00D4606463C46FF2A01D9E5
:1008B0001004070ED0B2009010E020024119FF2270
:1008C0000190013202A8FFF741FC0198FF22801934
:1008D000013202A902F0AAFC641CE4B2BC42ECD3CF
:1008E0000098002810D0FF22571C394602A8FFF7B5
:1008F0003FFC2402611902A8009AFFF727FCA01907
:100900003A4602A902F092FC43B0F0BD00B585B0B2
:10091000302802D9002005B000BD694603F032FA44
:10092000684681880098FFF746FFF4E710B588B065
:100930000C46302818D802A903F024FA69468889A1
:100940000090032048710020002C02D0012C02D01E
:100950000220087104E001216A461171D171907181
:1009600069460298FFF7DFFE08B010BD7047704778
:1009700010B586B00C46302808D8694603F002FA54
:100980006846818822460098FFF71CFF06B010BD1C
:100990000EB5FFF71DFF00F01BF9FFF7E7FF00F0B2
:1009A00065F900F077F8FFF771FF01211120FFF7DB
:1009B000BDFF01211120FFF7DBFFE1204002009085
:1009C000002069460871029000F03CF90EBD00005D
:1009D00003490028087001D062B6704772B67047AC
:1009E0005400002010B500F0A7F910BD10B5FFF7B6
:1009F000BEFF00F09FF8FFF74AFF00F073F900F028
:100A0000B5F810BD3EB500210846FFF78FFF012164
:100A10000820FFF78BFF0021084601F051FA01245E
:100A20000025694600940D71082048718C71684654
:100A3000FFF798FD69468C72052008724D7202A876
:100A400000F094FB01210820FFF792FF3EBD10B596
:100A50000020FFF75BFF002801D0002010BD01201F
:100A600010BD10B500210820FFF782FF01210846C4
:100A700001F038F810BD10B5FFF7AAFE01210820DB
:100A8000FFF776FF10BD0000014880687047000046
:100A90005400002030B587B020200590032069461F
:100AA00048760220087600248C760120C876092535
:100AB000ED0605A92846FFF736FE8021059105A918
:100AC0002846FFF730FE4021059105A92846FFF78B
:100AD0002AFE002220212846FFF75DFE0022402149
:100AE0002846FFF758FE002280212846FFF753FED4
:100AF0006946FF200C80053048800720000288806E
:100B0000CC8001200C814002488110208881CC815A
:100B10000720074C0882204601F09AF9A1142046CC
:100B200001F0C2F90121204601F082F907B030BD81
:100B3000003001407047000070B50B4C05460221A3
:100B4000204601F07EF90028F9D02946204601F020
:100B5000B5F90121204601F074F90028F9D02046AA
:100B600001F0A0F970BD00000030014010B5144C38
:100B7000A0786178884214D2A0686168401A64281D
:100B80001CD91120FFF7C2FE002808D00021112037
:100B9000FFF7EEFEA0686060A078401C0DE0012128
:100BA000F5E701211120FFF7E3FEA0686168401A14
:100BB0007D210901884201D90020A07010BD0000EC
:100BC0005400002001494000487070475400002044
:100BD0001FB51020694608730220487301208873EE
:100BE00003A800F0C3FA0D4801902F206946088041
:100BF000002008810A4C4880204601F0B9FA012102
:100C0000204601F09FFA01221146204601F0A7FA82
:100C10000121204601F099FA1FBD0000E703000002
:100C20000004004002488168491C81607047000050
:100C30005400002010B5012802D1084601F0FEF949
:100C400010BD000010B50B46002807D0012804D1C4
:100C500004490022184603F05FFA10BD0022024941
:100C6000F8E70000004400400038014070B588B04B
:100C7000E126092576020024ED060120800269465E
:100C800003960595069448800A208880012040023A
:100C9000C880092008811B2008704C700F48049000
:100CA0008C726846079403F07DFA08206946039623
:100CB000059506944880032088800420C88002207F
:100CC00008811C20087001204870054804908C722F
:100CD0006846079403F066FA08B070BD003801401A
:100CE0000044004070470000F8B517460D46002844
:100CF00003D0012803D00020F8BD0C4E00E00C4EBC
:100D000000240BE0295D304601F051FB8021304684
:100D100001F0ABFA0028F9D0641CA4B2BC42F1D3B4
:100D20000449304601F092FA3846F8BD00380140D7
:100D3000004400400601060002490148086070476F
:100D4000AAAA000000300040704710B502F07EFCF7
:100D500010BD000070B5134D114B29780024585474
:100D6000491CCAB22A70012A0DD0022A0FD0297953
:100D7000881C82420AD11E46981C02F0A1F9B17863
:100D8000884209D005E0AA2800D02C7070BD7E28CA
:100D9000FCD92C702C7170BD304602F0D9FBF8E7FD
:100DA000200600204C0000200148407870470000D9
:100DB0003C0000200EB50948C060006101F0B8FB9E
:100DC000074801F085FB4B20C001009000206946D8
:100DD00008710120FFF736FF0EBD00000C06002051
:100DE000E536000838B5224C6078002813D1A06899
:100DF000002807D0FFF748FEA168401A7D21C900EE
:100E0000884208D900231A461946012002F06EFDD7
:100E1000FFF73AFEA06002F0AFFD6078002825D011
:100E200001F004FEE06800280AD0FFF72DFEE1681B
:100E3000401A1049884203D802F02AFF002815D032
:100E400001F04CFB450001F0ABFB28186946087027
:100E500001236A460021062002F048FDE0680028D0
:100E600001D102F015FFFFF70FFEE06038BD000072
:100E70003C00002088130000F8B50446FFF704FE8C
:100E8000214E00277168401A642800D93770FFF797
:100E9000FBFD70601D4930780C54401CC1B23170AC
:100EA00001290ED0032910D0B078001D81420BD14A
:100EB000164DA978281D02F00FF9E978884206D06E
:100EC00001E0FC2C00D03770F8BDB470F8BD10A064
:100ED00001F090FE002406E00C48015D10A001F036
:100EE00089FE641CE4B230788442F5D30EA001F090
:100EF00081FE6878AB78C1094006C901400E2A1D01
:100F000002F072FCDFE700003C0000200C0500202E
:100F10004D50726F746F20726563763A0000000066
:100F200025303278200000000A0000001CB50EA019
:100F300003C80191009005226946302002F0F3FEBB
:100F400005226946102002F0BFFE002069460A5CB7
:100F5000A52A03D1401CC0B20528F8D3052801D02A
:100F600000201CBD01201CBDA5A5A5A5A500000055
:100F700010B50120FFF7CAFC002801D0002010BDE9
:100F8000012010BD10B501211020FFF7CFFC012179
:100F90000420FFF7CBFC00210120FFF7C7FC002154
:100FA0001020FFF7E5FC01210420FFF7E1FC10BD54
:100FB00070B50D46044600F0C8F8002C32D0002170
:100FC0001020FFF7D5FC04222A49302002F0ABFEA6
:100FD00028490422091D2A2002F0A5FE022123200F
:100FE00002F0BCFE0021212002F0B8FE01212220E7
:100FF00002F0B4FE0021242002F0B0FE2946252094
:1010000002F0ACFE2721262002F0A8FE0A212020B3
:1010100002F0A4FE01211020FFF7AAFC962002F0A6
:10102000B1F970BD00211020FFF7A2FC1149042284
:10103000091D2A2002F077FE0221232002F08EFEF5
:101040000021212002F08AFE0121222002F086FEEA
:101050000021242002F082FE2946252002F07EFE97
:101060002021312002F07AFE2721262002F076FE90
:101070000B21CCE751470008704770B505460720A3
:1010800002F03EFE04460146272002F067FE60069D
:101090000ED520222946612002F016FEFF21E22013
:1010A00002F05CFEFF21E12002F058FE002070BD3E
:1010B000012070BD10B5002802D000F046F810BD28
:1010C00000211020FFF754FC0B21202002F046FEE7
:1010D00001211020FFF74CFC022002F049F910BD5D
:1010E00070B50C46054600211020FFF741FC00209A
:1010F000FFF76EFC22462946A02002F014FE0121D3
:101100001020FFF735FC0120FFF700FC0028FAD182
:10111000072002F0F5FD04460146272002F01EFEDE
:10112000FF21E22002F01AFE0120FFF751FCE00649
:1011300005D5FF21E12002F011FE102070BDA006B0
:1011400001D5202070BDFF2070BD10B500211020FA
:10115000FFF70EFC0D21202002F000FE01211020DF
:10116000FFF706FC1E2002F00DF910BD30B58278A5
:1011700001240178002A15D08B080E4A9B009A188A
:1011800013688907C90EFF258D40AB434578AD072D
:101190002D0E8D401D4315600078C006C00E8440A2
:1011A000054804E0C806C00E84400348803004604F
:1011B00030BD000000E400E000E100E010B50849A7
:1011C00008A001F017FD08A001F014FD07A001F030
:1011D00011FD0749012008707D2000F015FC10BDAD
:1011E000E046000825733A00000000000A000000F5
:1011F0006400002010B50446084909A001F0FAFC7B
:10120000214608A001F0F6FC09A001F0F3FC094B0F
:1012100000221A70204600F0F7FB10BDEE460008D1
:1012200025733A00776F726B2063683A256400007B
:101230000A00000064000020F0B589B00E460746A1
:1012400005206946087110784871907888711446B5
:1012500001ADD06800F000FF0146E81C0422FEF753
:1012600075FFE81D0622E11CFEF770FF607A6946F3
:101270004874607888740F22144601A9384602F039
:101280000FFC002E06D0224601A9384602F0B8FC19
:1012900009B0F0BD0020009003482346417801AA20
:1012A000384600F0DDF9F3E76400002010B500F0E7
:1012B00061F910BD014948607047000064000020DA
:1012C00010B50548C060006100F08CF9034A04497C
:1012D000044800F007FA10BDA00600200D3B0008EE
:1012E000253A0008253B000810B500F019FB02F074
:1012F0005DFC10BD10B500F01BFB10BD10B5024920
:10130000497800F043F910BD6400002010B500F0EA
:1013100013FB10BD38B5044609490AA001F06AFC68
:10132000E0780090A3786278217807A001F062FC51
:101330000AA001F05FFC204600F00AFB38BD000067
:101340000B47000825733A00253032783A253032B1
:10135000783A253032783A25303278000A00000099
:1013600010B500F017FB10BD10B500F029FB10BD43
:1013700010B50446064907A001F03CFC214606A032
:1013800001F038FC05A001F035FC0548447010BDA3
:10139000FB46000825733A00256400000A0000009F
:1013A0006400002070B5C2B00E46054606206946AE
:1013B0001C460871134601A8224619460130FEF763
:1013C000C5FE641CFF2D04D0E2B201A9284602F03C
:1013D00067FB002E06D0E2B201A9284602F010FCFD
:1013E00042B070BD002000900348E3B2417801AAEA
:1013F000284600F035F9F3E7640000203EB50446C6
:1014000003206A46107000A80B220130FEF79EFEF2
:10141000204600F021FE00230C22694600F062F80D
:101420003EBD00007CB505460422684602710C46AC
:10143000012201A9284602F033FB002C05D001222D
:1014400001A9284602F0DCFB7CBD00200449009085
:10145000012301AA4978284600F002F97CBD00006A
:10146000640000207CB50C4605460E490EA001F034
:10147000C1FB0EA001F0BEFB0DA001F0BBFB0121E2
:101480006846017006222946401CFEF75FFE0548AB
:101490000023072269465E3800F024F8054884607E
:1014A0007CBD00001947000825733A0000000000C9
:1014B0000A000000640000201CB50C4602216A46A8
:1014C0001170014600A806220130FEF73FFE6A4671
:1014D000D471012308226946014800F003F81CBDBD
:1014E000BB460008FFB5C1B06C46A52020700120A6
:1014F00060701546A01C1E46074604224199FEF75F
:1015000025FE04221949381DFEF720FE17496A46B8
:101510001C3908789072401C0870D57220462A4603
:101520000C304299FEF712FE28460C30C4B2214618
:10153000684602F085FD694608550C35ECB2641C1E
:10154000002E0ED104220A494198FEF72AFE0028F7
:1015500007D06846E2B2807A694602F089FC45B05D
:10156000F0BDE1B2684601F067FFF8E78C000020AB
:101570002E47000810B5002803D004220249FEF7C8
:10158000E5FD014810BD00008C00002010B590B0B2
:101590000446A52268460270002900D0802103225B
:1015A0001143417004220E49801CFEF7CFFD0C4907
:1015B0006A46947120394878D07108789072401C3E
:1015C00008700020D0720C21684602F039FD6A468E
:1015D00010730D21684601F02FFF10B010BD000000
:1015E0009000002010B50F48C0600061FFF7CAFCF2
:1015F000FFF79CFC002809D10B490CA001F0FAFA76
:101600000BA001F0F7FA10A001F0F4FA064907A0C8
:1016100001F0F0FA0DA001F0EDFA0BA001F0EAFAEA
:1016200010BD0000B40600204347000825733A00AF
:1016300050485920646576696365206E6F74206632
:101640006F756E64212121000A0000005048592066
:1016500064657669636520696E6974206F6B21002B
:10166000FFB5C1B006466D46A5204A9F1C462A46D6
:101670002870002901D0802000E000205070042252
:101680001749A81CFEF762FD15496A469671203974
:101690004878D07108789072401C0870D47228463F
:1016A00022460C304399FEF751FD20460C30C5B25E
:1016B0002946684602F0C4FC694648550C34E0B23D
:1016C000401C002F07D1FF2E05D0C2B2887A02F04D
:1016D000CFFB45B0F0BDC1B2684601F0ADFEF8E702
:1016E00090000020014B07C3704700007C000020E1
:1016F000F3B5044600208DB0064609900890607846
:1017000047067F0E012F12D0A61C04226C493046DA
:10171000FEF747FD00281AD1694930792039497808
:10172000884221D170790090A07A019020E064492C
:10173000A01C0422091F0990FEF733FD002808D0E1
:10174000042260490998FEF72CFD00280ED00FB046
:10175000F0BD00200090A07A099901900422584819
:10176000091DFEF7F3FC03E0FF28F0D101200890EB
:1017700055A001F03FFA002505E0615D55A001F09C
:1017800039FA6D1CEDB20E988542F6D353A001F0E4
:1017900031FA089800282BD1022F3DD0032F2BD0EF
:1017A000009D01980A9000A802300B904CA00A9965
:1017B00001F020FAA5206946087002204870042232
:1017C0003F490B98FEF7C2FC3D4869468D712038B1
:1017D0004078C8710A9888720020C8720C21684647
:1017E00002F02EFC694608730D21684601F024FEC4
:1017F000012F11D0022F0FD03148A27A2038C18892
:101800008A4207D1727903799A4203D137A001F055
:10181000F1F99CE7717901712948A17A2038C180DA
:10182000002F0ED0012F1AD0022F23D0032F8ED1DC
:101830004269002A8BD06078C109C901707990474C
:1018400085E7C568002D82D0E07A00906078234655
:10185000C109C90170790C33089AA84777E705696F
:10186000002DD6D0224609980C32E37A001D089943
:10187000A8476CE72449C868002801D1C9600961FC
:10188000CD6819E02A78A37A9A4214D1D9B21FA060
:1018900001F0B0F9E868002806D02969C860E86856
:1018A000296901610020E860686801F003FD2846AD
:1018B00001F000FD4BE70546E8688D42E2D146E7BE
:1018C000900000202E4700084E6574205265637614
:1018D0003A00000025303278200000000A000000A5
:1018E00061636B207069643A25640A0072657065F3
:1018F0006174206D6573736167652C2069676E6F15
:1019000072652025640A0000B406002072656376C3
:10191000207069643A25642061636B0A000000004E
:1019200010B5FFF7A9FB02F065FA02F0C5FA10BD89
:1019300010B5FFF7BFFB10BD0449C868884203D04B
:10194000002801D00020704701207047B406002015
:1019500038B50446C0780090A3786278217804A056
:1019600001F048F9042221460948FEF7EFFB38BD93
:10197000536574204D61633A253032783A25303210
:10198000783A253032783A253032780A0000000063
:101990008C00002010B50446014603A001F02AF98E
:1019A0000648447010BD0000536574204E657420D5
:1019B000416464723A25640A00000000700000204F
:1019C00038B50446C0780090A3786278217804A0E6
:1019D00001F010F9042221460A48FEF7B7FB38BD92
:1019E00053657420736567416464723A25303278B8
:1019F0003A253032783A253032783A253032780A32
:101A0000000000009000002010B504460848214660
:101A100084700020FFF7CCFA064907A001F0EAF82D
:101A2000214606A001F0E6F807A001F0E3F810BD9A
:101A3000700000203247000825733A006368616E29
:101A40006E656C3A256400000A00000010B5FEF7D0
:101A5000D9FF10BD10B5FEF7FAFF00280DD000F039
:101A60003DFD012809D0FFF79FF9002805D0FFF7B9
:101A70004DFC002801D000F001F810BD10B5084958
:101A800008A001F0B7F808A001F0B4F807A001F031
:101A9000B1F80120FFF72EFCFEF7E3FF10BD0000B8
:101AA0009946000825733A00000000000A00000073
:101AB00010B5FEF7E0FF0020FFF71CFC054906A06B
:101AC00001F098F805A001F095F805A001F092F852
:101AD00010BD0000A146000825733A000000000078
:101AE0000A0000000C4B1A689208920002431A6028
:101AF0000A480369042213430361012906D002291D
:101B000006D00169022211430161704730BF00E035
:101B100020BF01699143F7E70070004000ED00E04D
:101B2000044A0029516901D0014300E08143516119
:101B30007047000000100240044A0029D16901D01A
:101B4000014300E08143D161704700000010024072
:101B5000044A0029916901D0014300E08143916169
:101B60007047000000100240124801680122114332
:101B700001604168104A1140416001680F4A1140FC
:101B800001600168012292049143016041683F2293
:101B9000120491434160C16A09090901C162016BE4
:101BA000074A11400163416B490849004163002124
:101BB00081607047001002400CB8FFF8FFFFF6FE8E
:101BC000ACFEF0FFF8B5564E0446706800210C22BA
:101BD000544D104005D0042803D0082803D00C2809
:101BE0001AD025601AE07168706803228902D20356
:101BF0000F0F1040BF1C00280AD0F06A0107090F20
:101C00002846491CFEF78CFA78430146216005E01E
:101C1000454839464143F9E7444820607068444FDD
:101C20000006000F3B5C20680246DA406260736881
:101C30005B055B0FFB5CDA40A260336BDB0501D414
:101C40003C4B05E073685B0401D4530800E0930843
:101C5000E360336B5F06384B03D4374F123727618D
:101C600000E02361376BFF0601D4656100E060612D
:101C7000376BBF070ED0376BBF07BF0F012F0BD0DD
:101C8000376BBF07BF0F022F08D0376BFF43BF076B
:101C900006D006E0A26104E0A06102E0A36100E0DA
:101CA000A561376BBF03BF0F0FD0376BBF03BF0FEB
:101CB000012F0CD0376BBF03BF0F022F09D0376B3A
:101CC000BF03BF0F032F06D006E0E26104E0E0612E
:101CD00002E0E36100E0E561376B3F03BF0F0FD027
:101CE000326B1203920F012A0CD0306B0003800F6D
:101CF000022809D0306B0003800F032806D006E0CD
:101D0000226204E0206202E0236200E02562306B80
:101D1000000602D405486062F8BD6162F8BD0000AB
:101D20000010024000127A0000093D00006CDC0245
:101D300094000020809FD500008000000346002012
:101D40000A4A59090CD001290CD002290CD0516B38
:101D5000DA06D20E012393400B4200D001207047D7
:101D60001168F5E7116AF3E7516AF1E700100240E4
:101D7000024840680C2108407047000000100240F3
:101D8000034A5168F02399430143516070470000B2
:101D900000100240024900228A70887070470000DB
:101DA00000100240034A516807231B029943014374
:101DB00051607047001002400122054912060028B8
:101DC000086801D0104300E09043086070470000AD
:101DD0000010024010B5054A53687B24E403A34376
:101DE0005360536808430343536010BD0010024022
:101DF000034A516889088900014351607047000017
:101E00000010024018B50020052424030090112082
:101E1000FFF794FF0099491C0091A14201D00028CE
:101E2000F5D01120FFF78AFF002800D0012018BD4F
:101E300040220029018801D0114300E09143018034
:101E400070470246128900200A4200D001207047E4
:101E500030B50388C122920113400A88CC890D89CC
:101E60002243CC882C4322434C8922438C89224331
:101E70001A4302808288094B1A408B88134383805F
:101E80000A8A02820288042349889A431143018006
:101E9000818B034A1140818330BD0000FFF00000B8
:101EA000FFF70000007B70478288034B1A40828056
:101EB00082880A4382807047FFEF000001737047F9
:101EC0008A0710B5120F0F2393408C080549A40010
:101ED00061188C689C438C608B68904003438B60D6
:101EE00010BD00000000014010B504460146042268
:101EF0000248FEF7CDFC204610BD000000F80008A7
:101F0000004870470000002010B5FEF741FD00F0CA
:101F10004DF8FEF74FFFFEF717FF10BD02460020F9
:101F20000146535C0002491CC018C9B20429F8D309
:101F3000704710B5FEF756FFFEF707FFFEF756FD98
:101F400000F036F810BD000008494868C20242405F
:101F500088684860C86888600B69CB60D80C5840B6
:101F60005040120A504008617047000000000020F5
:101F700010B5064C6060FFF7E7FFA060FFF7E4FFD5
:101F8000E060FFF7E1FF206110BD000000000020CD
:101F900070B5054C05462046FEF764FC0422294630
:101FA0002046FEF77DFC70BD00F800087047000079
:101FB00070B50A4E00242501705DC0070AD0FEF7F7
:101FC00063FDA9194A68801A4A88904202D90846D6
:101FD00002F04CF8641C0A2CEDDB70BDB000002050
:101FE000F8B5154606460024134A20460701D75D7A
:101FF000FF0718D0401C0A28F8DB002C1AD0A66076
:10200000E3606180FEF740FD606020786900C007F2
:10201000C00F084320704008800702D5204602F018
:1020200025F82046F8BD00018418207801221043CD
:102030002070E2E70020F8BDB000002010B5044693
:10204000FEF7B2FE002802D12046FEF783FE2046AE
:10205000FEF712FF10BD00000449020E0A70020CC8
:102060004A70020A8A70C87008467047140000203F
:10207000134801680122114301604168114A11406F
:1020800041600168104A1140016001680122920418
:102090009143016041683F22120491434160C16A4B
:1020A00009090901C162016BFF22143291430163E6
:1020B000416B49084900416300218160704700007D
:1020C000001002400CB8FF08FFFFF6FE3EB50A48BC
:1020D00001902F206946088000200881074C488025
:1020E000204600F045F80121204600F02BF80121A0
:1020F000204600F02AF83EBDE7030000002C014016
:102100003EB52F2001900020694608800881074CC9
:102110004880204600F02CF80121204600F012F8FB
:102120000121204600F011F83EBD0000002C0140C6
:1021300010B50121024800F005F8FEF773FD10BD4F
:1021400000040040C943018270470029018802D081
:102150000122114301E04908490001807047002A2B
:10216000828901D00A4300E08A43828170470000DF
:1021700010B50288144B984206D00124A407A0424F
:1021800002D0124CA04203D17024A2434C882243B7
:102190000F4CA04203D00F4C22400C8922430280F6
:1021A0004A68C2620A880285984208D00A4A904268
:1021B00005D00A4A904202D0094A904201D1897A58
:1021C00001860121818210BD002C014000040040E5
:1021D00000100040FFFC00000040014000440140AE
:1021E0000048014070B50B4D0949284600F044F8FD
:1021F00000280CD0284600F0CEF804460122082121
:10220000284600F0CCF8E1B20020FEF713FD70BDC7
:10221000050105000038014070B50B4D09492846FD
:1022200000F02AF800280CD0284600F0B4F8044644
:1022300001220821284600F0B2F8E1B20120FEF7A1
:10224000F9FC70BD0501050000440040090C0122A5
:102250008A40026270470029016802D001221143BE
:1022600001E049084900016070470246D269002038
:102270000A4200D00120704730B50A04130E012530
:102280002A4600248A40012B0ED0022B0ED08368F0
:10229000090C1340C0698D402840002B02D0002853
:1022A00000D00124204630BD0368F1E74368EFE722
:1022B00010B50B041C0E01238B40022C02D0032C02
:1022C00002D002E0001D00E008300168002A01D0C1
:1022D000194300E09943016010BD000030B5044689
:1022E00000688BB00D464008400020606068032104
:1022F00009038843A9680143616020681C49EA68B2
:102300000840696811432A69024311432160A068AB
:1023100003210902884369690143A1606846FFF708
:1023200051FC1448844201D106980AE012488442C4
:1023300001D1079805E01148844201D1089800E0D6
:10234000029821680904296800D54000FDF7E8FEDD
:102350002A6852088A4200D8401C2168090404D522
:102360000107074A490F10400843A0810BB030BD58
:10237000F3E9FFFF003801400044004000480040FE
:10238000F0FF0000826801231B039A438260826889
:102390000A4382607047808CC005C00D7047002AD8
:1023A000028B01D00A4300E08A4302837047C905CB
:1023B000C90D018570470000F7B506462E48002775
:1023C0008078FF4384B0012805D02C492CA000F070
:1023D00011FC2CA049E00598FDF75EFF0546069824
:1023E000FDF75AFF0446002D3AD0002C38D069463C
:1023F0000E70E87A48700598887028794872E86805
:102400006F4603900622691DF81CFDF79FFE217997
:102410006A460698FEF710FF69460E70E07A48702B
:102420000698887020794872E06803900622611D42
:10243000F81CFDF78BFE29796A460598FEF7FCFE2D
:102440000E490FA000F0D6FB314613A0069B059A5B
:1024500000F0D0FB18A000F0CDFB002007B0F0BDCD
:10246000064907A000F0C6FB14A000F0C3FB12A0B1
:1024700000F0C0FB3846F1E71800002017460008BE
:1024800025733A004E6F74206D6173746572206419
:1024900065766963652100004275696C643A25645C
:1024A0002C204465763A2564203C2D2D3E20446541
:1024B000763A2564000000000A00000063616E2780
:1024C000742066696E642064657669636500000047
:1024D0000149C8607047000018000020014840789A
:1024E0007047000018000020F1B500252C4620465A
:1024F0000C2148430D4A06468118886800280ED0F2
:10250000009BE0001C54009A491C8718781C062286
:10251000FDF71CFE05486D1C805DF871EDB2641C72
:10252000E4B2052CE3D3E806000EF8BD500100200C
:1025300008B516A000680090FFF788FAFEF7C0FE05
:102540001348FEF7B7FE6846FFF7CEFC6846FEF775
:10255000E1FEFDF77FFF0F48FDF732FF0320FEF796
:1025600031FBFF2206210C48FDF702FE06220A4934
:102570000A48FEF78DF908480078FF2805D00220A8
:1025800001F072FA002001F0ABFD08BD2202031039
:1025900001420008453100082800002000F0000832
:1025A00003488178012901D0C07870470120704725
:1025B00018000020F3B587B000200490059056481D
:1025C0000F46407801280AD0052F0ED8002F0CD0D6
:1025D000012001F049FAFEF7F1FD00256EE04F49B8
:1025E0004FA000F007FB52A083E04C494CA000F044
:1025F00001FB394655A08BE00798405D052872D253
:102600000C21484357494418A068FDF7C3FE06460D
:10261000FF280CD0FDF740FEC07A0690207800908D
:10262000631CA26830460699FDF78EFE10E0FEF7A7
:102630002BFAFFF79DFCFFF787FCC0B206902078CD
:10264000631CA2680699FDF735FE0646FF284BD0AD
:1026500068460671069981712F480622103041782C
:10266000684641712C4909301631FDF76FFD04A809
:1026700046554B207E1BC0004643FFF765FC7D217D
:10268000C900FDF74DFD881986B2310A6846C1714F
:102690000672224934A000F0ADFA009668468379AC
:1026A000027932A0A16800F0A5FA3CA000F0A2FADD
:1026B00001A9A068FEF7A2FE6D1CEDB2BD429BD33E
:1026C0001548C268002A02D004A9032090474B2075
:1026D000C00039464143042300223148FFF780FC03
:1026E000002009B0F0BD0CE00C490DA000F082FA0A
:1026F0002CA000F07FFA29A000F07CFA0020C04353
:10270000EFE7064906A000F075FA0798415D2AA098
:1027100000F070FAEFE7000018000020F245000812
:1027200025733A5B2121214552524F525D00000032
:10273000776169742C20616C7265616479206275BF
:10274000696C64696E67202E2E2E00006E756D5BBD
:1027500025645D206F7574206F662072616E67213D
:10276000000000005001002025733A0041646420FD
:10277000646576696365205549443A25782C206163
:102780006464723A25642C206B65793A25642C20A8
:10279000686254696D653A25640000000A00000013
:1027A000D9390008646576696365206C69737420A3
:1027B00066756C6C2121210069645B25645D206F66
:1027C0007574206F662072616E672100F3B505464F
:1027D00081B000271A491BA000F00CFA1AA000F0E3
:1027E00009FA1AA000F006FA0298202801D9781EEA
:1027F000FEBD00241FE0285DFDF74EFD06000BD056
:10280000295D13A000F0F6F93179285DFEF70AFE84
:102810003046FDF77FFD0CE0094910A000F0EAF911
:10282000295D12A000F0E6F908A000F0E3F9012705
:10283000FF43641CE4B202988442DCD33846FEBDF8
:10284000DE45000825733A00000000000A00000081
:1028500044656C206465763A25640A0025733A5B0A
:102860002121214552524F525D0000006465766976
:102870006365202564206E6F7420666F756E642119
:102880000000000010B5234923A000F0B3F923A0F5
:1028900000F0B0F922A000F0ADF9224900244A78F6
:1028A000E443012A03D0887801280CD009E01949B3
:1028B0001DA000F09FF920A000F09CF918A000F0E6
:1028C00099F9204610BD012001F0CEF8154C1034C6
:1028D0006078FF280AD1FEF7D7F8FFF749FBFFF72A
:1028E00033FB1E21FDF71CFC5A3161703C21194855
:1028F000FDF745FCFEF762FC0A4817491630FEF763
:10290000B1FD00237D211A46C9001448FFF768FB7A
:10291000002010BD0646000825733A0000000000A4
:102920000A0000001800002025733A5B2121214590
:1029300052524F525D000000776169742C20616C27
:10294000726561647920696E2073656172636820C5
:102950002E2E2E0050010020E9440008753F00088B
:1029600010B5002805D0012001F07EF8FEF726FC06
:1029700010BD02484078FEF73DFC10BD2800002045
:1029800010B50C490CA000F035F90CA000F032F99C
:102990000BA000F02FF9FDF7C7FC0A48FDF762FF16
:1029A000002001F09DFB08488078002801D101F04B
:1029B0005BF810BD6046000825733A000000000077
:1029C0000A00000000F000081800002070B50E4654
:1029D000044615460E490FA000F00CF92A46214680
:1029E0000DA000F007F910A000F004F9FF2C0BD0A7
:1029F0002046FDF751FC002805D001792B463246D0
:102A00002046FEF7CFFC70BD2B4632460021F7E78B
:102A1000BA45000825733A00746F3A25642C206C7F
:102A2000656E3A25640000000A00000010B5FEF74C
:102A30005BFC01F0D5FAFDF73DFD03480078002866
:102A400001D0FFF707F810BD1800002070B50D4643
:102A500004460A490AA000F0CDF8214609A000F07A
:102A6000C9F80AA000F0C6F8002C284602D0FDF7ED
:102A7000D1FC70BDFDF7AAFC70BD0000CC4500087C
:102A800025733A00747970653D2564000A000000E2
:102A900070B5064600251C491CA000F0ABF8314675
:102AA0001BA000F0A7F81EA000F0A4F81D4900200C
:102AB0000C461034002E1CD001228A702178002987
:102AC00015D02070FDF7E0FF05460020FEF7EEFB75
:102AD000C0782818FFF74CFAFFF736FA1E21FDF7E9
:102AE0001FFB5A316170A01CFEF7E0FB012502209C
:102AF00004E088702078FF28F9D1002000F0B4FFAE
:102B0000284601F0EDFA70BD2C46000825733A0006
:102B100069734D6173746572203D20256400000067
:102B20000A000000180000203EB504460B490CA026
:102B300000F060F8E078627921796B4607C3A378EA
:102B40006278217807A000F055F80AA000F052F84A
:102B5000062221460848FDF7F9FA3EBD5046000816
:102B600025733A0025632563256325632563256363
:102B7000000000000A0000002E00002010B50446EE
:102B80000B490CA000F036F821460BA000F032F8FB
:102B90000CA000F02FF80C48002C047001D00B4A58
:102BA00000E00B4A82602046FEF7E2FB10BD000009
:102BB0004146000825733A00736C656570203D201E
:102BC000256400000A00000018000020E0930400C3
:102BD0008813000010B5064C2078002807D0FEF7B7
:102BE00067FF6078022802D10020FEF787FB10BD46
:102BF000180000200FB410B503A9044B044A029832
:102C000000F024F810BC08BC04B01847A332000838
:102C1000A400002030B47446641E2578641CAB42C6
:102C200000D21D46635D5B00E31830BC184702E02C
:102C300008C8121F08C1002AFAD170477047002047
:102C400001E001C1121F002AFBD17047FFB591B00E
:102C50000F460546002606E025280AD0149A139947
:102C600090476D1C761C28780028F5D1304615B0A9
:102C7000F0BD002400940121F34A029400E00443D3
:102C80006D1C2B780846203B98401042F7D12878DD
:102C90002A280ED0022128780246303A092A15D86F
:102CA000009A0A235A43303A80180C436D1C009056
:102CB000F1E701CF0090002805DA0120400304432A
:102CC000009840420090022004436D1C28782E2872
:102CD00015D10420044368786D1C2A280AD101CF3D
:102CE0006D1C02900BE002990A22514330394018C2
:102CF0006D1C02902878014630390929F3D92878CB
:102D00006C2810D006DC4C281AD068280ED06A280F
:102D100017D104E0742813D07A2812D110E00120D2
:102D2000400504430CE00121090501E003210905E8
:102D30000C436978814203D10120000524186D1CE1
:102D40006D1C287803906E281ED00CDC632831D0CF
:102D500004DC00288AD0582811D1B2E064287BD046
:102D600069280CD178E073282DD004DC6F2870D04E
:102D7000702804D1A7E075286CD078286BD0149AFD
:102D800013999047761C62E06002400F022807D03A
:102D900003280AD0042838680AD006603F1D56E090
:102DA0003868F11706604160F8E738680680F5E793
:102DB0000670F3E73878694608740020487404A860
:102DC0000390012003E0386803900020C0433F1DBA
:102DD00061070FD5002101E00199491C029A019178
:102DE000914213DA8142F7DB019A0399895C002949
:102DF000F2D10BE0002101E00199491C01918142CF
:102E0000FADB019A0399895C0029F5D101990098B0
:102E1000139A401A00902146149B00F03BF9019947
:102E20008019461807E0039803990078491C03911C
:102E3000149A139990470198401E0190401CF2D1BA
:102E40002146149B139A009800F014F986196D1C02
:102E500009E741E033E034E00A20002104900591C5
:102E60006002410F022905D001CFC2179446032901
:102E700005D007E0FF1DFF08FF0003CF06E000B20A
:102E8000C2179446042902D140B2C1178C460022D1
:102E90006146944506DA0A460021404291418C463B
:102EA0002D2102E0210504D52B216A46117601214E
:102EB00003E0E10701D02021F7E7019154E00A2067
:102EC0000BE0102009E010200490002104200443AE
:102ED00008200591029003E008200021059104904C
:102EE0006002410F022905D001CF00229446032938
:102EF00006D006E0FF1DFF08FF0003CF8C4603E06D
:102F000080B2042900D1C0B20021019121072BD544
:102F10000399702906D0049A1021059B4A401A4350
:102F200005D00EE040216A461176012108E0614695
:102F3000014306D030216A46117603995176022169
:102F40000191049A0821059B4A401A430CD161461D
:102F5000014301D1610707D530216A46117601216D
:102F600001910299491E02910399582904D037A171
:102F700003910FA90F910DE039A1F9E76146059B77
:102F8000049AFDF724F9039B8C469B5C0F9A521E12
:102F90000F92137061460143F0D10F9807A9081AE8
:102FA00020300390600704D5012000048443029878
:102FB00001E0012002900399884201DD401A00E0FF
:102FC000002041180290019809180098401A0090BA
:102FD000E00306D42146149B139A009800F05AF897
:102FE00086190020049008E006A9085C149A139939
:102FF00090470498401C761C049001998842F3DBAA
:10300000E0030CD52146149B139A009800F042F877
:10301000861904E0149A302013999047761C02997F
:10302000481E02900029F5DC08E00F980F990078FF
:10303000491C0F91149A13999047761C0399481EC6
:1030400003900029F1DCFBE609280100303132331E
:1030500034353637383961626364656600000000D4
:1030600030313233343536373839414243444546BE
:1030700000000000F8B5044600251E4617468804E7
:1030800004D405E039462020B0476D1C641EF9D5F4
:103090002846F8BDFFB50446002581B01E46C8038A
:1030A00001D5302700E02027880404D505E0384604
:1030B0000399B0476D1C641EF9D5284605B0F0BDD4
:1030C00010B50346002204E09C5C2018521CC0B2DC
:1030D000D2B28A42F8D310BD034610B50020024692
:1030E00004E09C5C2018521CC0B292B28A42F8D311
:1030F00010BD38B56C46207000290AD000206070E1
:10310000A270E370042322460021092000F0EEFBA8
:1031100038BD0120F3E7000010B5034801781630F0
:10312000FEF7CAF910BD00001800002010B50020FD
:10313000FEF7E4F8FDF7A8FC0149486010BD000067
:103140001800002070B50C460546114911A0FFF784
:1031500051FD002C11D010A2294611A0FFF74AFD05
:1031600014A0FFF747FD144A002D08D0002C294673
:103170000CD00120D268904770BD10A2ECE7002C63
:1031800002D00020D07070BD0120FBE70020F1E7E5
:103190008145000825733A006F66666C696E6500AC
:1031A00044657620616464726573732025643A20F7
:1031B000257300000A000000180000206F6E6C6983
:1031C0006E650000F1B5174882B0C168002901D1D1
:1031D000C0600061C4680027134EE5681DE02178D7
:1031E0000298814217D10097637871786268FEF780
:1031F00037FAE068002805D02169C860E0682169D5
:103200000161E760606800F055F8204600F052F870
:10321000B078401EB0702C46ED6802488442DED182
:10322000FEBD0000A006002064000020F8B517468F
:103230000C460646FDF756FA3420FDF7C9F9002C76
:103240002CD0BD0828E00021002D0FD00320225CE7
:10325000401E0A4311020128F9DA20780143304662
:10326000241DFDF70FFA042814D014E0B807800FCE
:10327000012803D0022801D00328F0D1401EEED44B
:10328000225C0A43012801DD1102F7E7C300114661
:103290009940F3E7361D6D1E002DD4DCFDF7DEF9F5
:1032A000F8BD13B5012269460020FDF71DFD009809
:1032B0001CBD000010B5002823D0124B0022001FB7
:1032C000196803E0814203D80A4649680029F9D108
:1032D000002A0AD01368841A9C4204D10068181886
:1032E0001060104602E0506000E01860002907D02E
:1032F00002680B1A934203D10B68D2180260496826
:10330000416010BDA8000020F8B50E460546002417
:10331000094F0DE0304600F011F8FDF763FB398AE4
:103320003846C90704D00121FEF70CFF641CA4B283
:10333000AC42EFD3F8BD0000002C014010B50349AA
:103340000978884201D000F003F810BD6000002029
:1033500010B506490028087004D0012801D1FEF7F5
:10336000B5FE10BDFEF7CCFE10BD000060000020D1
:1033700010B504460120FFF7EBFF01212046FFF7BF
:10338000C3FF10BD10B504460020FFF7E1FF002188
:103390002046FFF7B9FF10BD70B5114D1C212878EC
:1033A000002648430F4944182078DD2810D1207C9E
:1033B00000280DD0FDF768FBA169411A6069420041
:1033C0008018814204D926746A68012128789047C0
:1033D0002878401CC0B22870202800D32E7070BD01
:1033E000340000208C01002070B506460D460BA06D
:1033F000FFF700FC002405E0315D0CA0FFF7FAFBAD
:10340000641CE4B2AC42F7D30AA0FFF7F3FB2A46F0
:1034100031460120FDF768FC70BD00004D50726F11
:10342000746F2073656E643A0000000025303278B6
:10343000200000000A000000F0B5064689B04809E7
:10344000CF0608900D46FF0E1CA0FFF7D3FB00240B
:1034500005E0315D1CA0FFF7CDFB641CE4B2AC427B
:10346000F7D31BA0FFF7C6FB1A4881780120FDF7B0
:103470009FFD002409E0600180192021FDF730FE46
:103480003220FFF77FFF641CE4B208988442F2D335
:10349000002F0CD0E81B81193A466846FCF756FE0F
:1034A00020216846FDF71CFE3220FFF76BFF09481C
:1034B00081780020FDF77CFD09B0F0BD4E657420D9
:1034C00053656E643A000000253032782000000019
:1034D0000A00000070000020FEF716FDFEF729FD2F
:1034E000FCE70000F0B50B30C108C900144F0026FE
:1034F000144A0FE003688B420BD38B4205D95C1A48
:103500004318456830C3083B00E04368136002C0BD
:1035100004E0021D10680028ECD13046002803D1D9
:103520003868002801D00020F0BD064A0648106027
:10353000064A121AD208D20044C001203860D7E7E8
:10354000AC000020A8000020CC070020C80F0020FD
:1035500030B5C17891B00025254C0B00FFF75AFB20
:10356000050408122344210000221146104616E0EB
:10357000001DFEF70DFD6846FEF7B6FC014604226D
:1035800001200CE0FEF7BCFC014604226846FCF773
:10359000DDFD01A8FEF7A8FC08226946022000F024
:1035A00031F811B030BD00221146032000F02AF896
:1035B000684600786070A570FDF7B8FC00280DD053
:1035C000FDF7FCFD0B490CA0FDF74CFF00237D210E
:1035D0001A46C9000A48FEF703FDE2E70020C0438F
:1035E000A0700120E070DCE7E570A570D9E700006D
:1035F0004C0000203D3600085A4354455354000007
:103600003D3F000830B5A1B06C46AA232370931C3F
:103610006370E07001A8FCF799FD6D466878401E64
:10362000C1B2E01CFFF74CFDA8706A786946012022
:10363000921CFDF759FB21B030BD0000024801216A
:10364000C1708170704700004C0000203EB51649E3
:10365000C878002827D06A4648781070022008569B
:1036600000241346002801DD012100E000215970EB
:1036700001219970012804D0411C04D0801C04D081
:1036800004E00AA402E00DA400E012A42146D01C2C
:10369000FCF794FD2046FCF77DFDC01CC2B26946D4
:1036A0000420FFF7AFFF3EBD4C000020746573742B
:1036B00020737563636573732E00000063616E276A
:1036C000742066696E642052462073656E736F7253
:1036D000210000007363616E2074696D656F7574FD
:1036E00021000000F0B5C1B0002409260127CDB2A9
:1036F0000300FFF78FFA0A06192E36777777585DA1
:103700007177C8B2FCF7C8FD04006BD0684607703B
:1037100045700622611D801CFCF718FD2079694662
:10372000087233466A4611E0C8B2FCF7B5FD0400E2
:1037300058D000216846017045700622611D801C2A
:10374000FCF704FD20796A461072334601210820F7
:1037500046E06846FEF7C8FE034601216A4603209C
:103760003EE00F46002516E0FCF796FD060010D05F
:10377000795D68460155641CE4B200190622711D8A
:10378000FCF7E4FCA41DE0B2327969460A54401CFF
:10379000C4B26D1CEDB2785D0028E5D1012123464D
:1037A0006A4604201CE009230A460121184617E056
:1037B0000C4609786846017061784170A178817083
:1037C000A278C01C6168FCF7C1FCA0780121C01C74
:1037D000C3B26A46072003E000231A4601210520F0
:1037E00000F084F841B0F0BD70B5C0B01E4614467C
:1037F0000546002907D0002D05D000231A4619469A
:10380000184600F073F82B00FFF704FA0D08212E7C
:1038100032353A1F3F1F45555E691F003148C46865
:10382000844200D10024002C0FD0E068002806D08C
:103830002169C860E068216901610020E06060687A
:10384000FFF738FD2046FFF735FD40B070BD20463C
:10385000FFF76AF9A079FFF71BF9E079FFF78EF916
:10386000214901204870F0E72078FFF779F8ECE76C
:10387000FFF708F8E9E731462046FEF79BFEE4E74C
:1038800031462046FEF7A2FFDFE762782078A11CD0
:10389000FFF79CF8D9E7A27861782078FEF78CFDD5
:1038A0000028A3786278207801DA002100E0012165
:1038B000FFF71FFCC9E769460020FFF7C7F803467A
:1038C00000216A460A2007E069460120FFF7BEF89A
:1038D00003466A4600210B2000F008F8B5E7FFF721
:1038E0004FF8B2E70C0600203C000020F0B50C4673
:1038F000C1B001466E46FC2017461D463246307068
:10390000002C01D0802000E000200843507095700A
:1039100029463846FFF7E0FB6946C8702A46394613
:10392000301DFCF713FC2D1D002C1ED01420FFF7BA
:10393000D9FD0446032020700020A060E8B260702A
:10394000FFF7D0FD606062786946FCF7FFFB09482D
:10395000C168002901D1C0600061E0600169CC60EC
:1039600001692161046141B0F0BDE9B26846FFF729
:103970003BFDF8E70C06002010B51648C4688442E9
:1039800000D10024002C12D0FDF77EF8A168401A67
:10399000C8280CD9207800280AD061786068FFF721
:1039A00023FD2078401E2070FDF76EF8A06010BD4A
:1039B000E068002806D02169C860E06821690161DB
:1039C0000020E0606068FFF775FC2046FFF772FC9E
:1039D00010BD00000C06002010B5C4B20C490DA0AB
:1039E000FFF708F90CA0FFF705F90CA0FFF702F9A3
:1039F000022000F039F80A484078FDF7FBFB084840
:103A00001038C268002A02D000212046904710BD1D
:103A10007445000825733A00000000000A00000009
:103A20002800002070B51478551CFEF777FA0D4970
:103A30000A78002A0AD0012C09D0022C0BD0032CC2
:103A400004D101462A46022000F036F970BD014635
:103A50002A460020F8E78B68002BF7D029469847C4
:103A600070BD00006400002070B50C4D04466978FC
:103A70000120A1420FD0002C02D0012C03D101E083
:103A8000032000E00220FDF79DF8EA68002A02D03A
:103A90002146062090476C7070BD00001800002081
:103AA00070B515460C46FCF7F7FB002802D0C27A29
:103AB000002011E00A490BA0FFF79CF80DA0FFF7CA
:103AC00099F811A0FFF796F80020C04370BD215C63
:103AD00051402154401CC0B2A842F8D3002070BD10
:103AE000BF46000825733A5B2121214552524F52AF
:103AF0005D0000006B6579206E6F7420666F756ED7
:103B000064212121000000000A00000010B50446D5
:103B1000002901D0FFF756FB00222146052000F0C6
:103B2000CBF810BDFFB585B05C1C0E9E1F46154638
:103B3000002A06D1324639460598FFF7B1FF002822
:103B400016DB0698002802D00598FFF73BFB387873
:103B500004280FD0052811D0062809D16846057021
:103B6000761E46706A4601940620059900F0A4F876
:103B700009B0F0BD002203200599F7E720786946D7
:103B8000087060788870A01CFEF7C8F9039000A840
:103B9000A11D06220330FCF7D9FA207B6946487242
:103BA000607B48706A4604200599DFE710B511482C
:103BB000C468844200D10024002C1AD0FCF764FFB2
:103BC000A168401A0C49884213D9E068002806D041
:103BD0002169C860E068216901610020E0606068D7
:103BE000FFF768FB2046FFF765FB04498878401E15
:103BF000887010BDA006002068A7040064000020A3
:103C0000F7B5194D0746A87816460A280AD317496A
:103C100017A0FEF7EFFF17A0FEF7ECFF1AA0FEF7C4
:103C2000E9FFFEBD1420FFF75DFC077004464670F7
:103C30003046FFF757FC606032460199FCF786FA80
:103C4000FCF722FFA0601148C168002901D1C060C3
:103C50000061E0600169CC60016921610461A878BC
:103C6000401CA870FEBD000064000020CC46000887
:103C700025733A00736C6565702063616368652025
:103C800066756C6C210000000A000000A006002090
:103C900010B5FEF723FC4400FEF782FC054920180E
:103CA000CA78C0B2904202D0C870012010BD002076
:103CB00010BD00003C000020024B5B68002B00D0D0
:103CC0001847704764000020F8B50E4604461546B4
:103CD00000210420FCF74CFE2046FCF72DFF074690
:103CE000002405E0FF20FCF727FF3055641CE4B2F8
:103CF000AC42F7D301210420FCF73AFE3846F8BD68
:103D000010B5044600210420FCF732FE2046FCF7E3
:103D100013FFFF20FCF710FF044601210420FCF7ED
:103D200027FE204610BDF8B50E4604461546002174
:103D30000420FCF71DFE2046FCF7FEFE074600248B
:103D400004E0305DFCF7F8FE641CE4B2AC42F8D34A
:103D500001210420FCF70CFE3846F8BD70B50D4675
:103D6000044600210420FCF703FE2046FCF7E4FE95
:103D700004462846FCF7E0FE01210420FCF7F8FD8C
:103D8000204670BD10B504090207120F01209040B3
:103D9000888008614A732300FEF73CFF06040A0E80
:103DA00012171B200920C00608600120400414E0FF
:103DB0000B480860000210E00A48086000020CE0AE
:103DC000094808600120000507E008480860400233
:103DD00003E00748086001208005886010BD0000EE
:103DE0000004004800080048000C0048001000488B
:103DF0000014004870B51C48C468844200D10024F7
:103E0000002C2FD0FCF740FEA168184D411A2889DC
:103E1000C830814226D9A1786068FFF70DFB607831
:103E2000401C6070FCF730FEA060FCF72DFEFEF732
:103E30009FF8FEF789F86421FCF772F92981607810
:103E400003280FD3E068002806D02169C860E06825
:103E5000216901610020E0606068FFF72BFA2046CD
:103E6000FFF728FA70BD0000B406002070000020A3
:103E7000F8B5074615460E461420FFF733FB0446F7
:103E8000077000206070A570A0602846FFF72AFB2D
:103E90002A4631466060FCF759F90648C168002996
:103EA00001D1C0600061E0600169CC6001692161FD
:103EB0000461F8BDB406002070B588B020216846C2
:103EC000FCF75DF9FDF754F8002827D06846FDF7A8
:103ED000D4F8002822D1FCF7D7FD164C0025A169A3
:103EE000401A642800D9E570FCF7CEFDA061124BA2
:103EF00000206E46E278315C9954521CD2B2E270D6
:103F0000012A0DD00C2A0FD061790D318A420CD1D3
:103F1000D1B20948FDF7ECFBE570657108B070BDE2
:103F2000A52902D0E57000E06171401CC0B22028D4
:103F3000E0D3F3E770000020C806002010B5084861
:103F4000807800280AD1074907A0FDF78BFA0023E3
:103F50007D211A46C9000648FEF742F810BD000050
:103F60004C0000203D3600085A435445535400008D
:103F70005D40000810B506490648FDF773FA7D213B
:103F800002230022C9000448FEF72AF810BD0000F1
:103F9000E94400082E000020D9390008F8B50027B0
:103FA0000E4E05230C245C43A419803CE46F002CC6
:103FB00001D15D1EEDB284420ED05B1E1B061B0EAE
:103FC000F0D1002F08D10C235D437255AB199860D6
:103FD0000622581CFCF7BAF8F8BD0000500100207A
:103FE00010B5124C607802281FD1A07800281CD18F
:103FF0002078002819D16068002806D0FCF744FD1D
:104000006168401AA16888420FD9094909A0FEF7E2
:10401000F1FD09A0FEF7EEFD08A0FEF7EBFD002084
:10402000FDF76CF9FCF730FD606010BD1800002052
:104030006445000825733A00000000000A000000F3
:10404000034610B50020024604E09C5C2018521C78
:10405000C0B2D2B28A42F8D310BD0000024801219A
:10406000C170C91E817070474C00002010B5044615
:1040700000784108CA0706D0FCF706FD6060A16819
:10408000E068884710BD490703D44008400020700D
:10409000F5E70020C0436080F1E7000010B50A4951
:1040A0000AA0FEF7A7FD0AA0FEF7A4FD09A0FEF7EF
:1040B000A1FD094C2046FCF7D5FB0722D201074998
:1040C0002046FCF7EDFB10BD6F46000825733A0053
:1040D000000000000A00000000F400088C0100202D
:1040E00070B50B4C0546A01CFDF73EF92078FDF796
:1040F00037F90020FEF734FC002D08D0054C20468F
:10410000FCF7B0FB062202492046FCF7C9FB70BD54
:104110002800002000F00008F7B586B006461546D6
:1041200000210798FEF797F81D4F002D04D10022BB
:1041300039460798FEF7BCF830790124240301289A
:1041400017D0022819D000200146326801900020C3
:104150000092029005900C20039104906946079804
:10416000FEF7BCF821460798FEF70CF9002D08D0A1
:1041700010E0012120468902E7E703212046490299
:10418000E3E739460798FEF761F8012239460798B8
:10419000FEF78EF801210798FEF75DF809B0F0BD33
:1041A00005010500FEB50446807A0125002808D1E6
:1041B000217860786A4611725072957202A8FCF7F5
:1041C000D5FFA18801226069FCF7E5FA2189012267
:1041D0006069FCF7E0FAE0880090022669460E71FB
:1041E00000208871CD71032048716069FCF79BFA4B
:1041F0006088694600900E716069FCF794FAFEBD14
:10420000F0B58C4D0646A8788BB00C46012802D03C
:10421000002809D013E0300011D0022E0FD0032E59
:104220000DD0042E0BD002E03046012E07D0030043
:10423000FEF7F0FC071210336885C4DE10007E49DB
:104240007EA0FEF7D7FC31467DA0FEF7D3FC80A010
:10425000FEF7D0FC0BB0F0BD1546774977A0FEF70E
:10426000C9FCE8786A7929796B4607C3AB786A7824
:10427000297878A0FEF7BEFC75A0FEF7BBFCFCF722
:1042800003FCFDF775FEFDF75FFE19214901FBF701
:1042900047FF23460022794831E0664E10781036F9
:1042A00030705078707017460846FDF7D5FE01460D
:1042B0000422B01CFBF74AFFF87839790002401855
:1042C00086B25D495DA0FEF795FC0096BB787A78D2
:1042D00039786B48FEF78EFC5DA0FEF78BFCB87852
:1042E0007A1D2146AB68FCF7CDF80120FFF7F8FEF8
:1042F0000220FFF7B9FB00231A4631466148FDF75B
:104300006FFEA7E74C494DA0FEF774FC5EA0FEF7D8
:1043100071FC4FA0FEF76EFC4648FF2206211030CC
:10432000FBF726FF0120FFF7DBFEEA68002A02D038
:104330000021092090470020FFF796FB8AE71446EA
:104340003D493EA0FEF756FCE079637A217A04AE3F
:10435000E2680FC6E078A379627921796E460FC6CC
:10436000A378627821784D48FEF744FC38A0FEF728
:1043700041FC2078002808D0607A00906178A0780D
:10438000E31CE268FBF7E0FF04E0A078FBF784FFA2
:10439000FBF7C0FFED68002DB3D0207808A90870A6
:1043A000A0784870607A087208A80622E11C0230E2
:1043B000FBF7CCFE08A90720A8474BE7E0B2FBF7C4
:1043C0006BFF00289DD01C491CA0FEF713FC214662
:1043D00033A0FEF70FFC1EA0FEF70CFCE0B2FCF7CA
:1043E0006DF8A87801288CD1E0B2FCF787FF31E79F
:1043F0001646E0B2FBF750FF00289FD0E0B2FCF772
:104400005DF80D490DA0FEF7F5FB21462EA0FEF745
:10441000F1FB0FA0FEF7EEFB69460C703078487098
:104420007078887070680190EA68002A86D0082049
:1044300090470FE718000020A445000825733A00B4
:1044400069676E6F7265206576656E7420256400FD
:104450000A0000004E45545F4556454E545F534593
:10446000415243483A206D6173746572202563257B
:104470006325632563256325630000001931000867
:104480005C4700082D3100084E45545F4556454EA7
:10449000545F4445565F44454C202100A84700081E
:1044A0004E45545F4556454E545F44455649434535
:1044B0005F484541525442454154207375624164FE
:1044C0006472203D202564004E45545F4556454E9C
:1044D000545F555345525F444154412066726F6D9D
:1044E000205B25645D00000030B50C46054685B0B4
:1044F0000E490FA0FEF77EFBA07961792279049521
:10450000019202910390E0780090A378627821787C
:1045100008A0FEF76FFB12A0FEF76CFBA279214604
:104520002846FFF73BFD05B030BD00008F45000871
:1045300025733A0073756244657620747970653A24
:104540002563256325632563256325632C20736C10
:104550006565703A25642C207569643A25780000F9
:104560000A00000073756244657648656172746282
:10457000656174006E65744275696C64446F6E6544
:1045800000646D4576656E7448616E646C65007795
:104590006D536561726368526573756C7448616EC2
:1045A000646C6500776D4E65746C617965724576F3
:1045B000656E7448616E646C6500574D4E65745548
:1045C0007365724461746153656E6400574D517533
:1045D000657279446576696365496E666F00574D0B
:1045E0004E65744275696C6444656C4465766963B4
:1045F0006500574D4E65744275696C64416464444E
:10460000657669636500574D4E65744275696C64E3
:1046100053656172636800574D446576696365430D
:104620006F6F7264696E6174696F6E00574D536588
:10463000744D6173746572536C6176654D6F64651A
:1046400000574D536574536C6565704D6F6465001C
:10465000574D5365744D6F64756C65547970650082
:10466000574D4E6574496E666F436C656172007597
:104670007064617465446576696365496E666F54FC
:104680006F466C61736800444D5570646174654891
:10469000656172746265617400504D536C6565703C
:1046A00000504D57616B65557000464C4153485F53
:1046B00049525148616E646C657200FFFFFFFF6EE6
:1046C0006574456E44656372797074006E657453E9
:1046D0006C6565704465764461746153617665000C
:1046E0004E65744275696C645374617274004E65F2
:1046F000744275696C6453746F70004E65745365D1
:1047000074536C6565704D6F6465004E65745365D8
:10471000744D616341646472004E65746275696CC6
:104720006453656172636844657669636500FFFF81
:10473000FFFF5048595377697463684368616E6E30
:10474000656C00504859496E697469616C697A6595
:104750000034431010344310100000004E45545FE5
:104760004556454E545F4445565F4144443A206D9A
:10477000792061646472657373203D2025642C2068
:1047800072664368616E6E656C203D2025642C2046
:104790006B6579203D2025642C20686274696D6505
:1047A000203D2025640000004E45545F4556454E8F
:1047B000545F434F4F5244494E4154494F4E3A2063
:1047C0006275696C643D25642C206B65793D2564B8
:1047D0002C206E6574416464723D25642C207479CC
:1047E00070653D2563256325632563256325632C5B
:1047F000207569643D25642C20736C6565703D25CA
:10480000640000002448000800000020B000000000
:104810002E2C0008D4480008B00000201813000017
:104820003E2C00080100000015CD5B07043BD82199
:104830008C0A2913D2040000000000000000FF00D1
:1048400000000000881300000000000000000000CD
:104850000000000000000000000000000000000058
:104860000000000000000000000000000000000048
:104870000000000000000000010000000000000037
:104880000000000000000000000000000000000028
:104890000000000000FF0000FF00FFFF000000001C
:1048A0000000000000000000000000000000000008
:1048B00000000000000000000000000001020304EE
:1048C00001020304060708090000000000000000C0
:0448D00000000000E4
:04000005080000B53A
:00000001FF
