:020000040800F2
:10000000D80B0020C9000008EF000008F10000082C
:1000100000000000000000000000000000000000E0
:10002000000000000000000000000000F3000008D5
:100030000000000000000000F5000008F7000008C4
:10004000F900000800000000F90000087904000829
:10005000F9000008F9000008F9000008F90000089C
:1000600000000000F9000008F9000008F90000088D
:10007000F9000008F9000008F9000008000000007D
:10008000951900080000000000000000F9000008B9
:10009000F9000008F9000008F9000008F90000085C
:1000A000F9000008F9000008F9000008491A0008E2
:1000B000751A00080348854600F0AAF80048004772
:1000C0009D280008D80B00200C4880F308880C48B5
:1000D0000168090E0B4A914205D10B480B4901609A
:1000E0000B480C4901600C4880470C480047FEE76C
:1000F000FEE7FEE7FEE7FEE7FEE70000D80B002084
:10010000040000001F000000181002400100000061
:100110000000014000000000D5180008B5000008EC
:1001200030B50B46014600202022012409E00D468F
:10013000D5409D4205D31D469540491B2546954017
:1001400040191546521E002DF1DC30BD03460B430D
:100150009B0703D009E008C9121F08C0042AFAD27D
:1001600003E00B780370401C491C521EF9D2704703
:10017000D2B201E00270401C491EFBD2704700223F
:10018000F6E710B513460A4604461946FFF7F0FF96
:10019000204610BD30B504460020034600E05B1C3D
:1001A000934203D2E05CCD5C401BF8D030BDF0B58B
:1001B0001FB40646002082B00546402401910090FD
:1001C0001BE0019922460F46304600F043F8049A9E
:1001D000059B801A994110D310461946224600F01B
:1001E00029F8361A8F410197224601200021009FED
:1001F00000F020F838184D4100902046641E002879
:10020000DFDC019B00982946324607B0F0BD0000B4
:10021000064C0125064E05E0E36807CC2B430C3C59
:1002200098471034B442F7D3FFF748FF0C37000863
:100230002C37000810B5202A04DB0146203A9140F3
:10024000002010BD914020239C1A0346E34019432F
:10025000904010BD10B5202A04DB0846203AD0405B
:10026000002110BD0B46D340D0402024A21A91405B
:100270000843194610BD00001F2805D8182148431F
:1002800003490A5CDD2A01D00020704740187047FE
:1002900070010020F8B50E461149074601241820C8
:1002A0006043085CDD2814D01820DD2560430D5420
:1002B00045182F71EE72EA60681D06221946FFF795
:1002C00045FF002028616861A86102F0D3FE204646
:1002D000F8BD641CE4B2202CE1D3FF20F8BD00007F
:1002E0007001002010B5002805D0FF221821FFF76B
:1002F0003FFF02F0BFFE10BD70B5182460430A4CEA
:10030000049D0419DD2020702571E172E26006224F
:100310001946601DFFF71AFF002020616061A0618F
:1003200002F0A8FE70BD00007001002010B5034669
:10033000084A002018214143545CDD2C03D1891860
:10034000C968994204D0401CC0B22028F2D3FF20D3
:1003500010BD000070010020014948607047000096
:100360003800002010B5032212020849084800F0A6
:10037000A9F90020054B024618214143C918401C29
:100380000A74C0B24A612028F6D310BD7001002063
:1003900000F4000810B502F001FA10BD10B50346D4
:1003A000FFF76AFF04000DD0207C002806D1012051
:1003B0000A4A2074526800211846904700F032FA29
:1003C000606110BD064907A001F060FE09A001F0C0
:1003D0005DFE0DA001F05AFE10BD000038000020A7
:1003E000AC35000825733A5B2121214552524F520A
:1003F0005D000000646576696365206E6F74206639
:100400006F756E64212121000A0000000149C86057
:100410007047000000200240F0B50B2706463F045D
:10042000384600F08DF804280FD1084C20690225C9
:1004300028432061666120694021084320613846D5
:1004400000F07EF82169A9432161F0BD002002403F
:1004500008490420CA68D20701D001207047CA6841
:10046000D20601D502207047C9684907FBD5032091
:10047000704700000020024010B5024902A001F0C0
:1004800005FE10BDBE350008257320456E747279D7
:100490002121210A00000000024801698022114345
:1004A00001617047002002400449102200280868BA
:1004B00001D0104300E090430860704700200240E4
:1004C000F8B5064600200B273F0400900D4638463D
:1004D00000F036F8042815D10B4C2069012108439F
:1004E00020613580384600F02BF8042806D1B61C70
:1004F000290C00963180384600F022F8216949081D
:1005000049002161F8BD000000200240034A116843
:100510004908490001431160704700000020024073
:1005200004480169090603D5034941600349416054
:10053000704700000020024023016745AB89EFCDE2
:1005400000B50346FFF784FF02E0FFF781FF5B1E63
:10055000012803D0002B00D1052000BD002BF4D1D1
:10056000FAE7F0B50022032501230C6893401C40F4
:100570009C422AD10C79012C01D0022C12D187681F
:1005800054002E46A640B74387604E79A640846843
:100590002643866084889C43848084888B7993403A
:1005A0001C438480066853002C469C40A64306608A
:1005B0000E7907689E403E430660C668A643C66043
:1005C000CC799C40C3681C43C460521C102ACBD316
:1005D000F0BD4B07DB0E9A40C90810B5890008181A
:1005E000016A0F249C40A1430162016A1143016228
:1005F00010BD0246128A00200A4200D00120704736
:10060000002A01D0816170470185704710B500F064
:1006100021FF012001F034F801F06AF80120FFF712
:1006200043FF0120FFF772FF002001F01FF80020B8
:1006300001F02EF80521C904002001F041F8012045
:1006400001F030F8192000F0EFFF0028FAD0022066
:1006500001F044F801F002F80828FBD10320012141
:10066000400400F0D3FE0121880300F0E7FE0121E1
:10067000480400F0D7FE0121022000F0D3FE012142
:10068000C80200F0DBFE0121080300F0D7FE0121C3
:10069000084600F0D3FE10BD70B50546FFF740FFD9
:1006A00000243420FFF7B2FE2846FFF7B5FE0428E9
:1006B00003D0641CE4B20A2CF3D3FFF7EDFE70BD47
:1006C000704770470B4610B50146184692B2FFF7C7
:1006D0003DFD10BDF0B50027C3B00D4606463C46B3
:1006E000FF2A01D91004070ED0B2009010E02002BA
:1006F0004119FF220190013202A8FFF727FD01985E
:10070000FF228019013202A901F09CFF641CE4B2AF
:10071000BC42ECD30098002810D0FF22571C394669
:1007200002A8FFF725FD2402611902A8009AFFF72D
:100730000DFDA0193A4602A901F084FF43B0F0BDB7
:1007400000B585B0302802D9002005B000BD69464B
:1007500002F092FA684681880098FFF74AFFF4E7B2
:1007600010B588B00C46302818D802A902F084FAD7
:10077000694688890090032048710020002C02D02F
:10078000012C02D00220087104E001216A46117197
:10079000D171907169460298FFF7E3FE08B010BD71
:1007A0007047704710B586B00C46302808D86946A7
:1007B00002F062FA6846818822460098FFF720FF1F
:1007C00006B010BD0EB5FFF721FF00F09DF8FFF752
:1007D000E7FF00F0DBF800F02BF8FFF771FFE120F6
:1007E00040020090002069460871029000F0BEF8B7
:1007F0000EBD000003490028087001D062B67047A2
:1008000072B670474000002010B500F01DF910BD11
:1008100010B5FFF7C6FF00F05BF8FFF752FF00F0DE
:10082000F1F810BD0148406870470000400000200A
:1008300030B587B020200590032069464876022015
:10084000087600248C760120C8760925ED0605A9D6
:100850002846FFF786FE8021059105A92846FFF767
:1008600080FE4021059105A92846FFF77AFE002267
:1008700020212846FFF7ADFE002240212846FFF741
:10088000A8FE002280212846FFF7A3FE6946FF202C
:100890000C8005304880072000028880CC80012031
:1008A0000C814002488110208881CC810720074CB0
:1008B0000882204600F042FFA114204600F06AFFA3
:1008C0000121204600F02AFF07B030BD0030014072
:1008D0007047000070B50B4C05460221204600F021
:1008E00026FF0028F9D02946204600F05DFF0121AF
:1008F000204600F01CFF0028F9D0204600F048FFF9
:1009000070BD0000003001401FB51020694608731B
:10091000022048730120887303A800F0A7F90D484E
:1009200001902F2069460880002008810A4C4880E9
:10093000204601F04FF80121204601F035F8012250
:100940001146204601F03DF80121204601F02FF824
:100950001FBD0000E703000000040040024841689A
:10096000491C4160704700004000002010B50B4654
:10097000032807D2410104480818827A0169184601
:1009800002F0B6FB10BD00007004002070B51A48DC
:100990000926E125F6066D02466100240121C560A5
:1009A0008902846141800A21818001214902C1803C
:1009B000092101811B210170447010490161847279
:1009C000C46102F0DBFB0C4808214663C562846306
:1009D0004184032181840421C184022101851C21D9
:1009E0002030017001214170054901618472C461A8
:1009F00002F0C4FB70BD000070040020003801400C
:100A00000044004070470000F8B50E460C49002431
:100A10004001174645180BE0315D286901F0F1F8F7
:100A20008021286901F04BF80028F9D0641CA4B299
:100A3000BC42F1D30349286901F032F83846F8BDC9
:100A40007004002006010600024901480860704752
:100A5000AAAA0000003000401CB50EA003C80191F6
:100A6000009005226946302002F0D7F80522694639
:100A7000102002F0A3F8002069460A5CA52A03D1E1
:100A8000401CC0B20528F8D3052801D000201CBDA9
:100A900001201CBDA5A5A5A5A500000010B501203D
:100AA000FFF74EFE002801D0002010BD012010BD30
:100AB00010B501211020FFF753FE01210420FFF79C
:100AC0004FFE00210120FFF74BFE00211020FFF711
:100AD00069FE01210420FFF765FE10BD70B50D46CB
:100AE000044600F0B2F8002C32D000211020FFF7AD
:100AF00059FE04222A49302002F08FF828490422A6
:100B0000091D2A2002F089F80221232002F0A0F812
:100B10000021212002F09CF80121222002F098F807
:100B20000021242002F094F82946252002F090F8B4
:100B30002721262002F08CF80A21202002F088F8D4
:100B400001211020FFF72EFE962001F01DFE70BD42
:100B500000211020FFF726FE11490422091D2A203A
:100B600002F05BF80221232002F072F8002121201C
:100B700002F06EF80121222002F06AF80021242000
:100B800002F066F82946252002F062F82021312083
:100B900002F05EF82721262002F05AF80B21CCE75C
:100BA00065360008704770B50546072002F022F848
:100BB00004460146272002F04BF860060ED520229D
:100BC0002946612001F0FAFFFF21E22002F040F8FF
:100BD000FF21E12002F03CF8002070BD012070BD33
:100BE00070B50C46054600211020FFF7DBFD002004
:100BF000FFF700FE22462946A02002F00EF8012150
:100C00001020FFF7CFFD0120FFF79AFD0028FAD151
:100C1000072001F0EFFF04460146272002F018F8F4
:100C2000FF21E22002F014F80120FFF7E3FDE006C7
:100C300005D5FF21E12002F00BF8102070BDA006C1
:100C400001D5202070BDFF2070BD10B500211020FF
:100C5000FFF7A8FD0D21202001F0FAFF012110204F
:100C6000FFF7A0FD1E2001F08FFD10BD30B582788A
:100C700001240178002A15D08B080E4A9B009A188F
:100C800013688907C90EFF258D40AB434578AD0732
:100C90002D0E8D401D4315600078C006C00E8440A7
:100CA000054804E0C806C00E844003488030046054
:100CB00030BD000000E400E000E100E010B50849AC
:100CC00008A001F0E3F908A001F0E0F907A001F0A5
:100CD000DDF90749012008707D2000F075FB10BD8B
:100CE000F435000825733A00000000000A000000F7
:100CF0004C00002010B50446084909A001F0C6F9CF
:100D0000214608A001F0C2F909A001F0BFF9094B82
:100D100000221A70204600F057FB10BD0236000872
:100D200025733A00776F726B2063683A2564000080
:100D30000A0000004C00002010B500F00DF910BDB5
:100D400001494860704700004C00002010B505487C
:100D5000C060006100F038F9034A0449044800F01B
:100D6000B3F910BDB0040020312A00086929000839
:100D7000492A000810B500F0C3FA01F0A5FE10BD25
:100D800010B50249497800F0F3F810BD4C0000207E
:100D900038B5044609490AA001F078F9E0780090D6
:100DA000A3786278217807A001F070F90AA001F019
:100DB0006DF9204600F0ACFA38BD00001F3600087F
:100DC00025733A00253032783A253032783A25308A
:100DD00032783A25303278000A00000010B500F071
:100DE000B9FA10BD10B500F0CBFA10BD10B504462D
:100DF000064907A001F04AF9214606A001F046F98C
:100E000005A001F043F90548447010BD0F360008F5
:100E100025733A00256400000A0000004C00002001
:100E2000F0B5C1B00D460746062069460871164662
:100E300001A81C461A4631460130FFF787F9641CA9
:100E4000E2B23146384601F0BDFD002D06D0E2B2D7
:100E50003146384601F062FE41B0F0BD00200090FE
:100E60000348E3B2417801AA384600F0EBF8F3E713
:100E70004C0000203EB5044603206A46107000A8CE
:100E80000B220130FFF762F9204600F017FD002326
:100E90000C22694600F018F83EBD00001CB50C4657
:100EA00002216A461170014600A806220130FFF7B0
:100EB0004DF96A46D471012308226946014800F0C1
:100EC00003F81CBDCF350008FFB5C1B06C46A520A6
:100ED0002070012060701546A01C1E4607460422A3
:100EE0004199FFF733F904221949381DFFF72EF90C
:100EF00017496A461C3908789072401C0870D572F0
:100F000020462A460C304299FFF720F928460C303B
:100F1000C4B22146684601F0F7FF694608550C3512
:100F2000ECB2641C002E0ED104220A494198FFF74E
:100F300031F9002807D06846E2B2807A694601F0AC
:100F400011FF45B0F0BDE1B2684601F059FCF8E789
:100F5000700000204236000810B5002803D004229B
:100F60000249FFF7F3F8014810BD000070000020AF
:100F700010B590B00446A52268460270002900D042
:100F8000802103221143417004220E49801CFFF787
:100F9000DDF80C496A46947120394878D071087898
:100FA0009072401C08700020D0720C21684601F03D
:100FB000ABFF6A4610730D21684601F021FC10B0AA
:100FC00010BD00007400002010B50F48C060006123
:100FD000FFF76EFDFFF740FD002809D10B490CA07B
:100FE00001F054F80BA001F051F810A001F04EF8F8
:100FF000064907A001F04AF80DA001F047F80BA040
:1010000001F044F810BD0000C40400205736000869
:1010100025733A0050485920646576696365206EEF
:101020006F7420666F756E64212121000A00000034
:101030005048592064657669636520696E6974203B
:101040006F6B2100FFB5C1B006466D46A5204A9FD3
:101050001C462A462870002901D0802000E000208C
:10106000507004221749A81CFFF770F815496A460A
:10107000967120394878D07108789072401C0870B9
:10108000D472284622460C304399FFF75FF8204679
:101090000C30C5B22946684601F036FF694648550E
:1010A0000C34E0B2401C002F07D1FF2E05D0C2B295
:1010B000887A01F057FE45B0F0BDC1B2684601F034
:1010C0009FFBF8E774000020014B07C37047000046
:1010D00060000020F3B5044600208DB0064609905C
:1010E0000890607847067F0E012F12D0A61C0422BC
:1010F0006C493046FFF74EF800281AD1694930791B
:1011000020394978884221D170790090A07A0190E5
:1011100020E06449A01C0422091F0990FFF73AF857
:10112000002808D0042260490998FFF733F8002806
:101130000ED00FB0F0BD00200090A07A0999019068
:1011400004225848091DFFF701F803E0FF28F0D1F9
:101150000120089055A000F099FF002505E0615D91
:1011600054A000F093FF6D1CEDB20E988542F6D3AB
:1011700052A000F08BFF089800282BD1022F3DD001
:10118000032F2BD0009D01980A9000A802300B90ED
:101190004BA00A9900F07AFFA5206946087002204A
:1011A000487004223F490B98FEF7D0FF3D4869463E
:1011B0008D7120384078C8710A9888720020C872F2
:1011C0000C21684601F0A0FE694608730D216846AF
:1011D00001F016FB012F11D0022F0FD03148A27A57
:1011E0002038C1888A4207D1727903799A4203D1A3
:1011F00036A000F04BFF9CE7717901712948A17A74
:101200002038C180002F0ED0012F1AD0022F23D0FA
:10121000032F8ED14269002A8BD06078C109C901A1
:101220007079904785E7C568002D82D0E07A0090FC
:1012300060782346C109C90170790C33089AA84720
:1012400077E70569002DD6D0224609980C32E37A5B
:10125000001D0899A8476CE72349C868002801D1F8
:10126000C9600961CD6819E02A78A37A9A4214D13D
:10127000D9B21EA000F00AFFE868002806D029694C
:10128000C860E868296901610020E860686801F0C9
:101290001DFA284601F01AFA4BE70546E8688D4228
:1012A000E2D146E7740000204236000852656376BA
:1012B0003A00000025303278200000000A000000CB
:1012C00061636B207069643A25640A007265706519
:1012D0006174206D6573736167652C2069676E6F3B
:1012E00072652025640A0000C404002072656376DC
:1012F000207069643A25642061636B0A0000000075
:1013000010B5FFF74FFC01F0EFFC01F04FFD10BDF1
:1013100038B50446C0780090A3786278217804A09C
:1013200000F0B4FE042221460948FEF70FFF38BD45
:10133000536574204D61633A253032783A25303256
:10134000783A253032783A253032780A00000000A9
:101350007000002010B50446014603A000F096FE80
:101360000648447010BD0000536574204E6574201B
:10137000416464723A25640A0000000054000020B1
:1013800038B50446C0780090A3786278217804A02C
:1013900000F07CFE042221460A48FEF7D7FE38BD45
:1013A00053657420736567416464723A25303278FE
:1013B0003A253032783A253032783A253032780A78
:1013C000000000007400002010B5044608482146C3
:1013D00084700020FFF782FB064907A000F056FE4C
:1013E000214606A000F052FE07A000F04FFE10BDFF
:1013F000540000204636000825733A006368616E89
:101400006E656C3A256400000A000000044A002959
:10141000516901D0014300E08143516170470000F0
:1014200000100240044A0029D16901D0014300E0C4
:101430008143D1617047000000100240044A002936
:10144000916901D0014300E0814391617047000040
:1014500000100240124801680122114301604168F6
:10146000104A1140416001680F4A11400160016853
:10147000012292049143016041683F22120491438A
:101480004160C16A09090901C162016B074A114043
:101490000163416B49084900416300218160704745
:1014A000001002400CB8FFF8FFFFF6FEACFEF0FFA4
:1014B000F8B5564E0446706800210C22544D104079
:1014C00005D0042803D0082803D00C281AD02560A2
:1014D0001AE07168706803228902D2030F0F10406E
:1014E000BF1C00280AD0F06A0107090F2846491CD2
:1014F000FEF716FE78430146216005E0454839466F
:101500004143F9E7444820607068444F0006000FEB
:101510003B5C20680246DA40626073685B055B0FE3
:10152000FB5CDA40A260336BDB0501D43C4B05E089
:1015300073685B0401D4530800E09308E360336BE5
:101540005F06384B03D4374F1237276100E0236121
:10155000376BFF0601D4656100E06061376BBF0740
:101560000ED0376BBF07BF0F012F0BD0376BBF07F4
:10157000BF0F022F08D0376BFF43BF0706D006E02E
:10158000A26104E0A06102E0A36100E0A561376B05
:10159000BF03BF0F0FD0376BBF03BF0F012F0CD09E
:1015A000376BBF03BF0F022F09D0376BBF03BF0FCD
:1015B000032F06D006E0E26104E0E06102E0E361AF
:1015C00000E0E561376B3F03BF0F0FD0326B1203B2
:1015D000920F012A0CD0306B0003800F022809D033
:1015E000306B0003800F032806D006E0226204E07F
:1015F000206202E0236200E02562306B000602D424
:1016000005486062F8BD6162F8BD0000001002404C
:1016100000127A0000093D00006CDC027800002016
:10162000809FD50000800000034600200A4A590927
:101630000CD001290CD002290CD0516BDA06D20E45
:10164000012393400B4200D0012070471168F5E759
:10165000116AF3E7516AF1E700100240024840685E
:101660000C2108407047000000100240034A5168F6
:10167000F02399430143516070470000001002407D
:10168000024900228A7088707047000000100240F2
:10169000034A516807231B02994301435160704775
:1016A000001002400122054912060028086801D0F6
:1016B000104300E0904308607047000000100240B3
:1016C00010B5054A53687B24E403A3435360536871
:1016D00008430343536010BD00100240034A5168A1
:1016E00089088900014351607047000000100240E2
:1016F00018B500200524240300901120FFF794FF63
:101700000099491C0091A14201D00028F5D0112078
:10171000FFF78AFF002800D0012018BD40220029D1
:10172000018801D0114300E09143018070470246D7
:10173000128900200A4200D00120704730B503888A
:10174000C122920113400A88CC890D892243CC889A
:101750002C4322434C8922438C8922431A43028022
:101760008288094B1A408B88134383800A8A02823D
:101770000288042349889A4311430180818B034ADC
:101780001140818330BD0000FFF00000FFF7000032
:10179000007B70478288034B1A40828082880A430C
:1017A00082807047FFEF00000173704710B5FFF7AC
:1017B00009F800F03BF800F055FA10BD0246002091
:1017C0000146535C0002491CC018C9B20429F8D371
:1017D000704710B500F09CFBFFF71AF800F028F8EE
:1017E00010BD000008490868C2024240486808600D
:1017F00088684860CB688B60D80C58405040120A0B
:101800005040C860704700000000002010B5064C32
:101810002060FFF7E7FF6060FFF7E4FFA060FFF7DD
:10182000E1FFE06010BD00000000002070470000F4
:1018300070B50A4E00242501705DC0070AD0FEF77E
:10184000F1FFA9194A68801A4A88904202D90846CD
:1018500001F0F8FB641C0A2CEDDB70BD9400002045
:10186000F8B5154606460024134A20460701D75D01
:10187000FF0718D0401C0A28F8DB002C1AD0A660FD
:10188000E3606180FEF7CEFF606020786900C007EA
:10189000C00F084320704008800702D5204601F0A1
:1018A000D1FB2046F8BD00018418207801221043A6
:1018B0002070E2E70020F8BD940000200449020EE9
:1018C0000A70020C4A70020A8A70C8700846704793
:1018D0001000002013480168012211430160416893
:1018E000114A114041600168104A114001600168CD
:1018F000012292049143016041683F221204914306
:101900004160C16A09090901C162016BFF221432F9
:1019100091430163416B49084900416300218160A3
:1019200070470000001002400CB8FF08FFFFF6FEF1
:101930003EB50A4801902F206946088000200881A2
:10194000074C4880204600F045F80121204600F071
:101950002BF80121204600F02AF83EBDE7030000E5
:10196000002C01403EB52F200190002069460880E0
:101970000881074C4880204600F02CF801212046C1
:1019800000F012F80121204600F011F83EBD0000E1
:10199000002C014010B50121024800F005F8FEF7C7
:1019A000DDFF10BD00040040C943018270470029DB
:1019B000018802D00122114301E049084900018059
:1019C0007047002A828901D00A4300E08A4382815D
:1019D0007047000010B50288144B984206D00124CD
:1019E000A407A04202D0124CA04203D17024A2430B
:1019F0004C8822430F4CA04203D00F4C22400C894C
:101A0000224302804A68C2620A880285984208D04E
:101A10000A4A904205D00A4A904202D0094A9042AE
:101A200001D1897A01860121818210BD002C0140FB
:101A30000004004000100040FFFC00000040014096
:101A4000004401400048014010B5094C07492046B8
:101A500000F03CF8002807D0204600F0C6F801222C
:101A60000821204600F0C5F810BD00000501050062
:101A70000038014010B5094C0749204600F026F80F
:101A8000002807D0204600F0B0F8012208212046A7
:101A900000F0AFF810BD0000050105000044004053
:101AA000090C01228A40026270470029016802D0B5
:101AB0000122114301E049084900016070470246D4
:101AC000D26900200A4200D00120704730B50A04D4
:101AD000130E01252A4600248A40012B0ED0022B2A
:101AE0000ED08368090C1340C0698D402840002B3C
:101AF00002D0002800D00124204630BD0368F1E761
:101B00004368EFE710B50B041C0E01238B40022C39
:101B100002D0032C02D002E0001D00E00830016872
:101B2000002A01D0194300E09943016010BD000074
:101B300030B5044600688BB00D4640084000206078
:101B40006068032109038843A96801436160206834
:101B50001C49EA680840696811432A690243114335
:101B60002160A06803210902884369690143A160DB
:101B70006846FFF79DFC1448844201D106980AE0AC
:101B80001248844201D1079805E01148844201D1EE
:101B9000089800E0029821680904296800D54000EF
:101BA000FEF7BEFA2A6852088A4200D8401C216813
:101BB000090404D50107074A490F10400843A081D2
:101BC0000BB030BDF3E9FFFF003801400044004096
:101BD00000480040F0FF0000826801231B039A4385
:101BE000826082680A4382607047808CC005C00DA5
:101BF0007047002A028B01D00A4300E08A43028327
:101C00007047C905C90D018570470000014948604A
:101C10007047000014000020014840787047000021
:101C200014000020F8B500250D4F06462C4620462E
:101C30000C214843C1198A68002A0BD0E200B45431
:101C40003B5C901943700622801C491CFEF77EFA0B
:101C50006D1CEDB2641CE4B2052CE8D32846F8BD37
:101C60003401002038B519A000680090FFF76EF825
:101C70001748FFF765F8174C2046FEF70DFD0422C4
:101C800069462046FEF726FD042269462046FEF7F7
:101C900019FD6846FFF77CF8FEF764FB0E48FEF777
:101CA0005BFBFF2206210D48FEF762FA06220B4974
:101CB0000B48FEF707FD09480078FF2805D00220F1
:101CC00000F070FE002001F0F7F938BD2202031386
:101CD000D931000800F800088525000824000020FC
:101CE00000F00008F3B54A4885B040780E46012858
:101CF0000AD0052E0ED8002E0CD0012000F052FE86
:101D0000FEF7DCFF00255DE0424943A000F0BEF98C
:101D100045A06AE03F4940A000F0B8F9314649A02B
:101D200072E00598405D052867D20C2148434B4975
:101D30004418A068FEF7FAFAFF280FD1FEF772FDEB
:101D4000FFF764FDFFF74EFDC0B204902078631CDE
:101D5000A2680499FEF79EFAFF2841D069460871EF
:101D6000049888712A480622103040784871284922
:101D700002A816310130FEF7E9F94B20771BC000AD
:101D80004743FFF72FFD7D21C900FEF7C9F9C819A8
:101D900087B2380A6946C8710F721E4930A000F038
:101DA00075F9694600978B790A792EA0A16800F031
:101DB0006DF938A000F06AF901A9A068FFF75AF898
:101DC0006D1CEDB2B542ACD34B20C000314641434F
:101DD000032300223048FFF743FD002007B0F0BD89
:101DE0000C490DA000F052F92CA000F04FF929A0E9
:101DF00000F04CF90020C043F0E7064906A000F0CF
:101E000045F90598415D2AA000F040F9EFE7000090
:101E1000140000202135000825733A5B212121455B
:101E200052524F525D000000776169742C20616C42
:101E30007265616479206275696C64696E67202ED1
:101E40002E2E00006E756D5B25645D206F7574200D
:101E50006F662072616E672100000000340100206F
:101E600025733A0041646420646576696365205592
:101E700049443A25782C20616464723A25642C2008
:101E80006B65793A25642C20686254696D653A2542
:101E9000640000000A0000001D29000864657669DE
:101EA0006365206C6973742066756C6C2121210058
:101EB00069645B25645D206F7574206F66207261B4
:101EC0006E67210010B509498978002906D10028DC
:101ED00005D0012000F066FDFEF7F0FE10BD0348BE
:101EE00010304078FEF706FF10BD000014000020FF
:101EF00070B514460D460646FEF7BEF9002805D01B
:101F0000017923462A463046FEF78AFF70BD00005D
:101F100010B5FEF72FFF0B4C607802280FD1A07888
:101F200000280CD1FEF77EFCA168401AE1688842C7
:101F300005D90020FEF724FFFEF774FCA060FEF731
:101F400029FA10BD1400002070B5064600251C4972
:101F50001CA000F09BF831461BA000F097F81EA0D3
:101F600000F094F81D4900200C461034002E1CD0BF
:101F700001228A702178002915D02070FEF752FCCA
:101F800005460020FEF7D8FEC0782818FFF73EFC73
:101F9000FFF728FC1E21FEF7C3F85A316170A01C20
:101FA000FEF7CAFE0125022004E088702078FF2891
:101FB000F9D1002000F0F6FC284601F07DF870BD54
:101FC0004635000825733A0069734D617374657274
:101FD000203D2025640000000A00000014000020BD
:101FE0003EB504460B490CA000F050F8E078627949
:101FF00021796B4607C3A3786278217807A000F0A7
:1020000045F80AA000F042F8062221460848FEF7EB
:102010009DF83EBD6A35000825733A0025632563A7
:102020002563256325632563000000000A00000086
:102030002A00002010B504460B490CA000F026F839
:1020400021460BA000F022F80CA000F01FF80C486D
:10205000002C047001D00B4A00E00B4AC2602046FD
:10206000FEF7C4FE10BD00005B35000825733A0082
:10207000736C656570203D20256400000A00000037
:1020800014000020E0930400881300000FB410B582
:1020900003A9044B044A029800F024F810BC08BCC1
:1020A00004B01847BB2600088800002030B47446EE
:1020B000641E2578641CAB4200D21D46635D5B0044
:1020C000E31830BC184702E008C8121F08C1002AF4
:1020D000FAD170477047002001E001C1121F002AA9
:1020E000FBD17047FFB591B00F460546002606E0CC
:1020F00025280AD0149A139990476D1C761C2878CD
:102100000028F5D1304615B0F0BD0024009401211F
:10211000F34A029400E004436D1C2B780846203BF0
:1021200098401042F7D128782A280ED0022128782A
:102130000246303A092A15D8009A0A235A43303AFF
:1021400080180C436D1C0090F1E701CF009000282F
:1021500005DA012040030443009840420090022029
:1021600004436D1C28782E2815D104200443687878
:102170006D1C2A280AD101CF6D1C02900BE0029938
:102180000A225143303940186D1C029028780146CC
:1021900030390929F3D928786C2810D006DC4C286E
:1021A0001AD068280ED06A2817D104E0742813D0FA
:1021B0007A2812D110E00120400504430CE00121EF
:1021C000090501E0032109050C436978814203D127
:1021D0000120000524186D1C6D1C287803906E28C2
:1021E0001ED00CDC632831D004DC00288AD05828AB
:1021F00011D1B2E064287BD069280CD178E0732833
:102200002DD004DC6F2870D0702804D1A7E0752889
:102210006CD078286BD0149A13999047761C62E0A2
:102220006002400F022807D003280AD0042838682B
:102230000AD006603F1D56E03868F117066041601D
:10224000F8E738680680F5E70670F3E738786946FE
:1022500008740020487404A80390012003E0386843
:1022600003900020C0433F1D61070FD5002101E00E
:102270000199491C029A0191914213DA8142F7DBDC
:10228000019A0399895C0029F2D10BE0002101E059
:102290000199491C01918142FADB019A0399895CF9
:1022A0000029F5D101990098139A401A009021460F
:1022B000149B00F03BF901998019461807E0039838
:1022C00003990078491C0391149A13999047019837
:1022D000401E0190401CF2D12146149B139A009895
:1022E00000F014F986196D1C09E741E033E034E091
:1022F0000A200021049005916002410F022905D0B7
:1023000001CFC2179446032905D007E0FF1DFF083F
:10231000FF0003CF06E000B2C2179446042902D1A1
:1023200040B2C1178C4600226146944506DA0A463F
:102330000021404291418C462D2102E0210504D527
:102340002B216A461176012103E0E10701D020210B
:10235000F7E7019154E00A200BE0102009E010207B
:10236000049000210420044308200591029003E01A
:1023700008200021059104906002410F022905D038
:1023800001CF00229446032906D006E0FF1DFF0876
:10239000FF0003CF8C4603E080B2042900D1C0B215
:1023A0000021019121072BD50399702906D0049AA9
:1023B0001021059B4A401A4305D00EE040216A4691
:1023C0001176012108E06146014306D030216A46BA
:1023D00011760399517602210191049A0821059BF7
:1023E0004A401A430CD16146014301D1610707D528
:1023F00030216A461176012101910299491E02910C
:102400000399582904D037A103910FA90F910DE02A
:1024100039A1F9E76146059B049AFDF7C8FE039BC5
:102420008C469B5C0F9A521E0F92137061460143BB
:10243000F0D10F9807A9081A20300390600704D53F
:10244000012000048443029801E0012002900399D6
:10245000884201DD401A00E00020411802900198F6
:1024600009180098401A0090E00306D42146149BF6
:10247000139A009800F05AF886190020049008E09A
:1024800006A9085C149A139990470498401C761C7E
:10249000049001998842F3DBE0030CD52146149B9C
:1024A000139A009800F042F8861904E0149A30203C
:1024B00013999047761C0299481E02900029F5DC7A
:1024C00008E00F980F990078491C0F91149A1399FE
:1024D0009047761C0399481E03900029F1DCFBE627
:1024E00009280100303132333435363738396162EA
:1024F00063646566000000003031323334353637AE
:10250000383941424344454600000000F8B50446CE
:1025100000251E461746880404D405E039462020CD
:10252000B0476D1C641EF9D52846F8BDFFB50446BA
:10253000002581B01E46C80301D5302700E02027C2
:10254000880404D505E038460399B0476D1C641E25
:10255000F9D5284605B0F0BD10B50348017816300E
:10256000FEF79CFC10BD00001400002010B50020F8
:10257000FEF706FCFEF756F90149886010BD000021
:102580001400002070B50C460546084908A0FFF766
:102590007DFD002C08D007A2294608A0FFF776FD94
:1025A0000BA0FFF773FD70BD0AA2F5E7E934000840
:1025B00025733A006F66666C696E65004465762027
:1025C000616464726573732025643A20257300008A
:1025D0000A0000006F6E6C696E650000F1B5174867
:1025E00082B0C168002901D1C0600061C4680027C1
:1025F000134EE5681DE021780298814217D10097BB
:10260000637871786268FEF71DFDE068002805D0E8
:102610002169C860E06821690161E760606800F0D5
:1026200055F8204600F052F8B078401EB0702C46A5
:10263000ED6802488442DED1FEBD0000B0040020F7
:102640004C000020F8B517460C460646FDF768FF1B
:102650003420FDF7DBFE002C2CD0BD0828E0002143
:10266000002D0FD00320225C401E0A4311020128D6
:10267000F9DA207801433046241DFDF721FF0428B4
:1026800014D014E0B807800F012803D0022801D02D
:102690000328F0D1401EEED4225C0A43012801DD5C
:1026A0001102F7E7C30011469940F3E7361D6D1E8E
:1026B000002DD4DCFDF7F0FEF8BD13B5012269460C
:1026C0000020FEF7A1F900981CBD000010B50028FD
:1026D00023D0124B0022001F196803E0814203D867
:1026E0000A4649680029F9D1002A0AD01368841AD9
:1026F0009C4204D1006818181060104602E0506037
:1027000000E01860002907D002680B1A934203D139
:102710000B68D21802604968416010BD8C0000202F
:10272000F8B50E4605460024094F0DE0304600F08E
:1027300011F8FEF769F8398A3846C90704D0012133
:10274000FFF732F9641CA4B2AC42EFD3F8BD00002D
:10275000002C014010B503490978884201D000F0EF
:1027600003F810BD4800002010B506490028087085
:1027700004D0012801D1FFF7DBF810BDFFF7F2F814
:1027800010BD00004800002010B504460020FFF7EF
:10279000EBFF00212046FFF7C3FF10BDF8B5144E34
:1027A0001821307800274843124944182078DD2842
:1027B00015D1207C002812D02079002801D00E4DA0
:1027C00000E00E4DFEF72EF86169401A69006918A5
:1027D000884204D927747268012130789047307894
:1027E000401CC0B23070202800D33770F8BD000004
:1027F0003800002070010020E093040088130000DE
:10280000F0B5064689B04809CF0608900D46FF0E80
:102810001CA0FFF73BFC002405E0315D1BA0FFF787
:1028200035FC641CE4B2AC42F7D31AA0FFF72EFCCF
:10283000194881780120FEF751F9002409E0600170
:1028400080192021FEF7CCF93220FFF79DFF641C90
:10285000E4B208988442F2D3002F0CD0E81B81190F
:102860003A466846FDF772FC20216846FEF7B8F943
:102870003220FFF789FF084881780020FEF72EF903
:1028800009B0F0BD53656E643A000000253032781F
:10289000200000000A00000054000020FEF786FF20
:1028A00000F0ACFB00F0CAFBFEF793FFFAE7000074
:1028B000F0B50B30C108C900144F0026144A0FE0D0
:1028C00003688B420BD38B4205D95C1A43184568C9
:1028D00030C3083B00E04368136002C004E0021DFF
:1028E00010680028ECD13046002803D13868002851
:1028F00001D00020F0BD064A06481060064A121AB0
:10290000D208D20044C001203860D7E790000020F0
:102910008C000020DC050020D807002010B5C4B2D0
:102920000C490DA0FFF7B2FB0CA0FFF7AFFB0CA00A
:10293000FFF7ACFB022000F035F80A484078FEF7BC
:10294000D9F9084810384268002A02D000212046F0
:10295000904710BDDC34000825733A0000000000E9
:102960000A0000002400002070B51478551CFEF702
:1029700025FF01460A480078002809D0012C08D01C
:10298000022C09D0032C03D12A46022000F00EF9B4
:1029900070BD2A460020F9E72A460120F6E700002C
:1029A0004C00002070B5064C05466078A84205D062
:1029B0006268002A02D0294606209047657070BDE3
:1029C0001400002070B515460C46FDF755FC002894
:1029D00005D0C07A2730C043C2B200200FE00949B9
:1029E00009A0FFF753FB0CA0FFF750FB0FA0FFF768
:1029F0004DFB70BD215C51402154401CC0B2A84227
:102A0000F8D370BDD335000825733A5B21212145E9
:102A100052524F525D0000006B6579206E6F74203A
:102A2000666F756E64212121000000000A0000001D
:102A300010B50446002901D0FFF7D0FD0022214641
:102A4000052000F0B3F810BDFFB585B01D785C1C03
:102A50000E9E0F46002A04D1324619460598FFF70C
:102A6000B1FF002F02D00598FFF7B8FD042D0ED05E
:102A7000052D10D0062D08D16846761E06706A46D0
:102A800001940620059900F091F809B0F0BD0022EC
:102A900003200599F7E72078694608706078887008
:102AA000A01CFEF78BFE039000A8A11D0622033098
:102AB000FDF74CFBA07969464872E07948706A4698
:102AC00004200599DFE7000010B51148C46884426E
:102AD00000D10024002C1AD0FDF7A4FEA168401AF2
:102AE0000C49884213D9E068002806D02169C860E3
:102AF000E068216901610020E0606068FFF7E6FDA1
:102B00002046FFF7E3FD04498878401E887010BD19
:102B1000B004002068A704004C000020F7B5194D50
:102B20000746A87816460A280AD3174917A0FFF7C0
:102B3000ADFA17A0FFF7AAFA1AA0FFF7A7FAFEBD91
:102B40001420FFF7B5FE0770044646703046FFF7C5
:102B5000AFFE606032460199FDF7F8FAFDF762FEBC
:102B6000A0601148C168002901D1C0600061E06027
:102B70000169CC60016921610461A878401CA870DA
:102B8000FEBD00004C000020E035000825733A002F
:102B9000736C6565702063616368652066756C6C35
:102BA000210000000A000000B0040020024B5B6816
:102BB000002B00D0184770474C000020F8B50E4697
:102BC0000446154600210420FDF7ECFD2046FDF7E4
:102BD00081FE0746002405E0FF20FDF77BFE30550F
:102BE000641CE4B2AC42F7D301210420FDF7DAFD06
:102BF0003846F8BD10B5044600210420FDF7D2FD8B
:102C00002046FDF767FEFF20FDF764FE0446012124
:102C10000420FDF7C7FD204610BDF8B50E4604465A
:102C2000154600210420FDF7BDFD2046FDF752FEAC
:102C30000746002404E0305DFDF74CFE641CE4B25E
:102C4000AC42F8D301210420FDF7ACFD3846F8BDB5
:102C500070B50D46044600210420FDF7A3FD204673
:102C6000FDF738FE04462846FDF734FE0121042016
:102C7000FDF798FD204670BD10B504090207120F3C
:102C800001209040888008614A732300FFF70EFA04
:102C900006040A0E12171B200920C0060860012036
:102CA000400414E00B480860000210E00A48086085
:102CB00000020CE0094808600120000507E0084810
:102CC0000860400203E00748086001208005886032
:102CD00010BD00000004004800080048000C004837
:102CE000001000480014004870B51C48C4688442B5
:102CF00000D10024002C2FD0FDF794FDA168184DC1
:102D0000411A2889C830814226D9A1786068FFF726
:102D100077FD6078401C6070FDF784FDA060FDF7D2
:102D200081FDFEF773FDFEF75DFD6421FDF7F8F907
:102D30002981607803280FD3E068002806D0216934
:102D4000C860E068216901610020E0606068FFF709
:102D5000BDFC2046FFF7BAFC70BD0000C404002093
:102D600054000020F8B5074615460E461420FFF71C
:102D70009FFD0446077000206070A570A060284683
:102D8000FFF796FD2A4631466060FDF7DFF90648F9
:102D9000C168002901D1C0600061E0600169CC60B8
:102DA000016921610461F8BDC404002070B588B0D8
:102DB00020216846FDF7E3F9FDF770FE002827D0D3
:102DC0006846FDF7F0FE002822D1FDF72BFD164CDA
:102DD0000025A169401A642800D9E570FDF722FD9D
:102DE000A061124B00206E46E278315C9954521C6F
:102DF000D2B2E270012A0DD00C2A0FD061790D31C8
:102E00008A420CD1D1B20948FEF764F9E5706571C8
:102E100008B070BDA52902D0E57000E06171401CCA
:102E2000C0B22028E0D3F3E754000020D8040020EB
:102E3000F8B500270E4E05230C245C43A419803CF2
:102E4000E46F002C01D15D1EEDB284420ED05B1EFA
:102E50001B061B0EF0D1002F08D10C235D437255C9
:102E6000AB1998600622581CFDF770F9F8BD0000F8
:102E70003401002010B586B0142216A16846FDF773
:102E800065F9FEF7C9FE022821D1FDF7CBFC164CEF
:102E90006168401A1549884219D9154915A0FFF7EC
:102EA000F5F815A0FFF7F2F816A0FFF7EFF8227873
:102EB00014216846FDF75CF9142269460020FFF7EB
:102EC00017F8FDF7AFFC60602078401C207006B05A
:102ED00010BD0000010203040506070809000102F5
:102EE000030405060708090030000020B80B0000A5
:102EF0007A35000825733A0073656E642064617446
:102F0000613A00000A000000034610B500200246A6
:102F100004E09C5C2018521CC0B2D2B28A42F8D3A2
:102F200010BD0000F0B50D46044693B0244925A01D
:102F3000FFF7ACF8214624A0FFF7A8F825A0FFF77B
:102F4000A5F8022C0CD0062C08D12806000E35D08E
:102F5000012803D000211120FDF724FC13B0F0BD9F
:102F600005A8FEF75FFE0F900028F7D000241DE0B3
:102F7000134914A0FFF78AF8E50005AEA819C77930
:102F8000837942790179019102A98CC1C1780091BC
:102F900083784278715D10A0FFF778F80DA0FFF7F5
:102FA00075F8705D10A90855641CE4B20F9884424E
:102FB000DED3014610A8FEF795FECFE70121CAE750
:102FC0008435000825733A006576656E74202564A3
:102FD000000000000A0000007369643A25642C2098
:102FE000736C6565703A25642C20747970653A2598
:102FF00063256325632563256325630010B50121DF
:103000001120FDF7ADFB01211120FDF7CBFB0020C6
:10301000FEF79AFF0020FFF70DF805A0FEF7E0FF8E
:103020000120FEF74FFF0448FEF7F0FD10BD000041
:10303000534C563230330000252F000810B5FFF7EF
:1030400019FF10BD10B5044600784108CA0706D024
:10305000FDF7E8FB6060A168E068884710BD49079C
:1030600003D4400840002070F5E70020C043608092
:10307000F1E7000010B50A490AA0FFF707F80AA017
:10308000FFF704F809A0FFF701F8094C2046FDF707
:1030900003FB0322120207492046FDF71BFB10BD6C
:1030A0009435000825733A00000000000A00000073
:1030B00000F400087001002070B50B4C0546A01C00
:1030C000FDF790FE2078FDF789FE0020FEF7FAFE5E
:1030D000002D08D0054C2046FDF7DEFA06220249F5
:1030E0002046FDF7F7FA70BD2400002000F000082C
:1030F000F7B586B00646154600210798FEF7D5FCC1
:103100001D4F002D04D1002239460798FEF7FAFC26
:10311000307901242403012817D0022819D0002077
:1031200001463268019000200092029005900C2028
:103130000391049069460798FEF7FAFC2146079828
:10314000FEF74AFD002D08D010E00121204689023B
:10315000E7E7032120464902E3E739460798FEF7EF
:103160009FFC012239460798FEF7CCFC0121079805
:10317000FEF79BFC09B0F0BD05010500FEB5044655
:10318000807A0125002808D1217860786A4611727A
:103190005072957202A8FDF769FDA188012260694D
:1031A000FDF717FA218901226069FDF712FAE0881C
:1031B0000090022669460E7100208871CD710320AF
:1031C00048716069FDF7CDF96088694600900E711D
:1031D0006069FDF7C6F9FEBDF0B5834F0646B878C5
:1031E00087B014460D46012802D0002809D013E00C
:1031F000300011D0022E0FD0032E0DD0042E0BD094
:1032000002E03046012E07D00300FEF74FFF070C07
:103210002C497E95BFD94700744975A0FEF736FF4B
:10322000314674A0DAE0714971A0FEF72FFFE07813
:10323000627921796B4607C3A3786278217871A0FF
:10324000FEF724FF79A0FEF721FFFDF7EBFAFEF76A
:10325000DDFAFEF7C7FA19214901FCF761FF2B4699
:10326000002273484EE0614961A0FEF70FFFA0798C
:10327000617922790495019202910390E07800909F
:10328000A378627821786BA0FEF700FF67A0FEF7B5
:10329000FDFEA27921462846FFF7CAFD07B0F0BD22
:1032A000514E207810363070607870700846FEF706
:1032B00005FB01460422B01CFCF748FFE0782179A9
:1032C0000002401886B2494949A0FEF7DFFE009689
:1032D000A378627821786748FEF7D8FE53A0FEF7FE
:1032E000D5FE00200090A178631D2A46FDF704F862
:1032F0000120FFF7E1FE0220FFF754FB00231A46EE
:1033000031465D48FEF7ACFAC8E7384938A0FEF709
:10331000BDFE5AA0FEF7BAFE44A0FEF7B7FE324843
:10332000FF2206211030FCF723FF0120FFF7C4FE27
:103330000020FFF737FBB1E72C492DA0FEF7A6FED2
:10334000A079227AE17903ADE3680FC5E07862796C
:1033500021796B4607C3A378627821784C48FEF741
:1033600095FE32A0FEF792FE2078002808D0607A01
:1033700000906178A078E31CE268FCF7BDFF8DE760
:10338000A078FCF779FFFCF7ADFF87E7E8B2FCF720
:1033900073FF002882D0154915A0FEF777FE294655
:1033A0003CA0FEF773FE21A0FEF770FEE8B2FCF72A
:1033B000F5FFB8780128A7D1E8B2FDF7E1FC6DE789
:1033C000E8B2FCF759FF00289ED0E8B2FCF7E6FF10
:1033D000064907A0FEF75AFE294638A0FEF756FE1A
:1033E00012A0FEF753FE59E714000020F73400083E
:1033F00025733A0069676E6F7265206576656E7435
:10340000202564004E45545F4556454E545F534554
:10341000415243483A206D617374657220256325DB
:103420006325632563256325630000000A0000000F
:10343000592500084E45545F4556454E545F444556
:10344000565F494E464F3A20737562446576207444
:103450007970653A256325632563256325632563B4
:103460002C20736C6565703A25642C207569643A6C
:1034700025780000703600086D2500084E45545F21
:103480004556454E545F4445565F44454C20210007
:10349000BC3600084E45545F4556454E545F444582
:1034A000564943455F484541525442454154207373
:1034B000756241646472203D202564004E45545F6E
:1034C0004556454E545F555345525F444154412043
:1034D00066726F6D205B25645D0000006E6574424E
:1034E00075696C64446F6E6500646D4576656E74D5
:1034F00048616E646C6500776D4E65746C617965CA
:10350000724576656E7448616E646C6500574D4E09
:1035100065744275696C6444656C4465766963657D
:1035200000574D4E65744275696C6441646444652E
:103530007669636500574D4E65744275696C6453D6
:10354000656172636800574D5365744D61737465AE
:1035500072536C6176654D6F646500574D536574A9
:10356000536C6565704D6F646500574D5365744DC0
:103570006F64756C655479706500736C6176655025
:103580006F6C6C00746573744576656E7448616E1B
:10359000646C650075706461746544657669636523
:1035A000496E666F546F466C61736800444D557088
:1035B0006461746548656172746265617400464C4B
:1035C0004153485F49525148616E646C657200FF17
:1035D000FFFFFF6E6574456E446563727970740019
:1035E0006E6574536C6565704465764461746153AF
:1035F000617665004E65744275696C6453746172DE
:1036000074004E65744275696C6453746F70004E3B
:103610006574536574536C6565704D6F6465004ED9
:1036200065745365744D616341646472004E6574E2
:103630006275696C64536561726368446576696339
:103640006500FFFFFFFF5048595377697463684373
:1036500068616E6E656C00504859496E69746961A5
:103660006C697A6500344310103443101000000078
:103670004E45545F4556454E545F4445565F414460
:10368000443A206D792061646472657373203D2033
:1036900025642C2072664368616E6E656C203D2047
:1036A00025642C206B6579203D2025642C206862E0
:1036B00074696D65203D2025640000004E45545F0F
:1036C0004556454E545F434F4F5244494E4154492D
:1036D0004F4E3A206275696C643D25642C206B6501
:1036E000793D25642C206E6574416464723D2564C7
:1036F0002C20747970653D2563256325632563253A
:103700006325632C207569643D2564002C3700080F
:103710000000002094000000C6200008C037000808
:1037200094000020440B0000D620000815CD5B0754
:10373000043BD8218C0A2913D204000000000000A9
:103740000000000000000000000000000000000079
:103750000000000000000000000000000000000069
:103760000000000000000000000000000100000058
:103770000000000000000000000000000000000049
:1037800000FF0000FF00FFFF00000000000000003D
:103790000000000000000000000000000000000029
:1037A0000000000000000000010203040102030405
:1037B00006070809000000000000000000000000EB
:04000005080000B53A
:00000001FF
