:020000040800F2
:10000000D0130020C9000008EF000008CD0D000843
:1000100000000000000000000000000000000000E0
:10002000000000000000000000000000F3000008D5
:100030000000000000000000F5000008F7000008C4
:10004000F900000800000000F90000087906000827
:10005000F900000869050008F9000008F900000827
:1000600000000000F9000008F9000008F90000088D
:10007000F9000008F9000008F9000008000000007D
:10008000892200080000000000000000F9000008BC
:10009000F9000008F9000008F9000008F90000085C
:1000A000F9000008F9000008F90000083D230008E5
:1000B000712300080348854600F0BAF8004800475D
:1000C00051360008D01300200C4880F308880C48F3
:1000D0000168090E0B4A914205D10B480B4901609A
:1000E0000B480C4901600C4880470C480047FEE76C
:1000F000FEE7FEE7FEE7FEE7FEE70000D013002084
:10010000040000001F000000181002400100000061
:100110000000014000000000C9210008B5000008EF
:1001200030B50B46014600202022012409E00D468F
:10013000D5409D4205D31D469540491B2546954017
:1001400040191546521E002DF1DC30BD03460B430D
:100150009B0703D009E008C9121F08C0042AFAD27D
:1001600003E00B780370401C491C521EF9D2704703
:10017000D2B201E00270401C491EFBD2704700223F
:10018000F6E710B513460A4604461946FFF7F0FF96
:10019000204610BD421C0178401C0029FBD1801A6A
:1001A000704730B504460020034600E05B1C9342D4
:1001B00003D2E05CCD5C401BF8D030BD03460A782A
:1001C0000270401C491C002AF9D118467047F0B54E
:1001D0001FB40646002082B00546402401910090DD
:1001E0001BE0019922460F46304600F043F8049A7E
:1001F000059B801A994110D310461946224600F0FB
:1002000029F8361A8F410197224601200021009FCC
:1002100000F020F838184D4100902046641E002858
:10022000DFDC019B00982946324607B0F0BD000094
:10023000064C0125064E05E0E36807CC2B430C3C39
:1002400098471034B442F7D3FFF738FF184B000833
:10025000384B000810B5202A04DB0146203A9140B3
:10026000002010BD914020239C1A0346E34019430F
:10027000904010BD10B5202A04DB0846203AD0403B
:10028000002110BD0B46D340D0402024A21A91403B
:100290000843194610BD000010B504461F2801D9B7
:1002A000002010BD1C21484308490A5CDD2A0BD000
:1002B000074908A002F050FD214607A002F04CFDBE
:1002C0000AA002F049FDEBE7401810BD90010020A4
:1002D0003D49000825733A00446576205B25645D3E
:1002E000206E6F7420666F756E6421000A00000036
:1002F000F8B5144D064601241C206043285CDD2817
:100300001AD01C20DD2760432F5445192E71E97245
:10031000EA60681D06221946FFF718FF00202861D1
:100320006861A861002E01D0074800E007486861B5
:1003300004F008F82046F8BD641CE4B2202CDBD39E
:10034000FF20F8BD90010020E09304008813000016
:1003500010B5002805D0FF221C21FFF709FF03F08C
:10036000F1FF10BD10B50721FF22C9010348FFF7B7
:10037000FFFE034800F094FA10BD00009001002039
:1003800000F4000870B5049D1F2819D81C24604390
:100390000C4C0419DD2020702571E172E260062208
:1003A0001946601DFFF7D2FE002020616061A06148
:1003B000002D01D0044800E00448606103F0C2FF52
:1003C00070BD000090010020E0930400881300003D
:1003D00010B50346084A00201C214143545CDD2C23
:1003E00003D18918C968994204D0401CC0B22028A2
:1003F000F2D3FF2010BD00009001002001494860A9
:100400007047000034000020F8B50646002004467E
:100410001C210E4A61438D182978DD2910D1297CD1
:1004200000290DD03454401CC7B2F0190622691DB2
:10043000FFF78CFEBF1DF8B229793154401CC0B2C1
:10044000641CE4B2202CE3D3F8BD0000900100202E
:10045000F8B50646002004461C210C4A61438D185D
:100460002978DD290DD13454401CC7B2F019062279
:10047000691DFFF76BFEBF1DF8B229793154401C8E
:10048000C0B2641CE4B2202CE6D3F8BD9001002079
:1004900010B50722D2010849084800F017FA0020D9
:1004A000054B02461C214143C918401C0A74C0B2C6
:1004B0008A612028F6D310BD9001002000F40008C6
:1004C00070B51D461346094CDD22227000262671A8
:1004D000E072E16006221946601DFFF737FE2661D3
:1004E000A661656103F02EFF70BD00009001002041
:1004F00010B503F00DF810BD70B50546FFF7CCFE42
:1005000004000DD0207C002806D101200A4A207466
:10051000526800212846904700F0F2FAA06170BDB1
:10052000064907A002F018FC09A002F015FC0DA076
:1005300002F012FC70BD0000340000205149000898
:1005400025733A5B2121214552524F525D00000034
:10055000646576696365206E6F7420666F756E647E
:10056000212121000A00000010B5012000F00EF842
:10057000002804D002F0DAFB012000F001F810BDE1
:10058000014948617047000000040140034A0146E8
:10059000526900200A4200D0012070470004014047
:1005A00010B5837918490268002B26D00B68934355
:1005B0000B604A6803689A434A60027952181368CC
:1005C0000468234313608A6803689A438A60CA6890
:1005D00003689A43CA604279102A05D051180A6804
:1005E000006802430A6010BD8A6803681A438A6083
:1005F000CA6800680243CA6010BD007940180168EB
:100600009143016010BD0000000401400149C86031
:100610007047000000200240F0B50B2706463F045B
:10062000384600F08DF804280FD1084C20690225C7
:1006300028432061666120694021084320613846D3
:1006400000F07EF82169A9432161F0BD002002403D
:1006500008490420CA68D20701D001207047CA683F
:10066000D20601D502207047C9684907FBD503208F
:10067000704700000020024010B5024902A002F0BD
:100680006BFB10BDB3490008257320456E74727969
:100690002121210A00000000024801698022114343
:1006A00001617047002002400449102200280868B8
:1006B00001D0104300E090430860704700200240E2
:1006C000F8B5064600200B273F0400900D4638463B
:1006D00000F036F8042815D10B4C2069012108439D
:1006E00020613580384600F02BF8042806D1B61C6E
:1006F000290C00963180384600F022F8216949081B
:1007000049002161F8BD000000200240034A116841
:100710004908490001431160704700000020024071
:1007200004480169090603D5034941600349416052
:10073000704700000020024023016745AB89EFCDE0
:1007400000B50346FFF784FF02E0FFF781FF5B1E61
:10075000012803D0002B00D1052000BD002BF4D1CF
:10076000FAE7F0B50022032501230C6893401C40F2
:100770009C422AD10C79012C01D0022C12D187681D
:1007800054002E46A640B74387604E79A640846841
:100790002643866084889C43848084888B79934038
:1007A0001C438480066853002C469C40A643066088
:1007B0000E7907689E403E430660C668A643C66041
:1007C000CC799C40C3681C43C460521C102ACBD314
:1007D000F0BD4B07DB0E9A40C90810B58900081818
:1007E000016A0F249C40A1430162016A1143016226
:1007F00010BD0246128A00200A4200D00120704734
:10080000002A01D0816170470185704710B501F061
:1008100025FA012001F038FB01F06EFB0120FFF703
:1008200043FF0120FFF772FF002001F023FB0020AF
:1008300001F032FB0521C904002001F045FB012035
:1008400001F034FB192001F0F3FA0028FAD002205D
:1008500001F048FB01F006FB0828FBD10320012131
:10086000400401F0D7F90121880301F0EBF90121DF
:10087000480401F0DBF90121022001F0D7F9012140
:10088000C80201F0DFF90121080301F0DBF90121C1
:10089000084601F0D7F90121080701F0C7F910BD9A
:1008A00070B50546FFF73CFF00243420FFF7AEFE8D
:1008B0002846FFF7B1FE042803D0641CE4B20A2CDA
:1008C000F3D3FFF7E9FE70BD704770470B4610B5D4
:1008D0000146184692B2FFF739FC10BDF0B500276B
:1008E000C3B00D4606463C46FF2A01D91004070E48
:1008F000D0B2009010E020024119FF220190013295
:1009000002A8FFF723FC0198FF228019013202A9F7
:1009100002F044FD641CE4B2BC42ECD30098002811
:1009200010D0FF22571C394602A8FFF721FC2402F1
:10093000611902A8009AFFF709FCA0193A4602A91A
:1009400002F02CFD43B0F0BD00B585B0302802D9CF
:10095000002005B000BD694603F064FB684681884D
:100960000098FFF746FFF4E710B588B00C46302832
:1009700018D802A903F056FB694688890090032025
:1009800048710020002C02D0012C02D002200871F6
:1009900004E001216A461171D17190716946029893
:1009A000FFF7DFFE08B010BD7047704710B586B086
:1009B0000C46302808D8694603F034FB6846818825
:1009C00022460098FFF71CFF06B010BD0EB5FFF7DA
:1009D0001DFF00F047F9FFF7E7FF00F091F900F085
:1009E0009FF8FFF771FF01211120FFF7BDFF0121E3
:1009F0001120FFF7DBFFE120400200900020694654
:100A00000871029000F068F90EBD0000034900284B
:100A1000087001D062B6704772B670475800002067
:100A200010B5FFF7C2FF00F0CBF8FFF74EFF00F064
:100A3000A3F900F0E1F810BD3EB500210846FFF72C
:100A400093FF01210820FFF78FFF0021084601F0E6
:100A5000B1FA01240025694600940D7108204871FF
:100A60008C716846FFF79CFD69468C720520087200
:100A70004D7202A800F0F8FB01210820FFF796FF55
:100A80003EBD10B50020FFF75FFF002801D0002019
:100A900010BD012010BD10B50121084601F09CF8E1
:100AA00010BD10B5FFF7B2FE10BD000010B50D4C23
:100AB000E078002814D10C490CA002F04DF90CA0EC
:100AC00002F04AF90BA002F047F90120E070BFF3F1
:100AD0004F8F0A490848C860BFF34F8F00BFFDE73A
:100AE00010BD000058000020A949000825733A00F5
:100AF000000000000A0000000400FA0500ED00E01C
:100B000001484068704700005800002010B50028D8
:100B100001D0002100E001210820FFF747FF10BDB0
:100B200030B587B020200590032069464876022022
:100B3000087600248C760120C8760925ED0605A9E3
:100B40002846FFF70EFE8021059105A92846FFF7EC
:100B500008FE4021059105A92846FFF702FE002264
:100B600020212846FFF735FE002240212846FFF7C6
:100B700030FE002280212846FFF72BFE6946FF2029
:100B80000C8005304880072000028880CC8001203E
:100B90000C814002488110208881CC810720074CBD
:100BA0000882204601F0CEF9A114204601F0F6F9A2
:100BB0000121204601F0B6F907B030BD00300140F8
:100BC0007047000070B50B4C05460221204601F02D
:100BD000B2F90028F9D02946204601F0E9F90121AF
:100BE000204601F0A8F90028F9D0204601F0D4F9F8
:100BF00070BD00000030014010B5144CA078617841
:100C0000884214D26068A168401A64281CD9112057
:100C1000FFF79AFE002808D000211120FFF7C6FE3A
:100C20006068A060A078401C0DE00121F5E701217B
:100C30001120FFF7BBFE6068A168401A7D21090101
:100C4000884201D90020A07010BD0000580000208B
:100C50004100034841700021817041688160704704
:100C6000580000201FB51020694608730220487301
:100C70000120887303A800F0F7FA0D4801902F2097
:100C800069460880002008810A4C4880204601F00F
:100C90001BFB0121204601F001FB012211462046E9
:100CA00001F009FB0121204601F0FBFA1FBD000005
:100CB000E70300000004004002484168491C41600D
:100CC000704700005800002010B5012802D10846E6
:100CD00001F060FA10BD000010B50B46002807D0E7
:100CE000012804D104490022184603F069FB10BD15
:100CF00000220249F8E700000044004000380140AB
:100D000070B588B0E126092576020024ED060120A1
:100D10008002694603960595069448800A208880DB
:100D200001204002C880092008811B2008704C70F7
:100D30000F4804908C726846079403F087FB0820E4
:100D40006946039605950694488003208880042010
:100D5000C880022008811C200870012048700548C6
:100D600004908C726846079403F070FB08B070BD65
:100D7000003801400044004070470000F8B51746B5
:100D80000D46002803D0012803D00020F8BD0C4EEA
:100D900000E00C4E00240BE0295D304601F0B3FB6F
:100DA0008021304601F00DFB0028F9D0641CA4B26C
:100DB000BC42F1D30449304601F0F4FA3846F8BD9C
:100DC00000380140004400400601060010B5064905
:100DD00006A001F0C1FF06A001F0BEFF05A001F0D2
:100DE000BBFFFFF763FE10BD9749000825733A006B
:100DF000000000000A000000704710B502F01CFD62
:100E000010BD000070B5154D134A297800245054C8
:100E1000491CC9B2297001290FD0022911D02879A3
:100E2000831C99420CD1401EC1B21646D01C02F060
:100E3000F9F9B17888420AD006E0AA2800D02C70CF
:100E400070BD28717E28FBD92C702C7170BD304686
:100E500002F03AFCF8E70000240600204C000020D5
:100E600001484078704700003C0000200EB509485A
:100E7000C060006101F00CFC074801F0D9FB4B2079
:100E8000C00100900020694608710120FFF724FF8F
:100E90000EBD0000100600207939000838B5224C3C
:100EA0006078002813D1A068002807D0FFF728FE3B
:100EB000A168401A7D21C900884208D900231A463A
:100EC0001946012002F062FEFFF71AFEA06002F050
:100ED000A3FE01F057FE6078002823D0E0680028C8
:100EE0000AD0FFF70DFEE168401A1049884203D886
:100EF00003F01EF8002815D001F0A0FB450001F01A
:100F0000FFFB28186946087001236A460021062065
:100F100002F03CFEE068002801D103F009F8FFF779
:100F2000EFFDE06038BD00003C00002088130000A9
:100F3000F8B50446FFF7E4FD214E00277168401A1A
:100F4000642800D93770FFF7DBFD70601D493078E9
:100F50000C54401CC1B2317001290ED0032910D0AD
:100F6000B078001D81420BD1164DA978281D02F0E2
:100F700067F9E978884206D001E0FC2C00D0377090
:100F8000F8BDB470F8BD10A001F0E6FE002406E044
:100F90000C48015D10A001F0DFFE641CE4B2307863
:100FA0008442F5D30EA001F0D7FE6878AB78C10972
:100FB0004006C901400E2A1D02F060FDDFE7000077
:100FC0003C000020100500204D50726F746F20729D
:100FD0006563763A0000000025303278200000007A
:100FE0000A0000000449C868884203D0002801D0E4
:100FF0000020704701207047100600201CB515A086
:1010000003C801910090154915A001F0A5FE15A097
:1010100001F0A2FE14A001F09FFE052269463020D7
:1010200002F0D1FFFF2205216846FFF7A1F8052253
:101030006946102002F098FF002069460A5CA52A44
:1010400001D000201CBD401CC0B20528F6D30120F1
:101050001CBD0000A5A5A5A5A5000000624A0008CA
:1010600025733A00000000000A00000010B50120BE
:10107000FFF76AFC002801D0002010BD012010BD40
:1010800010B501211020FFF76FFC01210420FFF7AC
:101090006BFC00210120FFF767FC00211020FFF707
:1010A00085FC01210420FFF781FC10BD70B50D46C1
:1010B000044600F0C8F8002C32D000211020FFF7C1
:1010C00075FC04222A49302002F07DFF28490422C1
:1010D000091D2A2002F077FF0221232002F08EFF53
:1010E0000021212002F08AFF0121222002F086FF48
:1010F0000021242002F082FF2946252002F07EFFF5
:101100002721262002F07AFF0A21202002F076FF14
:1011100001211020FFF74AFC962002F0EFF970BD84
:1011200000211020FFF742FC11490422091D2A204A
:1011300002F049FF0221232002F060FF002121205C
:1011400002F05CFF0121222002F058FF0021242040
:1011500002F054FF2946252002F050FF20213120C3
:1011600002F04CFF2721262002F048FF0B21CCE79C
:101170005A4A0008704770B50546072002F010FF74
:1011800004460146272002F039FF60060ED52022D2
:101190002946612002F0E8FEFF21E22002F02EFF46
:1011A000FF21E12002F02AFF002070BD012070BD68
:1011B00010B5002802D000F046F810BD0021102024
:1011C000FFF7F4FB0B21202002F018FF0121102073
:1011D000FFF7ECFB022002F087F910BD70B50C465A
:1011E000054600211020FFF7E1FB0020FFF70EFC71
:1011F00022462946A02002F0E6FE01211020FFF73A
:10120000D5FB0120FFF7A0FB0028FAD1072002F050
:10121000C7FE04460146272002F0F0FEFF21E2202F
:1012200002F0ECFE0120FFF7F1FBE00605D5FF21FF
:10123000E12002F0E3FE102070BDA00601D52020C1
:1012400070BDFF2070BD10B500211020FFF7AEFB70
:101250000D21202002F0D2FE01211020FFF7A6FB75
:101260001E2002F04BF910BD30B5827801240178C0
:10127000002A15D08B080E4A9B009A18136889071C
:10128000C90EFF258D40AB434578AD072D0E8D402F
:101290001D4315600078C006C00E8440054804E078
:1012A000C806C00E844003488030046030BD000092
:1012B00000E400E000E100E010B5084908A001F0FA
:1012C0004BFD08A001F048FD07A001F045FD0749CE
:1012D000012008707D2000F00BFC10BDE9490008DA
:1012E00025733A00000000000A000000680000209A
:1012F00010B50446084909A001F02EFD214608A0BA
:1013000001F02AFD09A001F027FD094B00221A7007
:10131000204600F0EDFB10BDF749000825733A00A8
:10132000776F726B2063683A256400000A00000042
:1013300068000020F0B589B00E46074605206946D2
:1013400008711078487190788871144601ADD068A2
:1013500000F02EFF0146E81C0422FEF7F7FEE81D10
:101360000622E11CFEF7F2FE607A69464874607856
:1013700088740F22144601A9384602F0E1FC002EC1
:1013800006D0224601A9384602F08AFD09B0F0BD18
:101390000020009003482346417801AA384600F017
:1013A000D3F9F3E76800002010B500F061F910BD33
:1013B00001494860704700006800002010B50548EA
:1013C000C060006100F092F9034A0449044800F04B
:1013D000FDF910BDA4060020AD3D0008C53C000885
:1013E000C53D000810B500F00FFB02F02FFD10BD49
:1013F00010B500F011FB10BD10B50249497800F09E
:1014000043F910BD6800002010B500F009FB10BDC5
:1014100038B5044609490AA001F09EFCE078009026
:10142000A3786278217807A001F096FC0AA001F069
:1014300093FC204600F000FB38BD0000144A000871
:1014400025733A00253032783A253032783A253003
:1014500032783A25303278000A00000010B500F0EA
:101460000DFB10BD10B500F01FFB10BD10B50446FC
:10147000064907A001F070FC214606A001F06CFCB3
:1014800005A001F069FC0548447010BD044A00083D
:1014900025733A00256400000A000000680000205F
:1014A00070B5C2B00E460546062069461C46087156
:1014B000134601A8224619460130FEF747FE641C78
:1014C000FF2D04D0E2B201A9284602F039FC002E1B
:1014D00006D0E2B201A9284602F0E2FC42B070BD9B
:1014E000002000900348E3B2417801AA284600F0AA
:1014F0002BF9F3E7680000203EB5044603206A4656
:10150000107000A80B220130FEF720FE204600F0EC
:101510004FFE00230C22694600F062F83EBD000039
:101520007CB505460422684602710C46012201A9D9
:10153000284602F005FC002C05D0012201A928460E
:1015400002F0AEFC7CBD002004490090012301AAFA
:101550004978284600F0F8F87CBD000068000020BB
:101560007CB50C4605460E490EA001F0F5FB0EA019
:1015700001F0F2FB0DA001F0EFFB012168460170C4
:1015800006222946401CFEF7E1FD054800230722FC
:1015900069465E3800F024F8054884607CBD000090
:1015A000224A000825733A00000000000A000000EB
:1015B000680000201CB50C4602216A4611700146E5
:1015C00000A806220130FEF7C1FD6A46D47101234E
:1015D00008226946014800F003F81CBDC449000810
:1015E000FFB5C1B06C46A520207001206070154683
:1015F000A01C1E46074604224199FEF7A7FD0422BF
:101600001949381DFEF7A2FD17496A460C390878BA
:101610009072401C0870D57220462A460C304299C0
:10162000FEF794FD28460C30C4B22146684602F00D
:1016300057FE694608550C35ECB2641C002E0ED1DD
:1016400004220A494198FEF7ACFD002807D06846FD
:10165000E2B2807A694602F05BFD45B0F0BDE1B2CE
:10166000684601F0A5FFF8E780000020374A00082F
:1016700010B5002803D004220249FEF767FD014897
:1016800010BD00008000002010B590B00446A522D7
:1016900068460270002900D0802103221143417066
:1016A00004220E49801CFEF751FD0C496A469471D4
:1016B00020394878D07108789072401C087000205A
:1016C000D0720C21684602F00BFE6A4610730D21A1
:1016D000684601F06DFF10B010BD000094000020BE
:1016E00001480079704700007400002010B50B48D5
:1016F000C0600061FFF7C4FCFFF780FC00280CD13C
:10170000074908A001F028FB07A001F025FB0CA069
:1017100001F022FB0B490120087110BDB806002022
:101720004C4A000825733A00504859206465766990
:101730006365206E6F7420666F756E6421212100D1
:101740000A00000074000020FFB5C1B006466D46D7
:10175000A5204A9F1C462A462870002901D08020D7
:1017600000E00020507004221749A81CFEF7EEFC90
:1017700015496A46967120394878D0710878907278
:10178000401C0870D472284622460C304399FEF75C
:10179000DDFC20460C30C5B22946684602F0A0FDAB
:1017A000694648550C34E0B2401C002F07D1FF2E8B
:1017B00005D0C2B2887A02F0ABFC45B0F0BDC1B230
:1017C000684601F0F5FEF8E794000020014B07C3DE
:1017D0007047000084000020F3B5044600208DB05F
:1017E000064609900890607847067F0E012F12D0B8
:1017F000A61C04226C493046FEF7D3FC00281AD1FF
:101800006949307920394978884221D1707900902E
:10181000A07A019020E06449A01C042214390990A8
:10182000FEF7BFFC002808D0042260490998FEF7A3
:10183000B8FC00280ED00FB0F0BD00200090A07AB8
:101840000999019004225848091DFEF77FFC03E026
:10185000FF28F0D10120089055A001F07DFA002565
:1018600005E0615D55A001F077FA6D1CEDB20E98B0
:101870008542F6D353A001F06FFA089800282BD1C7
:10188000022F3DD0032F2BD0009D01980A9000A875
:1018900002300B904CA00A9901F05EFAA52069462F
:1018A00008700220487004223F490B98FEF74EFC56
:1018B0003D4869468D7120384078C8710A98887211
:1018C0000020C8720C21684602F00AFD69460873C0
:1018D0000D21684601F06CFE012F11D0022F0FD0B0
:1018E0003148A27A203801898A4207D17279437936
:1018F0009A4203D137A001F02FFA9CE77179417128
:101900002948A17A20380181002F0ED0012F1AD04A
:10191000022F23D0032F8ED18269002A8BD06078CA
:10192000C109C9017079904785E70569002D82D00A
:10193000E07A009060782346C109C90170790C33C0
:10194000089AA84777E74569002DD6D0224609981E
:101950000C32E37A001D0899A8476CE72449C8684F
:10196000002801D1C9600961CD6819E02A78A37AFD
:101970009A4214D1D9B21FA001F0EEF9E86800280C
:1019800006D02969C860E868296901610020E8601B
:10199000686801F047FD284601F044FD4BE7054625
:1019A000E8688D42E2D146E794000020374A0008FB
:1019B0004E657420526563763A0000002530327817
:1019C000200000000A00000061636B207069643A27
:1019D00025640A00726570656174206D65737361BA
:1019E00067652C2069676E6F72652025640A0000A8
:1019F000B806002072656376207069643A25642019
:101A000061636B0A0000000010B5FFF7B3FB02F042
:101A100041FB02F0A1FB10BD10B5FFF7C9FB10BDE3
:101A20000449C868884203D0002801D000207047CC
:101A300001207047B806002038B50446C0780090F1
:101A4000A3786278217804A001F086F90422214667
:101A50000948FEF77BFB38BD536574204D61633A3E
:101A6000253032783A253032783A253032783A25A6
:101A70003032780A000000008000002010B50446D3
:101A8000014603A001F068F90648447010BD00004B
:101A9000536574204E657420416464723A25640A6B
:101AA000000000007400002038B50446C0780090A3
:101AB000A3786278217804A001F04EF9042221462F
:101AC0000A48FEF743FB38BD5365742073656741D0
:101AD0006464723A253032783A253032783A2530CB
:101AE00032783A253032780A000000009400002055
:101AF00010B504460848214684700020FFF7D6FA46
:101B0000064907A001F028F9214606A001F024F9B2
:101B100007A001F021F910BD740000203B4A000825
:101B200025733A006368616E6E656C3A2564000047
:101B30000A00000010B5FEF77FFF10BD10B5FEF7DC
:101B4000A0FF00280DD000F079FD012809D000F099
:101B500063FA002805D000F041FA002801D000F017
:101B600005F810BD10B5FEF7D1FF10BD10B509493D
:101B700009A001F0F1F809A001F0EEF808A001F0C9
:101B8000EBF80120FEF7C2FF0120FFF731FCFEF762
:101B900082FF10BD6349000825733A000000000071
:101BA0000A00000010B5FEF77CFF0020FFF720FCC4
:101BB000054906A001F0D0F805A001F0CDF805A078
:101BC00001F0CAF810BD00006B49000825733A0007
:101BD000000000000A0000000C4B1A6892089200F6
:101BE00002431A600A48036904221343036101296E
:101BF00006D0022906D00169022211430161704713
:101C000030BF00E020BF01699143F7E7007000405A
:101C100000ED00E0044A0029516901D0014300E0D1
:101C2000814351617047000000100240044A0029BE
:101C3000D16901D0014300E08143D16170470000C8
:101C400000100240044A0029916901D0014300E0DC
:101C50008143916170470000001002401248016802
:101C60000122114301604168104A1140416001683E
:101C70000F4A114001600168012292049143016002
:101C800041683F22120491434160C16A0909090178
:101C9000C162016B074A11400163416B4908490069
:101CA0004163002181607047001002400CB8FFF8CA
:101CB000FFFFF6FEACFEF0FFF8B5564E0446706826
:101CC00000210C22544D104005D0042803D00828D0
:101CD00003D00C281AD025601AE0716870680322BE
:101CE0008902D2030F0F1040BF1C00280AD0F06AEF
:101CF0000107090F2846491CFEF712FA78430146EE
:101D0000216005E0454839464143F9E744482060F1
:101D10007068444F0006000F3B5C20680246DA40C2
:101D2000626073685B055B0FFB5CDA40A260336B3B
:101D3000DB0501D43C4B05E073685B0401D4530818
:101D400000E09308E360336B5F06384B03D4374FF2
:101D50001237276100E02361376BFF0601D465610C
:101D600000E06061376BBF070ED0376BBF07BF0F56
:101D7000012F0BD0376BBF07BF0F022F08D0376B77
:101D8000FF43BF0706D006E0A26104E0A06102E0C5
:101D9000A36100E0A561376BBF03BF0F0FD0376BA6
:101DA000BF03BF0F012F0CD0376BBF03BF0F022F34
:101DB00009D0376BBF03BF0F032F06D006E0E261E7
:101DC00004E0E06102E0E36100E0E561376B3F03BE
:101DD000BF0F0FD0326B1203920F012A0CD0306B61
:101DE0000003800F022809D0306B0003800F032806
:101DF00006D006E0226204E0206202E0236200E0F6
:101E00002562306B000602D405486062F8BD61624D
:101E1000F8BD00000010024000127A0000093D00E9
:101E2000006CDC0298000020809FD500008000003C
:101E3000034600200A4A59090CD001290CD0022976
:101E40000CD0516BDA06D20E012393400B4200D026
:101E5000012070471168F5E7116AF3E7516AF1E76D
:101E600000100240024840680C2108407047000002
:101E700000100240034A5168F02399430143516026
:101E80007047000000100240024900228A708870EA
:101E90007047000000100240034A516807231B02EC
:101EA00099430143516070470010024001220549E7
:101EB00012060028086801D0104300E09043086033
:101EC000704700000010024010B5054A53687B249B
:101ED000E403A3435360536808430343536010BDB6
:101EE00000100240034A516889088900014351608B
:101EF000704700000010024018B50020052424039C
:101F000000901120FFF794FF0099491C0091A14215
:101F100001D00028F5D01120FFF78AFF002800D05B
:101F2000012018BD40220029018801D0114300E0A2
:101F30009143018070470246128900200A4200D076
:101F40000120704730B50388C122920113400A88EE
:101F5000CC890D892243CC882C4322434C892243CF
:101F60008C8922431A4302808288094B1A408B884D
:101F7000134383800A8A02820288042349889A4391
:101F800011430180818B034A1140818330BD0000E1
:101F9000FFF00000FFF70000007B70478288034BD2
:101FA0001A40828082880A4382807047FFEF0000D7
:101FB000017370478A0710B5120F0F2393408C08E6
:101FC0000549A40061188C689C438C608B68904024
:101FD00003438B6010BD00000000014010B5FFF707
:101FE00013FA002805D0FEF7FDFF002801D00120DC
:101FF00010BD002010BD000010B5044601460422AB
:102000000248FEF763FC204610BD000000F80008FF
:10201000004870470000002010B5FEF721FF10BDFA
:1020200010B5FEF7D3FC00F06DF8FEF71FFFFEF7CA
:10203000E3FE10BD024600200146535C0002491C2D
:10204000C018C9B20429F8D3704710B5FEF726FFAF
:10205000FEF7D3FEFEF7E4FC00F056F810BD0000DA
:1020600008494868C202424088684860C868886079
:102070000B69CB60D80C58405040120A50400861A0
:10208000704700000000002010B5064C6060FFF7AC
:10209000E7FFA060FFF7E4FFE060FFF7E1FF2061EA
:1020A00010BD00000000002038B504460C490DA00A
:1020B00000F052FEE0780090A378627821780AA0C0
:1020C00000F04AFE0DA000F047FE0D4D2846FEF739
:1020D000E7FB042221462846FEF700FC38BD00003D
:1020E0000C48000825733A00253032783A25303202
:1020F000783A253032783A25303278000A000000EC
:1021000000F800087047000070B50A4E0024250151
:10211000705DC0070AD0FEF7F3FCA9194A68801A5F
:102120004A88904202D9084602F0F4F8641C0A2C4E
:10213000EDDB70BDB4000020F8B51546064600245E
:10214000134A20460701D75DFF0718D0401C0A2814
:10215000F8DB002C1AD0A660E3606180FEF7D0FCAB
:10216000606020786900C007C00F084320704008F5
:10217000800702D5204602F0CDF82046F8BD0001C8
:1021800084182078012210432070E2E70020F8BD77
:10219000B400002010B50446FEF762FE002802D10C
:1021A0002046FEF72FFE2046FEF7C2FE10BD0000BF
:1021B0000449020E0A70020C4A70020A8A70C87042
:1021C000084670471400002013480168012211439B
:1021D00001604168114A114041600168104A114094
:1021E00001600168012292049143016041683F222D
:1021F000120491434160C16A09090901C162016B7E
:10220000FF22143291430163416B49084900416345
:102210000021816070470000001002400CB8FF08E8
:10222000FFFFF6FE3EB50A4801902F206946088060
:1022300000200881074C4880204600F045F8012125
:10224000204600F02BF80121204600F02AF83EBD80
:10225000E7030000002C01403EB52F200190002034
:10226000694608800881074C4880204600F02CF819
:102270000121204600F012F80121204600F011F85B
:102280003EBD0000002C014010B50121024800F0C5
:1022900005F8FEF711FD10BD00040040C94301829E
:1022A00070470029018802D00122114301E049084A
:1022B000490001807047002A828901D00A4300E06A
:1022C0008A4382817047000010B50288144B9842FF
:1022D00006D00124A407A04202D0124CA04203D190
:1022E0007024A2434C8822430F4CA04203D00F4CD1
:1022F00022400C89224302804A68C2620A88028511
:10230000984208D00A4A904205D00A4A904202D028
:10231000094A904201D1897A01860121818210BD4A
:10232000002C01400004004000100040FFFC0000B1
:1023300000400140004401400048014070B50B4D91
:102340000949284600F044F800280CD0284600F03F
:10235000CEF8044601220821284600F0CCF8E1B26C
:102360000020FEF7B1FC70BD0501050000380140FA
:1023700070B50B4D0949284600F02AF800280CD00A
:10238000284600F0B4F8044601220821284600F04F
:10239000B2F8E1B20120FEF797FC70BD050105001F
:1023A00000440040090C01228A4002627047002963
:1023B000016802D00122114301E04908490001608F
:1023C00070470246D26900200A4200D001207047BF
:1023D00030B50A04130E01252A4600248A40012B39
:1023E0000ED0022B0ED08368090C1340C0698D40BB
:1023F0002840002B02D0002800D00124204630BD08
:102400000368F1E74368EFE710B50B041C0E0123E6
:102410008B40022C02D0032C02D002E0001D00E011
:1024200008300168002A01D0194300E09943016097
:1024300010BD000030B5044600688BB00D46400862
:10244000400020606068032109038843A9680143B4
:10245000616020681C49EA680840696811432A697C
:10246000024311432160A06803210902884369697E
:102470000143A1606846FFF71FFC1448844201D164
:1024800006980AE01248844201D1079805E01148F5
:10249000844201D1089800E0029821680904296863
:1024A00000D54000FDF73CFE2A6852088A4200D859
:1024B000401C2168090404D50107074A490F104050
:1024C0000843A0810BB030BDF3E9FFFF00380140A5
:1024D0000044004000480040F0FF000082680123F3
:1024E0001B039A43826082680A4382607047808C33
:1024F000C005C00D7047002A028B01D00A4300E0DE
:102500008A4302837047C905C90D018570470000E1
:10251000F7B50746304800268078F64384B0012896
:1025200005D02E492EA000F017FC2EA04DE00598F6
:10253000FDF7B2FE05460698FDF7AEFE0446002DF7
:102540003ED0002C3CD0FEF7DBFA00F095FF694648
:102550000F70064648700598887028794872E868B8
:10256000039000A80622691D0330FDF7EFFD2179D5
:102570006A460698FEF7DEFE69460F704E700698B2
:10258000887020794872E068039000A80622611DD7
:102590000330FDF7DBFD29796A460598FEF7CAFE90
:1025A0000E490FA000F0D8FB394613A0069B059AF0
:1025B00000F0D2FB18A000F0CFFB002007B0F0BD68
:1025C000064907A000F0C8FB14A000F0C5FB12A04C
:1025D00000F0C2FB3046F1E718000020CD480008AB
:1025E00025733A004E6F74206D61737465722064B8
:1025F00065766963652100004275696C643A2564FB
:102600002C204465763A2564203C2D2D3E204465DF
:10261000763A2564000000000A00000063616E271E
:10262000742066696E6420646576696365000000E5
:102630000149C86070470000180000200148407838
:102640007047000018000020F1B500252C462046F8
:102650000C2148430D4A06468118886800280ED090
:10266000009BE0001C54009A491C8718781C062225
:10267000FDF76CFD05486D1C805DF871EDB2641CC2
:10268000E4B2052CE3D3E806000EF8BD54010020A7
:1026900008B516A000680090FFF74CFAFEF78EFE12
:1026A0001348FEF785FE6846FFF7A6FCFEF7B0FE6E
:1026B000FDF7EEFE0F48FDF7A1FE0320FEF7C8FA76
:1026C000FF2206210C48FDF753FD06220A490B485C
:1026D000FEF7FCF808480078FF2805D0022001F03A
:1026E00013FB002001F050FE08BD0000220203553C
:1026F000A9440008AD3200082800002000F00008BE
:1027000003488178012901D0C078704701207047C3
:1027100018000020F3B587B00020049005905548BC
:102720000F46407801280AD0052F0ED8002F0CD074
:10273000012001F0E9FAFEF7BFFD00256CE04E49EB
:102740004EA000F009FB51A081E04B494BA000F0E6
:1027500003FB394654A089E00798405D05287ED2E6
:102760000C21484356494418A068FDF731FE06463F
:10277000FF280CD0FDF790FDC07A069020780090DD
:10278000631CA26830460699FDF7FCFD0EE0FEF7DB
:10279000B7F900F071FEC0B206902078631CA26801
:1027A0000699FDF7A5FD0646FF284BD06846067141
:1027B000069981712F480622103041786846417190
:1027C0002C4909301631FDF7C1FC04A846554B20B1
:1027D0007E1BC0004643FFF743FC7D21C900FDF787
:1027E0009FFC881986B2310A6846C1710672224977
:1027F00034A000F0B1FA009668468379027932A0DD
:10280000A16800F0A9FA3CA000F0A6FA01A9A0680E
:10281000FEF772FE6D1CEDB2BD429DD31548C26835
:10282000002A02D004A9032090474B20C00039465B
:102830004143042300223148FFF77EFC002009B009
:10284000F0BD0CE00C490DA000F086FA2CA000F0C1
:1028500083FA29A000F080FA0020C043EFE7064980
:1028600006A000F079FA0798415D2AA000F074FAFA
:10287000EFE7000018000020A848000825733A5B25
:102880002121214552524F525D0000007761697449
:102890002C20616C7265616479206275696C646971
:1028A0006E67202E2E2E00006E756D5B25645D20F8
:1028B0006F7574206F662072616E672100000000E2
:1028C0005401002025733A004164642064657669F0
:1028D0006365205549443A25782C20616464723A36
:1028E00025642C206B65793A25642C206862546934
:1028F0006D653A25640000000A000000793C00087C
:10290000646576696365206C6973742066756C6CA8
:102910002121210069645B25645D206F7574206F3F
:10292000662072616E672100F3B5054681B000270D
:102930001A491BA000F010FA1AA000F00DFA1AA014
:1029400000F00AFA0298202801D9781EFEBD002462
:102950001FE0285DFDF7A0FC06000BD0295D13A049
:1029600000F0FAF93179285DFEF7DAFD3046FDF71F
:10297000EFFC0CE0094910A000F0EEF9295D12A06F
:1029800000F0EAF908A000F0E7F90127FF43641C12
:10299000E4B202988442DCD33846FEBD9448000875
:1029A00025733A00000000000A00000044656C2016
:1029B0006465763A25640A0025733A5B2121214536
:1029C00052524F525D0000006465766963652025B0
:1029D00064206E6F7420666F756E642100000000C5
:1029E00010B5224922A000F0B7F922A000F0B4F9F6
:1029F00021A000F0B1F9214900244A78E443012ADA
:102A000003D0887801280CD009E018491CA000F0F8
:102A1000A3F91FA000F0A0F917A000F09DF920462F
:102A200010BD012001F070F9144C10346078FF28BB
:102A300008D1FEF765F800F01FFD1E21FDF770FBC1
:102A40005A3161703C211948FDF799FBFEF734FCBF
:102A50000A4817491630FEF783FD00237D211A46E8
:102A6000C9001448FFF768FB002010BDBC480008EF
:102A700025733A00000000000A0000001800002042
:102A800025733A5B2121214552524F525D000000CF
:102A9000776169742C20616C726561647920696E5C
:102AA00020736561726368202E2E2E005401002071
:102AB000914700081542000810B5002805D00120F4
:102AC00001F022F9FEF7F8FB10BD02484078FEF74E
:102AD0000FFC10BD2800002010B50C490CA000F020
:102AE0003BF90CA000F038F90BA000F035F9FDF728
:102AF00039FC0A48FDF7D4FE002001F045FC0848E7
:102B00008078002801D101F0FFF810BD16490008B7
:102B100025733A00000000000A00000000F00008E1
:102B20001800002070B50E46044615460E490FA049
:102B300000F012F92A4621460DA000F00DF910A070
:102B400000F00AF9FF2C0BD02046FDF7A5FB00286A
:102B500005D001792B4632462046FEF7A1FC70BD18
:102B60002B4632460021F7E77048000825733A00EB
:102B7000746F3A25642C206C656E3A256400000061
:102B80000A00000010B5FEF72DFC01F079FBFDF7FF
:102B9000AFFC03480078002801D0FEF7CFFF10BD3E
:102BA0001800002070B50D4604460A490AA000F03E
:102BB000D3F8214609A000F0CFF80AA000F0CCF825
:102BC000002C284602D0FDF743FC70BDFDF71CFC2D
:102BD00070BD00008248000825733A007479706562
:102BE0003D2564000A00000070B5064600251C491A
:102BF0001CA000F0B1F831461BA000F0ADF81EA0FB
:102C000000F0AAF81D4900200C461034002E1CD0FC
:102C100001228A702178002915D02070FDF770FFFD
:102C200005460020FEF7C0FBC0782818FFF72CFAF5
:102C3000FFF716FA1E21FDF773FA5A316170A01CD6
:102C4000FFF7DAF90125022004E088702078FF28D8
:102C5000F9D1002001F058F8284601F095FB70BD2D
:102C6000E248000825733A0069734D617374657218
:102C7000203D2025640000000A000000180000200C
:102C80003EB504460B490CA000F066F8E078627986
:102C900021796B4607C3A3786278217807A000F0FA
:102CA0005BF80AA000F058F8062221460848FDF714
:102CB0004DFA3EBD0649000825733A002563256399
:102CC0002563256325632563000000000A000000DA
:102CD0002E00002010B504460B490CA000F03CF873
:102CE00021460BA000F038F80CA000F035F80C4895
:102CF000002C047001D00B4A00E00B4A8260204691
:102D0000FEF7B4FB10BD0000F748000825733A0039
:102D1000736C656570203D20256400000A0000008A
:102D200018000020E09304008813000010B5094C3F
:102D3000207800280DD0FEF735FF0120FDF788FF31
:102D40006078022802D10020FEF756FB0020FEF733
:102D500009FF10BD180000200FB410B503A9044BE3
:102D6000044A029800F024F810BC08BC04B01847CC
:102D700013340008A800002030B47446641E25787F
:102D8000641CAB4200D21D46635D5B00E31830BC9F
:102D9000184702E008C8121F08C1002AFAD170477C
:102DA0007047002001E001C1121F002AFBD17047CB
:102DB000FFB591B00F460546002606E025280AD04B
:102DC000149A139990476D1C761C28780028F5D129
:102DD000304615B0F0BD002400940121F34A02945E
:102DE00000E004436D1C2B780846203B98401042BD
:102DF000F7D128782A280ED0022128780246303AC6
:102E0000092A15D8009A0A235A43303A80180C43ED
:102E10006D1C0090F1E701CF0090002805DA012039
:102E200040030443009840420090022004436D1C7C
:102E300028782E2815D10420044368786D1C2A2890
:102E40000AD101CF6D1C02900BE002990A22514376
:102E5000303940186D1C0290287801463039092914
:102E6000F3D928786C2810D006DC4C281AD06828B2
:102E70000ED06A2817D104E0742813D07A2812D112
:102E800010E00120400504430CE00121090501E0A8
:102E9000032109050C436978814203D10120000513
:102EA00024186D1C6D1C287803906E281ED00CDC35
:102EB000632831D004DC00288AD0582811D1B2E030
:102EC00064287BD069280CD178E073282DD004DCED
:102ED0006F2870D0702804D1A7E075286CD07828AE
:102EE0006BD0149A13999047761C62E06002400FF1
:102EF000022807D003280AD0042838680AD00660C0
:102F00003F1D56E03868F11706604160F8E7386801
:102F10000680F5E70670F3E7387869460874002004
:102F2000487404A80390012003E03868039000204F
:102F3000C0433F1D61070FD5002101E00199491CE5
:102F4000029A0191914213DA8142F7DB019A0399C7
:102F5000895C0029F2D10BE0002101E00199491CB4
:102F600001918142FADB019A0399895C0029F5D12C
:102F700001990098139A401A00902146149B00F082
:102F80003BF901998019461807E0039803990078E6
:102F9000491C0391149A139990470198401E01907F
:102FA000401CF2D12146149B139A009800F014F9AA
:102FB00086196D1C09E741E033E034E00A20002166
:102FC000049005916002410F022905D001CFC2177C
:102FD0009446032905D007E0FF1DFF08FF0003CF3B
:102FE00006E000B2C2179446042902D140B2C117CC
:102FF0008C4600226146944506DA0A46002140428A
:1030000091418C462D2102E0210504D52B216A46F1
:103010001176012103E0E10701D02021F7E70191BA
:1030200054E00A200BE0102009E010200490002159
:103030000420044308200591029003E008200021A9
:10304000059104906002410F022905D001CF0022B2
:103050009446032906D006E0FF1DFF08FF0003CFBA
:103060008C4603E080B2042900D1C0B20021019156
:1030700021072BD50399702906D0049A1021059BAE
:103080004A401A4305D00EE040216A4611760121DC
:1030900008E06146014306D030216A461176039963
:1030A000517602210191049A0821059B4A401A4356
:1030B0000CD16146014301D1610707D530216A4631
:1030C0001176012101910299491E02910399582913
:1030D00004D037A103910FA90F910DE039A1F9E7B1
:1030E0006146059B049AFDF772F8039B8C469B5C36
:1030F0000F9A521E0F92137061460143F0D10F9840
:1031000007A9081A20300390600704D501200004A5
:103110008443029801E0012002900399884201DD76
:10312000401A00E000204118029001980918009808
:10313000401A0090E00306D42146149B139A00988D
:1031400000F05AF886190020049008E006A9085CEF
:10315000149A139990470498401C761C0490019986
:103160008842F3DBE0030CD52146149B139A0098A8
:1031700000F042F8861904E0149A30201399904721
:10318000761C0299481E02900029F5DC08E00F9891
:103190000F990078491C0F91149A13999047761C47
:1031A0000399481E03900029F1DCFBE60928010081
:1031B00030313233343536373839616263646566AD
:1031C000000000003031323334353637383941426F
:1031D0004344454600000000F8B5044600251E465D
:1031E0001746880404D405E039462020B0476D1CFA
:1031F000641EF9D52846F8BDFFB50446002581B008
:103200001E46C80301D5302700E02027880404D5D6
:1032100005E038460399B0476D1C641EF9D5284671
:1032200005B0F0BD10B500231A4604E0845CE31835
:10323000521CDBB2D2B28A42F8D3D843C0B210BD1E
:10324000034610B50020024604E09C5C2018521C86
:10325000C0B292B28A42F8D310BD38B56C46207025
:1032600000290AD000206070A270E3700423224677
:103270000021092000F08AFC38BD0120F3E700009E
:1032800010B5034801781630FEF794F910BD000020
:103290001800002010B50020FEF7AEF8FDF730FC56
:1032A0000149486010BD00001800002070B50C46B0
:1032B0000546134913A0FFF74FFD002C12D012A2B0
:1032C000294613A0FFF748FD16A0FFF745FD164A53
:1032D0009078002808D0002C29460ED00120D26812
:1032E000904770BD11A2EBE7002DFAD1002C02D05F
:1032F0000020D07070BD0120FBE70020EFE7000048
:103300003748000825733A006F66666C696E650081
:1033100044657620616464726573732025643A2085
:10332000257300000A000000180000206F6E6C6911
:103330006E650000F1B5174882B0C168002901D15F
:10334000C0600061C4680027134EE5681DE0217865
:103350000298814217D10097637871786268FEF70E
:10336000F3F9E068002805D02169C860E0682169A8
:103370000161E760606800F055F8204600F052F8FF
:10338000B078401EB0702C46ED6802488442DED111
:10339000FEBD0000A406002068000020F8B5174616
:1033A0000C460646FDF7BCF93420FDF72FF9002C3A
:1033B0002CD0BD0828E00021002D0FD00320225C76
:1033C000401E0A4311020128F9DA207801433046F1
:1033D000241DFDF775F9042814D014E0B807800FF8
:1033E000012803D0022801D00328F0D1401EEED4DA
:1033F000225C0A43012801DD1102F7E7C3001146F0
:103400009940F3E7361D6D1E002DD4DCFDF744F91D
:10341000F8BD13B5012269460020FDF7AFFC009806
:103420001CBD000010B5002823D0124B0022001F45
:10343000196803E0814203D80A4649680029F9D196
:10344000002A0AD01368841A9C4204D10068181814
:103450001060104602E0506000E01860002907D0BC
:1034600002680B1A934203D10B68D21802604968B4
:10347000416010BDAC00002010B5FEF705FEFEF760
:10348000EFFD10BDF8B50E4605460024084F0BE0D1
:10349000304600F00FF8398A3846C90704D00121B8
:1034A000FEF7FCFE641CA4B2AC42F1D3F8BD0000F0
:1034B000002C014010B503490978884201D000F082
:1034C00003F810BD6400002010B5064900280870FC
:1034D00004D0012801D1FEF7A5FE10BDFEF7BCFE09
:1034E00010BD00006400002010B504460120FFF765
:1034F000EBFF01212046FFF7C5FF10BD10B50446C4
:103500000020FFF7E1FF00212046FFF7BBFF10BDC1
:1035100070B5114D1C212878002648430F494418E6
:103520002078DD2810D1207C00280DD0FDF7E8FAA6
:10353000A169411A606942008018814204D9267449
:103540006A680121287890472878401CC0B228700A
:10355000202800D32E7070BD340000209001002080
:1035600070B506460D460BA0FFF7F6FB002405E0FC
:10357000315D0CA0FFF7F0FB641CE4B2AC42F7D362
:103580000AA0FFF7E9FB2A4631460120FDF7F6FBCA
:1035900070BD00004D50726F746F2073656E643A99
:1035A0000000000025303278200000000A000000F2
:1035B000F0B5064689B04809CF0608900D46FF0EC3
:1035C0001CA0FFF7C9FB002405E0315D1CA0FFF73C
:1035D000C3FB641CE4B2AC42F7D31BA0FFF7BCFBF7
:1035E0001A4881780120FDF761FD002409E060019F
:1035F00080192021FDF7F2FD3220FFF77FFF641CC8
:10360000E4B208988442F2D3002F0CD0E81B811951
:103610003A466846FCF79AFD20216846FDF7DEFD34
:103620003220FFF76BFF094881780020FDF73EFD4F
:1036300009B0F0BD4E65742053656E643A00000019
:1036400025303278200000000A00000074000020BD
:10365000FEF7E6FCFEF7F9FCFCE70000F0B50B30E6
:10366000C108C900144F0026144A0FE003688B42BA
:103670000BD38B4205D95C1A4318456830C3083B0D
:1036800000E04368136002C004E0021D10680028D7
:10369000ECD13046002803D13868002801D0002042
:1036A000F0BD064A06481060064A121AD208D20037
:1036B00044C001203860D7E7B0000020AC000020F3
:1036C000D4070020D00F002030B5044691B02B491C
:1036D0002BA0FFF741FBE1782AA0FFF73DFB2CA0D0
:1036E000FFF73AFBE078032839D01CDC002824D00F
:1036F000012826D002281ED16C460425257065704D
:10370000FEF786FC01460422A01CFCF71FFD0320E7
:10371000694688712046CD710830FEF76DFC0C2299
:103720006946022005E0042823D0FF2803D10022A7
:10373000114600F031F811B030BD0022114610469C
:10374000F7E72079241D0328F5D160780428F2D109
:10375000A01CFEF7A9FC062221460120E9E7002271
:103760001146032000F018F86846007800F0C6F80B
:10377000E1E708480021C1708170DCE78949000851
:1037800025733A0074797065203D2025640000009F
:103790000A0000004C00002070B5A0B06D46AA23BE
:1037A0002B70931C6B70E87001A8FCF7CFFC6C4683
:1037B0006078401EC1B2E81CFFF734FDA070002401
:1037C0006E4605E0315D0AA0FFF7C6FA641CE4B25C
:1037D0006878801CA042F5D807A0FFF7BDFA6A7888
:1037E00069460120921CFDF7C9FA20B070BD0000A7
:1037F00025303278200000000A00000010B5094989
:1038000009A0FFF7A9FA09A0FFF7A6FA08A0FFF799
:10381000A3FA08480121C1708170FF20FDF768FDFF
:1038200010BD00007449000825733A000000000034
:103830000A0000004C000020FEB51D4EF078002864
:1038400034D0B06800246D46002805D0FDF758F943
:10385000B168401AC82829D97078694608700222D0
:10386000B256002A01DD012000E00020487001204E
:103870008870012A06D0901C06D0D01C06D0521C9D
:1038800006D006E00BA404E00EA402E013A400E0BE
:1038900016A42146E81CFCF791FC2046FCF77AFCB4
:1038A000C01CC2B269460420FFF776FFFEBD0000CF
:1038B0004C000020746573742073756363657373C3
:1038C0002E00000063616E27742066696E642052CA
:1038D000462073656E736F72210000007363616E22
:1038E0002074696D656F7574210000006E6F204D46
:1038F00041432061646472657373210038B5194CCB
:1039000060700020A0706846FEF776FB684600787D
:103910000125FF280BD168464078FF2807D168466B
:103920008078FF2803D16846C078FF2808D0FDF7CB
:10393000D7FE002807D00120C043A070E57038BD35
:103940000020C043F9E7FDF7B7FC074907A0FDF7E2
:1039500007FE00237D211A4609010648FEF7ECFB0D
:1039600038BD00004C000020FD3700085A43544584
:1039700053540000DD410008F0B5C1B00024092611
:103980000127CDB20300FFF7F7F90A06192E3677A3
:103990007777585D7177C8B2FCF77EFC04006BD076
:1039A0006846077045700622611D801CFCF7CEFB3F
:1039B00020796946087233466A4611E0C8B2FCF7BE
:1039C0006BFC040058D00021684601704570062247
:1039D000611D801CFCF7BAFB20796A4610723346E1
:1039E0000121082046E06846FEF72EFE034601212D
:1039F0006A4603203EE00F46002516E0FCF74CFC2B
:103A0000060010D0795D68460155641CE4B20019C7
:103A10000622711DFCF79AFBA41DE0B232796946BB
:103A20000A54401CC4B26D1CEDB2785D0028E5D18B
:103A3000012123466A4604201CE009230A4601218D
:103A4000184617E00C4609786846017061784170A5
:103A5000A1788170A278C01C6168FCF777FBA07820
:103A60000121C01CC3B26A46072003E000231A46A6
:103A70000121052000F08AF841B0F0BDF0B5C1B0D9
:103A80001E4614460746002907D0002F05D0002304
:103A90001A461946184600F079F83A4D6878002819
:103AA00001D1012F21D13B00FFF766F90D08212D2F
:103AB0003134391F3E1F44545D681F003248C468CA
:103AC000844200D10024002C0FD0E068002806D0EA
:103AD0002169C860E068216901610020E0606068D8
:103AE000FFF7A0FC2046FFF79DFC41B0F0BD20464B
:103AF000FFF7C6F8A079FFF777F8E079FFF7EAF863
:103B000001206870F1E72078FEF7D6FFEDE7FEF7B9
:103B100067FFEAE731462046FEF7FCFDE5E7314660
:103B20002046FEF701FFE0E762782078A11CFEF74F
:103B3000F9FFDAE7A27861782078FEF7E9FC00283F
:103B4000A3786278207801DA002100E00121FFF7F4
:103B500084FBCAE769460020FFF724F803460021EA
:103B60006A460A2007E069460120FFF71BF8034672
:103B70006A4600210B2000F009F8B6E7FEF7ACFF1B
:103B8000B3E700003C00002010060020F0B50C4612
:103B9000C1B001466E46FC2017461D4632463070C5
:103BA000002C01D0802000E0002008435070957068
:103BB00029463846FFF744FB6946C8702A4639460D
:103BC000301DFCF7C3FA2D1D002C1ED01420FFF76A
:103BD00045FD0446032020700020A060E8B260701C
:103BE000FFF73CFD606062786946FCF7AFFA094870
:103BF000C168002901D1C0600061E0600169CC604A
:103C000001692161046141B0F0BDE9B26846FFF786
:103C1000A7FCF8E71006002010B51648C4688442D7
:103C200000D10024002C12D0FCF76AFFA168401AD2
:103C3000C8280CD9207800280AD061786068FFF77E
:103C40008FFC2078401E2070FCF75AFFA06010BD4A
:103C5000E068002806D02169C860E0682169016138
:103C60000020E0606068FFF7DDFB2046FFF7DAFB2D
:103C700010BD00001006002010B5C4B20C490DA004
:103C8000FFF76AF80CA0FFF767F80CA0FFF764F8DD
:103C9000022000F039F80A484078FDF729FB08486F
:103CA0001038C268002A02D000212046904710BD7B
:103CB0002A48000825733A00000000000A000000AE
:103CC0002800002070B51478551CFEF7B3F90D4993
:103CD0000A78002A0AD0012C09D0022C0BD0032C20
:103CE00004D101462A46022000F036F970BD014693
:103CF0002A460020F8E78B68002BF7D02946984722
:103D000070BD00006800002070B50C4D0446697855
:103D10000120A1420FD0002C02D0012C03D101E0E0
:103D2000032000E00220FCF793FFEA68002A02D09B
:103D30002146062090476C7070BD000018000020DE
:103D400070B515460C46FCF7A7FA002802D0C27AD7
:103D5000002011E00A490BA0FEF7FEFF0DA0FEF7C0
:103D6000FBFF11A0FEF7F8FF0020C04370BD215CEF
:103D700051402154401CC0B2A842F8D3002070BD6D
:103D8000C849000825733A5B2121214552524F5200
:103D90005D0000006B6579206E6F7420666F756E34
:103DA00064212121000000000A00000010B5044633
:103DB000002901D0FFF7BEFA00222146052000F0BD
:103DC000CBF810BDFFB585B05C1C0E9E1F46154696
:103DD000002A06D1324639460598FFF7B1FF002880
:103DE00016DB0698002802D00598FFF7A3FA38786A
:103DF00004280FD0052811D0062809D1684605707F
:103E0000761E46706A4601940620059900F0A4F8D3
:103E100009B0F0BD002203200599F7E72078694634
:103E2000087060788870A01CFEF704F9039000A861
:103E3000A11D06220330FCF789F9207B69464872F0
:103E4000607B48706A4604200599DFE710B5114889
:103E5000C468844200D10024002C1AD0FCF750FE24
:103E6000A168401A0C49884213D9E068002806D09E
:103E70002169C860E068216901610020E060606834
:103E8000FFF7D0FA2046FFF7CDFA04498878401EA4
:103E9000887010BDA406002068A7040068000020F8
:103EA000F7B5194D0746A87816460A280AD31749C8
:103EB00017A0FEF751FF17A0FEF74EFF1AA0FEF75E
:103EC0004BFFFEBD1420FFF7C9FB07700446467088
:103ED0003046FFF7C3FB606032460199FCF736F9C4
:103EE000FCF70EFEA0601148C168002901D1C06036
:103EF0000061E0600169CC60016921610461A8781A
:103F0000401CA870FEBD000068000020D5490008D4
:103F100025733A00736C6565702063616368652082
:103F200066756C6C210000000A000000A4060020E9
:103F300010B5FEF783FB4400FEF7E2FB05492018AD
:103F4000CA78C0B2904202D0C870012010BD0020D3
:103F500010BD00003C000020024B5B68002B00D02D
:103F60001847704768000020F8B50E46044615460D
:103F700000210420FCF71AFD2046FCF723FE07462B
:103F8000002405E0FF20FCF71DFE3055641CE4B260
:103F9000AC42F7D301210420FCF708FD3846F8BDF8
:103FA00010B5044600210420FCF700FD2046FCF774
:103FB00009FEFF20FCF706FE044601210420FCF761
:103FC000F5FC204610BDF8B50E4604461546002106
:103FD0000420FCF7EBFC2046FCF7F4FD0746002428
:103FE00004E0305DFCF7EEFD641CE4B2AC42F8D3B3
:103FF00001210420FCF7DAFC3846F8BD70B50D4607
:10400000044600210420FCF7D1FC2046FCF7DAFD31
:1040100004462846FCF7D6FD01210420FCF7C6FC27
:10402000204670BD10B504090207120F0120904010
:10403000888008614A732300FEF79EFE06040A0E7C
:1040400012171B200920C00608600120400414E05C
:104050000B480860000210E00A48086000020CE00B
:10406000094808600120000507E008480860400290
:1040700003E00748086001208005886010BD00004B
:104080000004004800080048000C004800100048E8
:104090000014004870B51C48C468844200D1002454
:1040A000002C2FD0FCF72CFDA168184D411A68890F
:1040B000C830814226D9A1786068FFF779FA607824
:1040C000401C6070FCF71CFDA060FCF719FDFDF7BB
:1040D000DBFFFDF7C5FF6421FCF722F869816078FA
:1040E00003280FD3E068002806D02169C860E06883
:1040F000216901610020E0606068FFF793F92046C4
:10410000FFF790F970BD0000B80600207400002091
:10411000F8B5074615460E461420FFF79FFA0446E9
:10412000077000206070A570A0602846FFF796FA1F
:104130002A4631466060FCF709F80648C168002944
:1041400001D1C0600061E0600169CC60016921615A
:104150000461F8BDB806002070B588B0202168461B
:10416000FCF70DF8FCF782FF002827D06846FDF722
:1041700002F8002822D1FCF7C3FC164C0025E169A7
:10418000401A642800D9E570FCF7BAFCE061124BD4
:1041900000206E46E278315C9954521CD2B2E27033
:1041A000012A0DD00C2A0FD0A1790D318A420CD1F1
:1041B000D1B20948FDF710FBE570A57108B070BDDC
:1041C000A52902D0E57000E0A171401CC0B22028F2
:1041D000E0D3F3E774000020CC06002010B50848B7
:1041E000807800280AD1074907A0FDF7B9F9002314
:1041F0007D211A4609010648FDF79EFF10BD00000B
:104200004C000020FD3700085A4354455354000029
:10421000FD42000810B506490648FDF7A1F97D21C9
:1042200002230022C9000448FDF786FF10BD0000EC
:10423000914700082E000020793C0008F8B50027BF
:104240000E4E05230C245C43A419803CE46F002C23
:1042500001D15D1EEDB284420ED05B1E1B061B0E0B
:10426000F0D1002F08D10C235D437255AB19986033
:104270000622581CFBF76AFFF8BD0000540100201D
:1042800010B5124C607802281FD1A07800281CD1EC
:104290002078002819D16068002806D0FCF730FC8F
:1042A0006168401AA16888420FD9094909A0FEF740
:1042B00053FD09A0FEF750FD08A0FEF74DFD0020BC
:1042C000FDF79AF8FCF71CFC606010BD1800002098
:1042D0001A48000825733A00000000000A00000098
:1042E000034610B50020024604E09C5C2018521CD6
:1042F000C0B2D2B28A42F8D310BD0000044881781F
:10430000002903D10121C170091F8170704700008D
:104310004C00002010B5044600784108CA0706D0BA
:10432000FCF7EEFB6060A168E068884710BD4907B4
:1043300003D4400840002070F5E70020C0436080AF
:10434000F1E7000010B50A490AA0FEF705FD0AA032
:10435000FEF702FD09A0FEF7FFFC094C2046FCF722
:104360009FFA0722D20107492046FCF7B7FA10BD91
:104370002549000825733A00000000000A000000EB
:1043800000F400089001002070B50B4C0546A01CFD
:10439000FDF768F82078FDF761F80020FEF78CFB48
:1043A000002D08D0054C2046FCF77AFA0622024977
:1043B0002046FCF793FA70BD2800002000F00008AA
:1043C000F7B586B00646154600210798FDF7EFFFC2
:1043D0001D4F002D04D1002239460798FEF714F82E
:1043E000307901242403012817D0022819D0002095
:1043F00001463268019000200092029005900C2046
:104400000391049069460798FEF714F8214607982F
:10441000FEF764F8002D08D010E001212046890243
:10442000E7E7032120464902E3E739460798FDF70D
:10443000B9FF012239460798FDF7E6FF01210798E9
:10444000FDF7B5FF09B0F0BD05010500FEB5044656
:10445000807A0125002808D1217860786A46117297
:104460005072957202A8FCF7FFFEA18801226069D4
:10447000FCF7AFF9218901226069FCF7AAF9E0880D
:104480000090022669460E7100208871CD710320CC
:1044900048716069FCF765F96088694600900E71A3
:1044A0006069FCF75EF9FEBDF0B58BB015460C46B1
:1044B0000746FDF7B1FD00281AD0884EB0780128D4
:1044C00002D0002809D013E0380011D0022F0FD0FD
:1044D000032F0DD0042F0BD002E03846012F07D058
:1044E0000300FEF749FC071210306481BFD91000A9
:1044F0007B497CA0FEF730FC39467BA0FEF72CFC04
:104500007DA0FEF729FC0BB0F0BD754975A0FEF744
:1045100023FCE8786A7929796B4607C3AB786A7817
:10452000297876A0FEF718FC73A0FEF715FCFCF7BF
:10453000E7FAFEF7A1FF19214901FBF7F1FD234638
:104540000022784830E0654F287810373870687856
:1045500078702046FDF72CFE01460422B81CFBF7BC
:10456000F5FDE87829790002401887B25C495DA022
:10457000FEF7F2FB0097AB786A7829786A48FEF775
:10458000EBFB5DA0FEF7E8FBA8786A1D2146B36847
:10459000FBF796FF0120FFF7F7FE0220FFF7B4FBC1
:1045A00000231A4639466148FDF7C6FDABE74C4982
:1045B0004CA0FEF7D1FB5EA0FEF7CEFB4EA0FEF7AF
:1045C000CBFB4648FF2206211030FBF7D1FD01202E
:1045D000FFF7DAFEF268002A02D000210920904796
:1045E0000020FFF791FB8EE73D493EA0FEF7B4FBAC
:1045F000E8796B7A297A04ACEA680FC4E878AB7979
:104600006A7929796C460FC4AB786A7829784D4865
:10461000FEF7A2FB38A0FEF79FFB2878002808D001
:10462000687A00906978A878EB1CEA68FBF7AAFE24
:1046300004E0A878FBF730FEFBF78AFEF468002C54
:10464000B4D0287808A90870A8784870687A0872E9
:1046500008A80622E91C0230FBF778FD08A907200C
:10466000A04750E7E0B2FBF717FE00289ED01C4998
:104670001CA0FEF771FB214633A0FEF76DFB1EA0C8
:10468000FEF76AFBE0B2FBF737FFB07801288DD167
:10469000E0B2FCF7B1FE36E7E0B2FBF7FDFD002823
:1046A00084D0E0B2FBF728FF0D490EA0FEF754FBC3
:1046B00021462FA0FEF750FB0FA0FEF74DFB6946E9
:1046C0000C70287848706878887068680190F26883
:1046D000002A88D00820904715E700001800002025
:1046E0005A48000825733A0069676E6F7265206545
:1046F00076656E74202564000A0000004E45545F04
:104700004556454E545F5345415243483A206D61EA
:1047100073746572202563256325632563256325EE
:104720006300000081320008704A000895320008DA
:104730004E45545F4556454E545F4445565F44458B
:104740004C202100BC4A00084E45545F4556454E5A
:10475000545F4445564943455F484541525442459C
:1047600041542073756241646472203D20256400C9
:104770004E45545F4556454E545F555345525F4430
:104780004154412066726F6D205B25645D0000001E
:1047900030B50C46054685B00E490FA0FEF7DCFA91
:1047A000A079617922790495019202910390E078D1
:1047B0000090A3786278217808A0FEF7CDFA12A0C5
:1047C000FEF7CAFAA27921462846FFF737FD05B061
:1047D00030BD00004548000825733A0073756244F7
:1047E000657620747970653A2563256325632563B2
:1047F000256325632C20736C6565703A25642C2035
:104800007569643A257800000A00000053797353F3
:1048100065744D61634164647200737562446576CA
:10482000486561727462656174006E657442756991
:104830006C64446F6E6500646D4576656E744861A6
:104840006E646C6500776D53656172636852657361
:10485000756C7448616E646C6500776D4E65746C40
:10486000617965724576656E7448616E646C650049
:10487000574D4E6574557365724461746153656E2E
:104880006400574D51756572794465766963654971
:104890006E666F00574D4E65744275696C64446571
:1048A0006C44657669636500574D4E657442756961
:1048B0006C6441646444657669636500574D4E6578
:1048C000744275696C6453656172636800574D4446
:1048D0006576696365436F6F7264696E6174696F51
:1048E0006E00574D5365744D6173746572536C61FE
:1048F00076654D6F646500574D536574536C6565FF
:10490000704D6F646500574D5365744D6F64756CE1
:10491000655479706500574D4E6574496E666F43F6
:104920006C65617200757064617465446576696375
:1049300065496E666F546F466C61736800444D4400
:1049400065766963654164647265737346696E6414
:1049500000444D55706461746548656172746265A8
:10496000617400504D536C65657000504D57616B1C
:10497000655570006D665365617263685265737545
:104980006C7448616E646C65006D664672616D653D
:1049900048616E646C6500486172644661756C7450
:1049A0005F48616E646C65720048616C5265626F4D
:1049B0006F7400464C4153485F49525148616E64E0
:1049C0006C657200FFFFFFFF6E6574456E446563A2
:1049D00072797074006E6574536C656570446576A9
:1049E0004461746153617665004E65744275696C0B
:1049F000645374617274004E65744275696C6453DB
:104A0000746F70004E6574536574536C6565704DBA
:104A10006F6465004E65745365744D6163416464F1
:104A200072004E65746275696C6453656172636887
:104A300044657669636500FFFFFFFF50485953776F
:104A4000697463684368616E6E656C0050485949CB
:104A50006E697469616C697A65003443101034437F
:104A600010104E524632344C3031436865636B004F
:104A70004E45545F4556454E545F4445565F41444C
:104A8000443A206D792061646472657373203D201F
:104A900025642C2072664368616E6E656C203D2033
:104AA00025642C206B6579203D2025642C206862CC
:104AB00074696D65203D2025640000004E45545FFB
:104AC0004556454E545F434F4F5244494E41544919
:104AD0004F4E3A206275696C643D25642C206B65ED
:104AE000793D25642C206E6574416464723D2564B3
:104AF0002C20747970653D25632563256325632526
:104B00006325632C207569643D25642C20736C65D6
:104B100065703D2564000000384B0008000000204F
:104B2000B4000000922D0008EC4B0008B4000020F7
:104B30001C130000A22D00080100000115CD5B0729
:104B4000043BD8218C0A2913D20400000000000085
:104B50000000FF00000000008813000000000000BB
:104B60000000000000000000000000000000000045
:104B70000000000000000000000000000000000035
:104B80000000000000000000000000000000000025
:104B90000100000000000000000000000000000014
:104BA00000000000000000000000000000FF000006
:104BB00000FF0000FFFF00000000000000000000F8
:104BC00000000000000000000000000000000000E5
:104BD00000000000010203040102030406070809A3
:0C4BE000000000000000000000000000C9
:04000005080000B53A
:00000001FF
