:020000040800F2
:10000000B8120020C9000008EF000008F100000845
:1000100000000000000000000000000000000000E0
:10002000000000000000000000000000F3000008D5
:100030000000000000000000F5000008F7000008C4
:10004000F900000800000000F90000081105000890
:10005000F9000008F9000008F9000008F90000089C
:1000600000000000F9000008F9000008F90000088D
:10007000F9000008F9000008F9000008000000007D
:100080008D1C00080000000000000000F9000008BE
:10009000F9000008F9000008F9000008F90000085C
:1000A000F9000008F9000008F9000008411D0008E7
:1000B000751D00080348854600F0AAF8004800476F
:1000C0005D2E0008B81200200C4880F308880C4808
:1000D0000168090E0B4A914205D10B480B4901609A
:1000E0000B480C4901600C4880470C480047FEE76C
:1000F000FEE7FEE7FEE7FEE7FEE70000B81200209D
:10010000040000001F000000181002400100000061
:100110000000014000000000CD1B0008B5000008F1
:1001200030B50B46014600202022012409E00D468F
:10013000D5409D4205D31D469540491B2546954017
:1001400040191546521E002DF1DC30BD03460B430D
:100150009B0703D009E008C9121F08C0042AFAD27D
:1001600003E00B780370401C491C521EF9D2704703
:10017000D2B201E00270401C491EFBD2704700223F
:10018000F6E710B513460A4604461946FFF7F0FF96
:10019000204610BD30B504460020034600E05B1C3D
:1001A000934203D2E05CCD5C401BF8D030BDF0B58B
:1001B0001FB40646002082B00546402401910090FD
:1001C0001BE0019922460F46304600F043F8049A9E
:1001D000059B801A994110D310461946224600F01B
:1001E00029F8361A8F410197224601200021009FED
:1001F00000F020F838184D4100902046641E002879
:10020000DFDC019B00982946324607B0F0BD0000B4
:10021000064C0125064E05E0E36807CC2B430C3C59
:1002200098471034B442F7D3FFF748FF503E000818
:10023000703E000810B5202A04DB0146203A9140A8
:10024000002010BD914020239C1A0346E34019432F
:10025000904010BD10B5202A04DB0846203AD0405B
:10026000002110BD0B46D340D0402024A21A91405B
:100270000843194610BD00001F2805D8182148431F
:1002800003490A5CDD2A01D00020704740187047FE
:1002900078010020F8B50E461149074601241820C0
:1002A0006043085CDD2814D01820DD2560430D5420
:1002B00045182F71EE72EA60681D06221946FFF795
:1002C00045FF002028616861A86103F05BFA2046C1
:1002D000F8BD641CE4B2202CE1D3FF20F8BD00007F
:1002E0007801002010B5002805D0FF221821FFF763
:1002F0003FFF03F047FA10BD10B5024800F018FAAE
:1003000010BD000000F4000870B5182460430A4CCA
:10031000049D0419DD2020702571E172E26006223F
:100320001946601DFFF712FF002020616061A06187
:1003300003F028FA70BD00007801002010B50346D4
:10034000084A002018214143545CDD2C03D1891850
:10035000C968994204D0401CC0B22028F2D3FF20C3
:1003600010BD00007801002001494860704700007E
:1003700030000020F8B506460020044618210E4A39
:1003800061438D182978DD2910D1297C00290DD0F1
:100390003454401CC7B2F0190622691DFFF7D6FE7F
:1003A000BF1DF8B229793154401CC0B2641CE4B2BC
:1003B000202CE3D3F8BD000078010020F8B50646F4
:1003C0000020044618210C4A61438D182978DD2944
:1003D0000DD13454401CC7B2F0190622691DFFF735
:1003E000B5FEBF1DF8B229793154401CC0B2641C5F
:1003F000E4B2202CE6D3F8BD7801002010B503222A
:1004000012020849084800F0A9F90020054B0246ED
:1004100018214143C918401C0A74C0B24A612028FF
:10042000F6D310BD7801002000F4000810B502F0EA
:100430006DFC10BD10B50346FFF71EFF04000DD084
:10044000207C002806D101200A4A2074526800212D
:100450001846904700F032FA606110BD064907A0C7
:1004600002F098F809A002F095F80DA002F092F8B9
:1004700010BD000030000020F23C000825733A5BFC
:100480002121214552524F525D000000646576697A
:100490006365206E6F7420666F756E642121210084
:1004A0000A0000000149C8607047000000200240B7
:1004B000F0B50B2706463F04384600F08DF80428B7
:1004C0000FD1084C2069022528432061666120690C
:1004D000402108432061384600F07EF82169A94395
:1004E0002161F0BD0020024008490420CA68D207FB
:1004F00001D001207047CA68D20601D5022070479A
:10050000C9684907FBD5032070470000002002405E
:1005100010B5024902A002F03DF810BD043D0008EC
:10052000257320456E7472792121210A0000000094
:100530000248016980221143016170470020024096
:10054000044910220028086801D0104300E09043BD
:100550000860704700200240F8B5064600200B27CF
:100560003F0400900D46384600F036F8042815D1B7
:100570000B4C20690121084320613580384600F08A
:100580002BF8042806D1B61C290C00963180384679
:1005900000F022F82169490849002161F8BD0000F6
:1005A00000200240034A11684908490001431160D4
:1005B000704700000020024004480169090603D585
:1005C0000349416003494160704700000020024038
:1005D00023016745AB89EFCD00B50346FFF784FFE4
:1005E00002E0FFF781FF5B1E012803D0002B00D142
:1005F000052000BD002BF4D1FAE7F0B50022032559
:1006000001230C6893401C409C422AD10C79012C98
:1006100001D0022C12D1876854002E46A640B74361
:1006200087604E79A64084682643866084889C4310
:10063000848084888B7993401C43848006685300AF
:100640002C469C40A64306600E7907689E403E43B8
:100650000660C668A643C660CC799C40C3681C434C
:10066000C460521C102ACBD3F0BD4B07DB0E9A405E
:10067000C90810B589000818016A0F249C40A143DD
:100680000162016A1143016210BD0246128A002014
:100690000A4200D001207047002A01D081617047D2
:1006A0000185704710B501F051F8012001F064F99F
:1006B00001F09AF90120FFF743FF0120FFF772FFD5
:1006C000002001F04FF9002001F05EF90521C90476
:1006D000002001F071F9012001F060F9192001F00A
:1006E0001FF90028FAD0022001F074F901F032F964
:1006F0000828FBD103200121400401F003F8012167
:10070000880301F017F80121480401F007F80121DE
:10071000022001F003F80121C80201F00BF80121C9
:10072000080301F007F80121084601F003F810BDA5
:1007300070B50546FFF740FF00243420FFF7B2FEF6
:100740002846FFF7B5FE042803D0641CE4B20A2C47
:10075000F3D3FFF7EDFE70BD704770470B4610B541
:100760000146184692B2FFF7F1FC10BDF0B5002724
:10077000C3B00D4606463C46FF2A01D91004070EB9
:10078000D0B2009010E020024119FF220190013206
:1007900002A8FFF7DBFC0198FF228019013202A9B1
:1007A00002F008FA641CE4B2BC42ECD300980028C2
:1007B00010D0FF22571C394602A8FFF7D9FC2402AB
:1007C000611902A8009AFFF7C1FCA0193A4602A9D4
:1007D00002F0F0F943B0F0BD00B585B0302802D981
:1007E000002005B000BD694602F09AFE6846818887
:1007F0000098FFF74AFFF4E710B588B00C463028A0
:1008000018D802A902F08CFE69468889009003205E
:1008100048710020002C02D0012C02D00220087167
:1008200004E001216A461171D17190716946029804
:10083000FFF7E3FE08B010BD7047704710B586B0F3
:100840000C46302808D8694602F06AFE684681885E
:1008500022460098FFF720FF06B010BD0EB5FFF747
:1008600021FF00F09DF8FFF7E7FF00F0E7F800F048
:100870002BF8FFF771FFE12040020090002069464D
:100880000871029000F0C6F80EBD00000349002870
:10089000087001D062B6704772B6704748000020F9
:1008A00010B500F031F910BD10B5FFF7C6FF00F02C
:1008B0005BF8FFF752FF00F0FDF810BD01484068FB
:1008C000704700004800002030B587B02020059018
:1008D0000320694648760220087600248C760120A1
:1008E000C8760925ED0605A92846FFF786FE802172
:1008F000059105A92846FFF780FE4021059105A92D
:100900002846FFF77AFE002220212846FFF7ADFE99
:10091000002240212846FFF7A8FE00228021284619
:10092000FFF7A3FE6946FF200C80053048800720B2
:1009300000028880CC8001200C8140024881102078
:100940008881CC810720074C0882204601F072F88C
:10095000A114204601F09AF80121204601F05AF82E
:1009600007B030BD003001407047000070B50B4C3F
:1009700005460221204601F056F80028F9D0294604
:10098000204601F08DF80121204601F04CF80028A6
:10099000F9D0204601F078F870BD00000030014029
:1009A0001FB5102069460873022048730120887320
:1009B00003A800F05BFA0D4801902F2069460880DB
:1009C000002008810A4C4880204601F07FF901216F
:1009D000204601F065F901221146204601F06DF92B
:1009E0000121204601F05FF91FBD0000E703000070
:1009F0000004004002484168491C41607047000003
:100A00004800002010B5012802D1084600F0E6F8A1
:100A100010BD000010B50B46002807D0012804D1F6
:100A200004490022184602F0EBFE10BD00220249E4
:100A3000F8E70000004400400038014070B588B07D
:100A4000E126092576020024ED0601208002694690
:100A500003960595069448800A208880012040026C
:100A6000C880092008811B2008704C700F48049032
:100A70008C726846079402F009FF082069460396C5
:100A8000059506944880032088800420C8800220B1
:100A900008811C20087001204870054804908C7261
:100AA0006846079402F0F2FE08B070BD00380140BD
:100AB0000044004070470000F8B517460D46002876
:100AC00003D0012803D00020F8BD0C4E00E00C4EEE
:100AD00000240BE0295D304601F017FA80213046F2
:100AE00001F071F90028F9D0641CA4B2BC42F1D322
:100AF0000449304601F058F93846F8BD0038014045
:100B000000440040060106000249014808607047A1
:100B1000AAAA0000003000400EB50948C06000617C
:100B200001F068FA074801F035FA4B20C001009047
:100B30000020694608710120FFF76CFF0EBD000020
:100B400078050020D52E000838B5224C60780028A2
:100B500013D1A068002807D0FFF7B0FEA168401AA3
:100B60007D21C900884208D900231A461946012070
:100B700002F09CFAFFF7A2FEA06002F0DDFA6078B6
:100B8000002825D001F03EFCE06800280AD0FFF7DD
:100B900095FEE168401A1049884203D802F046FCED
:100BA000002815D001F0FCF9450001F05BFA281887
:100BB0006946087001236A460021062002F076FA91
:100BC000E068002801D102F031FCFFF777FEE06019
:100BD00038BD0000380000208813000070B50446BE
:100BE000FFF76CFE194E00257168401A642800D981
:100BF0003570FFF763FE7060154930780C54401C67
:100C0000C1B23170012918D003291DD0B078001D60
:100C1000814211D10E4CA178201D01F021FFE17815
:100C2000884208D16078A378C1094006C901400E06
:100C3000221D02F09BF9357070BDFC2C00D0357080
:100C400004A001F0A7FC70BDB47070BD3800002096
:100C500078040020482B0A001CB50EA003C801919F
:100C6000009005226946302002F02BFC05226946DF
:100C7000102002F0F7FB002069460A5CA52A03D188
:100C8000401CC0B20528F8D3052801D000201CBDA7
:100C900001201CBDA5A5A5A5A500000010B501203B
:100CA000FFF79AFD002801D0002010BD012010BDE3
:100CB00010B501211020FFF79FFD01210420FFF74F
:100CC0009BFD00210120FFF797FD00211020FFF779
:100CD000B5FD01210420FFF7B1FD10BD70B50D4633
:100CE000044600F0B2F8002C32D000211020FFF7AB
:100CF000A5FD04222A49302002F0E3FB2849042202
:100D0000091D2A2002F0DDFB0221232002F0F4FB62
:100D10000021212002F0F0FB0121222002F0ECFB57
:100D20000021242002F0E8FB2946252002F0E4FB04
:100D30002721262002F0E0FB0A21202002F0DCFB24
:100D400001211020FFF77AFD962001F0D5FF70BD3C
:100D500000211020FFF772FD11490422091D2A20ED
:100D600002F0AFFB0221232002F0C6FB002121206C
:100D700002F0C2FB0121222002F0BEFB0021242050
:100D800002F0BAFB2946252002F0B6FB20213120D3
:100D900002F0B2FB2721262002F0AEFB0B21CCE7AC
:100DA000AB3D0008704770B50546072002F076FBA2
:100DB00004460146272002F09FFB60060ED5202244
:100DC0002946612002F04EFBFF21E22002F094FB55
:100DD000FF21E12002F090FB002070BD012070BDDA
:100DE00070B50C46054600211020FFF727FD0020B6
:100DF000FFF74CFD22462946A02002F062FB0121AC
:100E00001020FFF71BFD0120FFF7E6FC0028FAD1B8
:100E1000072002F043FB04460146272002F06CFB4A
:100E2000FF21E22002F068FB0120FFF72FFDE00622
:100E300005D5FF21E12002F05FFB102070BDA00668
:100E400001D5202070BDFF2070BD10B500211020FD
:100E5000FFF7F4FC0D21202002F04EFB01211020B1
:100E6000FFF7ECFC1E2001F047FF10BD30B5827883
:100E700001240178002A15D08B080E4A9B009A188D
:100E800013688907C90EFF258D40AB434578AD0730
:100E90002D0E8D401D4315600078C006C00E8440A5
:100EA000054804E0C806C00E844003488030046052
:100EB00030BD000000E400E000E100E010B50849AA
:100EC00008A001F067FB08A001F064FB07A001F097
:100ED00061FB0749012008707D2000F0F1FB10BD87
:100EE0003A3D000825733A00000000000A000000A7
:100EF0005400002010B50446084909A001F04AFB3F
:100F0000214608A001F046FB09A001F043FB094B74
:100F100000221A70204600F0D3FB10BD483D0008A7
:100F200025733A00776F726B2063683A256400007E
:100F30000A0000005400002070B58AB00C46054637
:100F400005206946087120784871A078887101AE43
:100F5000E06800F02FFE0146F01C0422FFF7F6F8CF
:100F6000F01D0622E11CFFF7F1F8607A694648742B
:100F7000607888740F22164601A9284602F060F9AD
:100F8000607A002806D0324601A9284602F006FA07
:100F90000AB070BD0020009003483346417801AA92
:100FA000284600F0CBF9F3E75400002010B500F01C
:100FB0004FF910BD014948607047000054000020FF
:100FC00010B50548C060006100F07AF9034A044991
:100FD000044800F0F5F910BD8C050020AD32000882
:100FE000E5310008C532000810B500F005FB02F03D
:100FF000ABF910BD10B50249497800F035F910BDC4
:101000005400002038B5044609490AA001F0C2FA8C
:10101000E0780090A3786278217807A001F0BAFA0E
:101020000AA001F0B7FA204600F0EEFA38BD000041
:10103000653D000825733A00253032783A25303274
:10104000783A253032783A25303278000A000000AC
:1010500010B500F0FBFA10BD10B500F00DFB10BD8F
:1010600010B50446064907A001F094FA214606A0EF
:1010700001F090FA05A001F08DFA0548447010BD0A
:10108000553D000825733A00256400000A00000061
:1010900054000020F0B5C1B00D4607460620694651
:1010A0000871164601A81C461A4631460130FFF762
:1010B0004DF8641CE2B23146384602F0C1F8002D0A
:1010C00006D0E2B23146384602F068F941B0F0BDD0
:1010D000002000900348E3B2417801AA384600F0AE
:1010E0002DF9F3E7540000203EB5044603206A467C
:1010F000107000A80B220130FFF728F8204600F0FE
:1011000059FD00230C22694600F05AF83EBD00004C
:101110007CB50C460546012201A902F091F8042293
:1011200068460271002C05D0012201A9284602F070
:1011300035F97CBD002004490090012301AA4978BB
:10114000284600F0FBF87CBD540000201CB5044686
:101150000C490DA001F01EFA0CA001F01BFA0CA026
:1011600001F018FA01226846027006222146401C4E
:10117000FEF7ECFF03480023072269465E3800F0C3
:101180001FF81CBD733D000825733A0000000000E5
:101190000A0000001CB50C4602216A461170014687
:1011A00000A806220130FEF7D1FF6A46D471012360
:1011B00008226946014800F003F81CBD153D0008EF
:1011C000FFB5C1B06C46A5202070012060701546A7
:1011D000A01C1E46074604224199FEF7B7FF0422D1
:1011E0001949381DFEF7B2FF17496A461C390878BD
:1011F0009072401C0870D57220462A460C304299E5
:10120000FEF7A4FF28460C30C4B22146684602F01F
:1012100095FA694608550C35ECB2641C002E0ED1C7
:1012200004220A494198FEF7B5FF002807D0684616
:10123000E2B2807A694602F0E9F945B0F0BDE1B268
:10124000684601F0BDFDF8E778000020883D000801
:1012500010B5002803D004220249FEF777FF0148A9
:1012600010BD00007800002010B590B00446A52203
:1012700068460270002900D080210322114341708A
:1012800004220E49801CFEF761FF0C496A469471E6
:1012900020394878D07108789072401C087000207E
:1012A000D0720C21684602F049FA6A4610730D218B
:1012B000684601F085FD10B010BD00007C000020E4
:1012C00010B50F48C0600061FFF7F2FCFFF7C4FCE7
:1012D000002809D10B490CA001F05CF90BA001F02A
:1012E00059F910A001F056F9064907A001F052F98A
:1012F0000DA001F04FF90BA001F04CF910BD00005A
:10130000A00500209D3D000825733A005048592053
:10131000646576696365206E6F7420666F756E64B0
:10132000212121000A000000504859206465766997
:10133000636520696E6974206F6B2100FFB5C1B0D1
:1013400006466D46A5204A9F1C462A46287000295D
:1013500001D0802000E00020507004221749A81C12
:10136000FEF7F4FE15496A46967120394878D07127
:1013700008789072401C0870D472284622460C30BF
:101380004399FEF7E3FE20460C30C5B22946684675
:1013900002F0D4F9694648550C34E0B2401C002FE5
:1013A00007D1FF2E05D0C2B2887A02F02FF945B0DE
:1013B000F0BDC1B2684601F003FDF8E77C000020F3
:1013C000014B07C37047000068000020F3B50446D6
:1013D00000208DB0064609900890607847067F0E81
:1013E000012F12D0A61C04226C493046FEF7D2FE13
:1013F00000281AD16949307920394978884221D1A9
:1014000070790090A07A019020E06449A01C042229
:10141000091F0990FEF7BEFE002808D0042260498B
:101420000998FEF7B7FE00280ED00FB0F0BD0020DF
:101430000090A07A0999019004225848091DFEF7EE
:1014400085FE03E0FF28F0D10120089055A001F0AF
:10145000A1F8002505E0615D54A001F09BF86D1C2A
:10146000EDB20E988542F6D352A001F093F8089899
:1014700000282BD1022F3DD0032F2BD0009D0198A7
:101480000A9000A802300B904BA00A9901F082F854
:10149000A520694608700220487004223F490B9835
:1014A000FEF754FE3D4869468D7120384078C8717A
:1014B0000A9888720020C8720C21684602F03EF932
:1014C000694608730D21684601F07AFC012F11D09E
:1014D000022F0FD03148A27A2038C1888A4207D122
:1014E000727903799A4203D136A001F053F89CE750
:1014F000717901712948A17A2038C180002F0ED05E
:10150000012F1AD0022F23D0032F8ED14269002A37
:101510008BD06078C109C9017079904785E7C568AB
:10152000002D82D0E07A009060782346C109C9017D
:1015300070790C33089AA84777E70569002DD6D053
:10154000224609980C32E37A001D0899A8476CE7F7
:101550002349C868002801D1C9600961CD6819E034
:101560002A78A37A9A4214D1D9B21EA001F012F8B7
:10157000E868002806D02969C860E868296901611F
:101580000020E860686801F059FB284601F056FB2E
:101590004BE70546E8688D42E2D146E77C00002033
:1015A000883D0008526563763A00000025303278A5
:1015B000200000000A00000061636B207069643A3B
:1015C00025640A00726570656174206D65737361CE
:1015D00067652C2069676E6F72652025640A0000BC
:1015E000A005002072656376207069643A25642046
:1015F00061636B0A0000000010B5FFF7D3FB01F038
:10160000C7FF02F027F810BD38B50446C078009037
:10161000A3786278217804A000F0BCFF0422214660
:101620000948FEF793FD38BD536574204D61633A58
:10163000253032783A253032783A253032783A25DA
:101640003032780A000000007800002010B504460F
:10165000014603A000F09EFF0648447010BD000044
:10166000536574204E657420416464723A25640A9F
:10167000000000005C00002038B50446C0780090EF
:10168000A3786278217804A000F084FF0422214628
:101690000A48FEF75BFD38BD5365742073656741EA
:1016A0006464723A253032783A253032783A2530FF
:1016B00032783A253032780A000000007C000020A1
:1016C00010B504460848214684700020FFF706FB49
:1016D000064907A000F05EFF214606A000F05AFF71
:1016E00007A000F057FF10BD5C0000208C3D0008F3
:1016F00025733A006368616E6E656C3A256400007C
:101700000A000000044A0029516901D0014300E0A9
:10171000814351617047000000100240044A0029D3
:10172000D16901D0014300E08143D16170470000DD
:1017300000100240044A0029916901D0014300E0F1
:101740008143916170470000001002401248016817
:101750000122114301604168104A11404160016853
:101760000F4A114001600168012292049143016017
:1017700041683F22120491434160C16A090909018D
:10178000C162016B074A11400163416B490849007E
:101790004163002181607047001002400CB8FFF8DF
:1017A000FFFFF6FEACFEF0FFF8B5564E044670683B
:1017B00000210C22544D104005D0042803D00828E5
:1017C00003D00C281AD025601AE0716870680322D3
:1017D0008902D2030F0F1040BF1C00280AD0F06A04
:1017E0000107090F2846491CFEF79AFC7843014679
:1017F000216005E0454839464143F9E74448206007
:101800007068444F0006000F3B5C20680246DA40D7
:10181000626073685B055B0FFB5CDA40A260336B50
:10182000DB0501D43C4B05E073685B0401D453082D
:1018300000E09308E360336B5F06384B03D4374F07
:101840001237276100E02361376BFF0601D4656121
:1018500000E06061376BBF070ED0376BBF07BF0F6B
:10186000012F0BD0376BBF07BF0F022F08D0376B8C
:10187000FF43BF0706D006E0A26104E0A06102E0DA
:10188000A36100E0A561376BBF03BF0F0FD0376BBB
:10189000BF03BF0F012F0CD0376BBF03BF0F022F49
:1018A00009D0376BBF03BF0F032F06D006E0E261FC
:1018B00004E0E06102E0E36100E0E561376B3F03D3
:1018C000BF0F0FD0326B1203920F012A0CD0306B76
:1018D0000003800F022809D0306B0003800F03281B
:1018E00006D006E0226204E0206202E0236200E00B
:1018F0002562306B000602D405486062F8BD616263
:10190000F8BD00000010024000127A0000093D00FE
:10191000006CDC0280000020809FD5000080000069
:10192000034600200A4A59090CD001290CD002298B
:101930000CD0516BDA06D20E012393400B4200D03B
:10194000012070471168F5E7116AF3E7516AF1E782
:1019500000100240024840680C2108407047000017
:1019600000100240034A5168F0239943014351603B
:101970007047000000100240024900228A708870FF
:101980007047000000100240034A516807231B0201
:1019900099430143516070470010024001220549FC
:1019A00012060028086801D0104300E09043086048
:1019B000704700000010024010B5054A53687B24B0
:1019C000E403A3435360536808430343536010BDCB
:1019D00000100240034A51688908890001435160A0
:1019E000704700000010024018B5002005242403B1
:1019F00000901120FFF794FF0099491C0091A1422B
:101A000001D00028F5D01120FFF78AFF002800D070
:101A1000012018BD40220029018801D0114300E0B7
:101A20009143018070470246128900200A4200D08B
:101A30000120704730B50388C122920113400A8803
:101A4000CC890D892243CC882C4322434C892243E4
:101A50008C8922431A4302808288094B1A408B8862
:101A6000134383800A8A02820288042349889A43A6
:101A700011430180818B034A1140818330BD0000F6
:101A8000FFF00000FFF70000007B70478288034BE7
:101A90001A40828082880A4382807047FFEF0000EC
:101AA0000173704710B5FEF7D9FE00F03BF8FFF761
:101AB00033F810BD024600200146535C0002491C69
:101AC000C018C9B20429F8D3704710B5FFF73CF825
:101AD000FEF7EAFE00F028F810BD0000084908688B
:101AE000C20242404868086088684860CB688B60E2
:101AF000D80C58405040120A5040C860704700004F
:101B00000000002010B5064C2060FFF7E7FF606082
:101B1000FFF7E4FFA060FFF7E1FFE06010BD000009
:101B2000000000207047000070B50A4E0024250117
:101B3000705DC0070AD0FEF7C1FEA9194A68801A75
:101B40004A88904202D9084601F005FE641C0A2C1E
:101B5000EDDB70BD9C000020F8B51546064600245C
:101B6000134A20460701D75DFF0718D0401C0A28FA
:101B7000F8DB002C1AD0A660E3606180FEF79EFEC1
:101B8000606020786900C007C00F084320704008DB
:101B9000800702D5204601F0DEFD2046F8BD000199
:101BA00084182078012210432070E2E70020F8BD5D
:101BB0009C0000200449020E0A70020C4A70020ABE
:101BC0008A70C870084670471000002013480168EA
:101BD0000122114301604168114A114041600168CE
:101BE000104A114001600168012292049143016092
:101BF00041683F22120491434160C16A0909090109
:101C0000C162016BFF22143291430163416B4908A9
:101C100049004163002181607047000000100240CC
:101C20000CB8FF08FFFFF6FE3EB50A4801902F20D2
:101C30006946088000200881074C4880204600F053
:101C400045F80121204600F02BF80121204600F044
:101C50002AF83EBDE7030000002C01403EB52F20CE
:101C600001900020694608800881074C4880204682
:101C700000F02CF80121204600F012F80121204646
:101C800000F011F83EBD0000002C014010B501210C
:101C9000024800F005F8FEF7ADFE10BD000400405C
:101CA000C943018270470029018802D001221143F3
:101CB00001E04908490001807047002A828901D06B
:101CC0000A4300E08A4382817047000010B5028811
:101CD000144B984206D00124A407A04202D0124C13
:101CE000A04203D17024A2434C8822430F4CA0424F
:101CF00003D00F4C22400C89224302804A68C26202
:101D00000A880285984208D00A4A904205D00A4AB9
:101D1000904202D0094A904201D1897A018601217C
:101D2000818210BD002C01400004004000100040E2
:101D3000FFFC000000400140004401400048014019
:101D400070B50B4D0949284600F044F800280CD026
:101D5000284600F0CEF8044601220821284600F06B
:101D6000CCF8E1B20020FEF74DFE70BD0501050084
:101D70000038014070B50B4D0949284600F02AF89B
:101D800000280CD0284600F0B4F8044601220821AF
:101D9000284600F0B2F8E1B20120FEF733FE70BD34
:101DA0000501050000440040090C01228A4002623E
:101DB00070470029016802D00122114301E049085F
:101DC0004900016070470246D26900200A4200D0F3
:101DD0000120704730B50A04130E01252A4600245D
:101DE0008A40012B0ED0022B0ED08368090C1340C1
:101DF000C0698D402840002B02D0002800D001246B
:101E0000204630BD0368F1E74368EFE710B50B04E7
:101E10001C0E01238B40022C02D0032C02D002E0C6
:101E2000001D00E008300168002A01D0194300E0DD
:101E30009943016010BD000030B5044600688BB0C6
:101E40000D46400840002060606803210903884374
:101E5000A9680143616020681C49EA680840696814
:101E600011432A69024311432160A068032109023A
:101E7000884369690143A1606846FFF795FC1448EF
:101E8000844201D106980AE01248844201D10798A1
:101E900005E01148844201D1089800E002982168C9
:101EA0000904296800D54000FEF73AF92A6852086B
:101EB0008A4200D8401C2168090404D50107074A5A
:101EC000490F10400843A0810BB030BDF3E9FFFF7C
:101ED000003801400044004000480040F0FF00008E
:101EE000826801231B039A43826082680A438260EE
:101EF0007047808CC005C00D7047002A028B01D04E
:101F00000A4300E08A4302837047C905C90D018571
:101F100070470000F0B504461D4885B0807816462D
:101F20000F46012831D10846FEF7A6F900282CD02B
:101F30006A461470C17A5170977001795172C16804
:101F40000391411D6D460622E81CFEF7FFF8694625
:101F50003046FEF7F1FF3046FEF78EF9002814D028
:101F60006A461470C17A5170967001795172C168D5
:101F70000391411D0622E81CFEF7E8F86946384641
:101F8000FEF7DAFF002005B0F0BD0020C043FAE7FD
:101F900014000020014988607047000014000020F0
:101FA000014840787047000014000020F1B500257A
:101FB0002C4620460C2148430D4A06468118886865
:101FC00000280ED0009BE0001C54009A491C871882
:101FD000781C0622FEF7BAF805486D1C805DF87182
:101FE000EDB2641CE4B2052CE3D3E806000EF8BDA4
:101FF0003C01002008B515A000680090FEF7E0FF46
:102000001348FEF7D7FF042269461248FEF7A6FBE5
:102010006846FEF7F7FFFEF7F1F90F48FEF7A4F95F
:10202000FF2206210D48FEF7A3F806220B490C48B3
:10203000FEF794FB09480078FF2805D0022001F044
:10204000EFF8002001F0C0FB08BD000022020313DE
:10205000E938000800F80008CD2A00082400002014
:1020600000F0000803488178012901D0C07870474A
:102070000120704714000020F3B54A4885B040782D
:102080000E4601280AD0052E0ED8002E0CD00120B5
:1020900001F0C6F8FEF712FF00255DE0424943A0BB
:1020A00000F078FA45A06AE03F4940A000F072FADB
:1020B000314649A072E00598405D052867D20C21A1
:1020C00048434B494418A068FEF738F9FF280FD160
:1020D000FEF7F4FBFFF716FDFFF700FDC0B204901A
:1020E0002078631CA2680499FEF7D4F8FF2841D039
:1020F00069460871049888712A4806221030407891
:102100004871284902A816310130FEF71FF84B200C
:10211000771BC0004743FFF7E1FC7D21C900FDF7B5
:10212000FFFFC81987B2380A6946C8710F721E4985
:1021300030A000F02FFA694600978B790A792EA01B
:10214000A16800F027FA38A000F024FA01A9A068DD
:10215000FEF7CAFF6D1CEDB2B542ACD34B20C000F8
:1021600031464143032300223048FFF7F5FC0020AD
:1021700007B0F0BD0C490DA000F00CFA2CA000F047
:1021800009FA29A000F006FA0020C043F0E706494A
:1021900006A000F0FFF90598415D2AA000F0FAF9C9
:1021A000EFE7000014000020813C000825733A5B33
:1021B0002121214552524F525D0000007761697420
:1021C0002C20616C7265616479206275696C646948
:1021D0006E67202E2E2E00006E756D5B25645D20CF
:1021E0006F7574206F662072616E672100000000B9
:1021F0003C01002025733A004164642064657669DF
:102200006365205549443A25782C20616464723A0C
:1022100025642C206B65793A25642C20686254690A
:102220006D653A25640000000A000000993100083D
:10223000646576696365206C6973742066756C6C7F
:102240002121210069645B25645D206F7574206F16
:10225000662072616E672100F3B581B00646029870
:102260000027202801D9781EFEBD00241BE0305D28
:10227000FEF702F8050007D02979305DFEF748FF28
:102280002846FEF72FF80CE009490AA000F082F971
:10229000315D0CA000F07EF910A000F07BF9012761
:1022A000FF43641CE4B202988442E0D33846FEBD8A
:1022B0006D3C000825733A5B2121214552524F5253
:1022C0005D000000646576696365202564206E6F9B
:1022D0007420666F756E6421000000000A00000023
:1022E00010B51E4900244A78E443012A03D08878B7
:1022F00001280CD009E01A491AA000F04BF91DA0E2
:1023000000F048F922A000F045F9204610BD012058
:1023100000F086FF114C10346078FF280AD1FEF7D8
:10232000CDFAFFF7EFFBFFF7D9FB1E21FDF7F8FE13
:102330005A3161703C211748FDF721FFFEF7BEFDC1
:1023400006481630FEF702FF00237D211A46C90019
:102350001148FFF701FC002010BD00001400002010
:10236000953C000825733A5B2121214552524F527A
:102370005D000000776169742C20616C7265616496
:102380007920696E20736561726368202E2E2E009D
:102390000A0000003C010020D936000810B50028D2
:1023A00005D0012000F03CFFFEF788FD10BD02487B
:1023B0004078FEF79FFD10BD2400002010B5FDF70A
:1023C0009BFF0648FEF7B4F9002001F0FDF9044830
:1023D0008078002801D100F023FF10BD00F0000834
:1023E0001400002070B514460D460646FDF744FF64
:1023F000002805D0017923462A463046FEF74AFEDA
:1024000070BD000010B5FEF7EFFD0B4C60780228A0
:102410000FD1A07800280CD1FEF750FAE168401ADD
:102420006168884205D90020FEF7E4FDFEF746FA10
:10243000E060FDF7FBFF10BD1400002010B5002880
:10244000084602D0FDF7BAFF10BDFDF793FF10BD9F
:1024500070B5064600251C491CA000F09BF83146CB
:102460001BA000F097F81EA000F094F81D49002072
:102470000C461034002E1CD001228A7021780029CD
:1024800015D02070FEF71AFA05460020FEF78EFDE3
:10249000C0782818FFF736FBFFF720FB1E21FDF759
:1024A0003FFE5A316170A01CFEF780FD012502201D
:1024B00004E088702078FF28F9D1002000F0B0FEF9
:1024C000284601F081F970BDA63C000825733A004A
:1024D00069734D6173746572203D202564000000AE
:1024E0000A000000140000203EB504460B490CA071
:1024F00000F050F8E078627921796B4607C3A37841
:102500006278217807A000F045F80AA000F042F8B0
:10251000062221460848FDF719FE3EBDCA3C0008C8
:1025200025733A00256325632563256325632563A9
:10253000000000000A0000002A00002010B5044638
:102540000B490CA000F026F821460BA000F022F861
:102550000CA000F01FF80C48002C047001D00B4AAE
:1025600000E00B4A42602046FEF77AFD10BD0000F5
:10257000BB3C000825733A00736C656570203D20F4
:10258000256400000A00000014000020E09304000D
:10259000881300000FB410B503A9044B044A029835
:1025A00000F024F810BC08BC04B018472B2C00081D
:1025B0009000002030B47446641E2578641CAB4241
:1025C00000D21D46635D5B00E31830BC184702E093
:1025D00008C8121F08C1002AFAD1704770470020AE
:1025E00001E001C1121F002AFBD17047FFB591B075
:1025F0000F460546002606E025280AD0149A1399AE
:1026000090476D1C761C28780028F5D1304615B00F
:10261000F0BD002400940121F34A029400E0044339
:102620006D1C2B780846203B98401042F7D1287843
:102630002A280ED0022128780246303A092A15D8D5
:10264000009A0A235A43303A80180C436D1C0090BC
:10265000F1E701CF0090002805DA01204003044390
:10266000009840420090022004436D1C28782E28D8
:1026700015D10420044368786D1C2A280AD101CFA3
:102680006D1C02900BE002990A2251433039401828
:102690006D1C02902878014630390929F3D9287831
:1026A0006C2810D006DC4C281AD068280ED06A2876
:1026B00017D104E0742813D07A2812D110E0012039
:1026C000400504430CE00121090501E0032109054F
:1026D0000C436978814203D10120000524186D1C48
:1026E0006D1C287803906E281ED00CDC632831D036
:1026F00004DC00288AD0582811D1B2E064287BD0AD
:1027000069280CD178E073282DD004DC6F2870D0B4
:10271000702804D1A7E075286CD078286BD0149A63
:1027200013999047761C62E06002400F022807D0A0
:1027300003280AD0042838680AD006603F1D56E0F6
:102740003868F11706604160F8E738680680F5E7F9
:102750000670F3E73878694608740020487404A8C6
:102760000390012003E0386803900020C0433F1D20
:1027700061070FD5002101E00199491C029A0191DE
:10278000914213DA8142F7DB019A0399895C0029AF
:10279000F2D10BE0002101E00199491C0191814235
:1027A000FADB019A0399895C0029F5D10199009817
:1027B000139A401A00902146149B00F03BF90199AE
:1027C0008019461807E0039803990078491C039183
:1027D000149A139990470198401E0190401CF2D121
:1027E0002146149B139A009800F014F986196D1C69
:1027F00009E741E033E034E00A200021049005912C
:102800006002410F022905D001CFC2179446032967
:1028100005D007E0FF1DFF08FF0003CF06E000B270
:10282000C2179446042902D140B2C1178C46002237
:102830006146944506DA0A460021404291418C46A1
:102840002D2102E0210504D52B216A4611760121B4
:1028500003E0E10701D02021F7E7019154E00A20CD
:102860000BE0102009E01020049000210420044314
:1028700008200591029003E00820002105910490B2
:102880006002410F022905D001CF0022944603299E
:1028900006D006E0FF1DFF08FF0003CF8C4603E0D3
:1028A00080B2042900D1C0B20021019121072BD5AB
:1028B0000399702906D0049A1021059B4A401A43B7
:1028C00005D00EE040216A461176012108E06146FC
:1028D000014306D030216A461176039951760221D0
:1028E0000191049A0821059B4A401A430CD1614684
:1028F000014301D1610707D530216A4611760121D4
:1029000001910299491E02910399582904D037A1D7
:1029100003910FA90F910DE039A1F9E76146059BDD
:10292000049AFDF744FC039B8C469B5C0F9A521E55
:102930000F92137061460143F0D10F9807A9081A4E
:1029400020300390600704D50120000484430298DE
:1029500001E0012002900399884201DD401A00E065
:10296000002041180290019809180098401A009020
:10297000E00306D42146149B139A009800F05AF8FD
:1029800086190020049008E006A9085C149A13999F
:1029900090470498401C761C049001998842F3DB10
:1029A000E0030CD52146149B139A009800F042F8DE
:1029B000861904E0149A302013999047761C0299E6
:1029C000481E02900029F5DC08E00F980F99007866
:1029D000491C0F91149A13999047761C0399481E2D
:1029E00003900029F1DCFBE6092801003031323385
:1029F000343536373839616263646566000000003B
:102A00003031323334353637383941424344454624
:102A100000000000F8B5044600251E46174688044D
:102A200004D405E039462020B0476D1C641EF9D55A
:102A30002846F8BDFFB50446002581B01E46C803F0
:102A400001D5302700E02027880404D505E038466A
:102A50000399B0476D1C641EF9D5284605B0F0BD3A
:102A6000034610B50020024604E09C5C2018521C6E
:102A7000C0B292B28A42F8D310BD38B56C4620700D
:102A800000290AD000206070A270E370042322465F
:102A90000021092000F00AFB38BD0120F3E7000007
:102AA00010B5034801781630FEF774FB10BD000026
:102AB0001400002010B50020FEF79CFAFDF7FEFE82
:102AC0000149C86010BD00001400002070B50C461C
:102AD0000546114911A0FFF75DFD002C11D010A291
:102AE000294611A0FFF756FD14A0FFF753FD144A25
:102AF000002D08D0002C29460CD001209268904768
:102B000070BD10A2ECE7002C02D00020D07070BD88
:102B10000120FBE70020F1E7493C000825733A005B
:102B20006F66666C696E65004465762061646472E8
:102B30006573732025643A20257300000A000000A5
:102B4000140000206F6E6C696E650000F1B51748C7
:102B500082B0C168002901D1C0600061C46800274B
:102B6000134EE5681DE021780298814217D1009745
:102B7000637871786268FEF7E1FBE068002805D0B1
:102B80002169C860E06821690161E760606800F060
:102B900055F8204600F052F8B078401EB0702C4630
:102BA000ED6802488442DED1FEBD00008C050020A5
:102BB00054000020F8B517460C460646FDF7FCFC0D
:102BC0003420FDF76FFC002C2CD0BD0828E000213C
:102BD000002D0FD00320225C401E0A431102012861
:102BE000F9DA207801433046241DFDF7B5FC0428AE
:102BF00014D014E0B807800F012803D0022801D0B8
:102C00000328F0D1401EEED4225C0A43012801DDE6
:102C10001102F7E7C30011469940F3E7361D6D1E18
:102C2000002DD4DCFDF784FCF8BD13B50122694604
:102C30000020FDF741FF00981CBD000010B50028E2
:102C400023D0124B0022001F196803E0814203D8F1
:102C50000A4649680029F9D1002A0AD01368841A63
:102C60009C4204D1006818181060104602E05060C1
:102C700000E01860002907D002680B1A934203D1C4
:102C80000B68D21802604968416010BD94000020B2
:102C9000F8B50E4605460024094F0DE0304600F019
:102CA00011F8FDF7FDFD398A3846C90704D0012126
:102CB000FEF7F6FF641CA4B2AC42EFD3F8BD0000EF
:102CC000002C014010B503490978884201D000F07A
:102CD00003F810BD5000002010B506490028087008
:102CE00004D0012801D1FEF79FFF10BDFEF7B6FF0B
:102CF00010BD00005000002010B504460020FFF772
:102D0000EBFF00212046FFF7C3FF10BDF8B5144EBE
:102D10001821307800274843124944182078DD28CC
:102D200015D1207C002812D02079002801D00E4D2A
:102D300000E00E4DFDF7C2FD6169401A6900691897
:102D4000884204D92774726801213078904730781E
:102D5000401CC0B23070202800D33770F8BD00008E
:102D60003000002078010020E09304008813000068
:102D700070B506460D460BA0FFF70CFC002405E0DD
:102D8000315D0CA0FFF706FC641CE4B2AC42F7D343
:102D90000AA0FFF7FFFB2A4631460120FDF78CFE13
:102DA00070BD00004D50726F746F2073656E643A91
:102DB0000000000025303278200000000A000000EA
:102DC000F0B5064689B04809CF0608900D46FF0EBB
:102DD0001CA0FFF7DFFB002405E0315D1BA0FFF71F
:102DE000D9FB641CE4B2AC42F7D31AA0FFF7D2FBC4
:102DF000194881780120FDF771FF002409E0600186
:102E000080192021FDF7ECFF3220FFF775FF641CCD
:102E1000E4B208988442F2D3002F0CD0E81B811949
:102E20003A466846FDF792F920216846FDF7D8FF3B
:102E30003220FFF761FF084881780020FDF74EFF40
:102E400009B0F0BD53656E643A0000002530327859
:102E5000200000000A0000005C000020FEF722FEB7
:102E6000FEF733FEFCE70000F0B50B30C108C900E7
:102E7000144F0026144A0FE003688B420BD38B4299
:102E800005D95C1A4318456830C3083B00E0436825
:102E9000136002C004E0021D10680028ECD1304627
:102EA000002803D13868002801D00020F0BD064A70
:102EB00006481060064A121AD208D20044C0012007
:102EC0003860D7E79800002094000020BC0600205E
:102ED000B80E0020F0B5C1B06E46CDB20927030090
:102EE000FFF768FB08050C21424242292E42C8B276
:102EF000FDF7C2F9040037D0012105E0C8B2FDF7A3
:102F0000BBF9040030D000216A4611705570B01C26
:102F10000622611DFDF71AF920796A461072012117
:102F20003B4608201EE03046FFF740F803460121EB
:102F30006A46032016E009230A460121184611E0DB
:102F40000C460978317061787170A178B170A278FF
:102F5000F01C6168FDF7FAF8A0786A46C01CC3B29D
:102F60000121072000F0A2F841B0F0BDFFB50646F0
:102F7000C1B014460F4644A0FFF70CFB002505E046
:102F8000615D45A0FFF706FB6D1CEDB2BD42F7D3B6
:102F900043A0FFF7FFFA002F07D0002E05D0002333
:102FA0001A461946184600F081F83300FFF702FB75
:102FB0000D08212E32353A1F3F1F45555E691F000F
:102FC0003848C468844200D10024002C0FD0E06847
:102FD000002806D02169C860E068216901610020ED
:102FE000E0606068FFF72AFE2046FFF727FE45B045
:102FF000F0BD2046FFF778FAA079FFF729FAE079CB
:10300000FFF79CFA284901204870F0E72078FFF785
:10301000C5F9ECE7FFF764F9E9E720464499FFF7C3
:103020002BF8E4E720464499FFF716F9DFE76278CA
:103030002078A11CFFF7D6F9D9E7A278617820782B
:10304000FEF768FF0028A3786278207801DA002173
:1030500000E00121FFF711FDC9E769460020FFF7F5
:10306000EDF9034600216A460A2007E0694601207F
:10307000FFF7E4F903466A4600210B2000F016F83A
:10308000B5E7FFF79BF9B2E74D50726F746F20728E
:103090006563763A00000000253032782000000099
:1030A0000A0000007805002038000020F0B50C462A
:1030B000C1B001466E46FC2017461D4632463070B0
:1030C000002C01D0802000E0002008435070957053
:1030D00029463846FFF7C4FC6946C8702A46394677
:1030E000301DFDF733F82D1D002C1ED01420FFF7E6
:1030F000BBFE0446032020700020A060E8B2607090
:10310000FFF7B2FE606062786946FDF71FF8094874
:10311000C168002901D1C0600061E0600169CC6034
:1031200001692161046141B0F0BDE9B26846FFF771
:103130001FFEF8E77805002010B51648C4688442E1
:1031400000D10024002C12D0FDF7B8FBA168401A72
:10315000C8280CD9207800280AD061786068FFF769
:1031600007FE2078401E2070FDF7A8FBA06010BD70
:10317000E068002806D02169C860E0682169016123
:103180000020E0606068FFF759FD2046FFF756FD1C
:1031900010BD00007805002010B5C4B20C490DA088
:1031A000FFF7F8F90CA0FFF7F5F90CA0FFF7F2F91B
:1031B000022000F035F80A484078FDF79BFE0848E9
:1031C00010388268002A02D000212046904710BDA6
:1031D0003C3C000825733A00000000000A00000093
:1031E0002400002070B51478551CFEF763FC0146DE
:1031F0000A480078002809D0012C08D0022C09D0F8
:10320000032C03D12A46022000F024F970BD2A467F
:103210000020F9E72A460120F6E7000054000020CC
:1032200070B5064C05466078A84205D0A268002A11
:1032300002D0294605209047657070BD140000201B
:1032400070B515460C46FDF717F8002805D0C07A72
:103250002730C043C2B200200FE0094909A0FFF7A0
:1032600099F90CA0FFF796F90FA0FFF793F970BD3D
:10327000215C51402154401CC0B2A842F8D370BD1B
:10328000193D000825733A5B2121214552524F52C6
:103290005D0000006B6579206E6F7420666F756E3F
:1032A00064212121000000000A00000010B504463E
:1032B000002901D0FFF74AFC00222146052000F03A
:1032C000C9F810BDFFB585B01D785C1C0E9F164671
:1032D000002A04D13A4619460598FFF7B1FF06982F
:1032E000002802D00598FFF731FC042D0FD0052DE2
:1032F00011D0062D09D1684606707F1E47706A46B8
:1033000001940620059900F0A5F809B0F0BD00224F
:1033100003200599F7E7207869460870607888707F
:10332000A01CFEF7C7FB039000A8A11D06220330D6
:10333000FCF70CFFA07969464872E07948706A464C
:1033400004200599DFE7000010B51148C4688442E5
:1033500000D10024002C1AD0FDF7B0FAA168401A61
:103360000C49884213D9E068002806D02169C8605A
:10337000E068216901610020E0606068FFF75EFCA1
:103380002046FFF75BFC04498878401E887010BD1A
:103390008C05002068A7040054000020F7B5194DE3
:1033A0000746A87816460A280AD3174917A0FFF738
:1033B000F1F817A0FFF7EEF81AA0FFF7EBF8FEBD43
:1033C0001420FFF751FD0770044646703046FFF7A2
:1033D0004BFD606032460199FCF7B8FEFDF76EFACE
:1033E000A0601148C168002901D1C0600061E0609F
:1033F0000169CC60016921610461A878401CA87052
:10340000FEBD000054000020263D000825733A0050
:10341000736C6565702063616368652066756C6CAC
:10342000210000000A0000008C05002010B5FEF706
:10343000B7FD4400FEF716FE05492018CA78C0B251
:10344000904202D0C870012010BD002010BD0000C5
:1034500038000020024B5B68002B00D018477047F3
:1034600054000020F8B50E460446154600210420FD
:10347000FDF7E4F92046FDF779FA0746002405E058
:10348000FF20FDF773FA3055641CE4B2AC42F7D369
:1034900001210420FDF7D2F93846F8BD10B50446E5
:1034A00000210420FDF7CAF92046FDF75FFAFF204E
:1034B000FDF75CFA044601210420FDF7BFF9204620
:1034C00010BDF8B50E460446154600210420FDF750
:1034D000B5F92046FDF74AFA0746002404E0305DBE
:1034E000FDF744FA641CE4B2AC42F8D30121042095
:1034F000FDF7A4F93846F8BD70B50D460446002125
:103500000420FDF79BF92046FDF730FA04462846D3
:10351000FDF72CFA01210420FDF790F9204670BD3B
:1035200010B504090207120F01209040888008613D
:103530004A732300FFF73EF806040A0E12171B20F9
:103540000920C00608600120400414E00B48086010
:10355000000210E00A48086000020CE00948086018
:103560000120000507E008480860400203E0074822
:10357000086001208005886010BD0000000400483C
:1035800000080048000C00480010004800140048E3
:1035900070B51C48C468844200D10024002C2FD090
:1035A000FDF78CF9A168184D411A2889C83081426D
:1035B00026D9A1786068FFF703FC6078401C607032
:1035C000FDF77CF9A060FDF779F9FEF79BFAFEF7AD
:1035D00085FA6421FCF7A4FD2981607803280FD3C4
:1035E000E068002806D02169C860E06821690161AF
:1035F0000020E0606068FFF721FB2046FFF71EFB1C
:1036000070BD0000A00500205C000020F8B5074652
:1036100015460E461420FFF727FC044607700020CD
:103620006070A570A0602846FFF71EFC2A46314650
:103630006060FCF78BFD0648C168002901D1C060BD
:103640000061E0600169CC60016921610461F8BD3D
:10365000A005002070B588B020216846FCF78FFDDA
:10366000FDF71CFB002827D06846FDF79CFB0028CF
:1036700022D1FDF723F9164C0025A169401A6428D0
:1036800000D9E570FDF71AF9A061124B00206E46D3
:10369000E278315C9954521CD2B2E270012A0DD00A
:1036A0000C2A0FD061790D318A420CD1D1B2094870
:1036B000FDF78CFEE570657108B070BDA52902D0DC
:1036C000E57000E06171401CC0B22028E0D3F3E750
:1036D0005C000020B405002010B50548FDF736FD5C
:1036E0007D2102230022C9000248FEF735FA10BDF1
:1036F0002A00002099310008F8B500270E4E052356
:103700000C245C43A419803CE46F002C01D15D1EA5
:10371000EDB284420ED05B1E1B061B0EF0D1002FB3
:1037200008D10C235D437255AB1998600622581CD2
:10373000FCF70CFDF8BD00003C010020034610B56D
:103740000020024604E09C5C2018521CC0B2D2B299
:103750008A42F8D310BD10B5044600784108CA0764
:1037600006D0FDF7ABF86060A168E068884710BD3F
:10377000490703D4400840002070F5E70020C0430B
:103780006080F1E710B50A490AA0FEF703FF0AA01E
:10379000FEF700FF09A0FEF7FDFE094C2046FCF7EE
:1037A000C7FF0322120207492046FCF7DFFF10BDC6
:1037B000DA3C000825733A00000000000A0000000F
:1037C00000F400087801002070B50B4C0546A01CE1
:1037D000FDF742FC2078FDF73BFC0020FEF7DEFD04
:1037E000002D08D0054C2046FCF7A2FF0622024916
:1037F0002046FCF7BBFF70BD2400002000F000084D
:10380000F7B586B00646154600210798FEF7D1FAAF
:103810001D4F002D04D1002239460798FEF7F6FA15
:10382000307901242403012817D0022819D0002060
:1038300001463268019000200092029005900C2011
:103840000391049069460798FEF7F6FA2146079817
:10385000FEF746FB002D08D010E00121204689022A
:10386000E7E7032120464902E3E739460798FEF7D8
:103870009BFA012239460798FEF7C8FA01210798FA
:10388000FEF797FA09B0F0BD05010500FEB5044644
:10389000807A0125002808D1217860786A46117263
:1038A0005072957202A8FDF7E1FAA18801226069C1
:1038B000FCF7DBFE218901226069FCF7D6FEE08877
:1038C0000090022669460E7100208871CD71032098
:1038D00048716069FCF791FE6088694600900E713E
:1038E0006069FCF78AFEFEBDF0B5974F0646B878D2
:1038F0008BB014460D46012802D0002809D013E0F1
:10390000300011D0022E0FD0032E0DD0042E0BD07C
:1039100002E03046012E07D00300FEF74BFE0712EF
:10392000324E839AD8F31000884989A0FEF732FE00
:10393000314688A0FEF72EFE8AA0FEF72BFE0BB0C4
:10394000F0BD824982A0FEF725FEE07862792179F8
:103950006B4607C3A3786278217883A0FEF71AFE2E
:1039600080A0FEF717FEFCF7A9FFFEF7CBF8FEF7E5
:10397000B5F819214901FCF7D3FB2B4600228448F6
:103980004DE0724972A0FEF705FEA07961792279B7
:103990000495019202910390E0780090A3786278F8
:1039A00021787CA0FEF7F6FD6EA0FEF7F3FDA2796C
:1039B00021462846FFF7A0FEC1E7634E2078103667
:1039C0003070607870700846FEF7F4F80146042203
:1039D000B01CFCF7BBFBE07821790002401886B2EE
:1039E0005A495BA0FEF7D6FD0096A378627821784D
:1039F0007848FEF7CFFD5BA0FEF7CCFD00200090DD
:103A0000A178631D2A46FCF77FFC0120FFF7DCFE4E
:103A10000220FFF705FC00231A4631466E48FEF7E8
:103A20009BF88CE749494AA0FEF7B4FD6BA0FEF76E
:103A3000B1FD4CA0FEF7AEFD4348FF220621103039
:103A4000FCF796FB0120FFF7BFFE0020FFF7E8FB25
:103A500075E73E493EA0FEF79DFDA079227AE17907
:103A600003ADE3680FC5E078627921796B4607C33F
:103A7000A378627821785E48FEF78CFD39A0FEF7C6
:103A800089FD2078002808D0607A00906178A078BD
:103A9000E31CE268FCF738FC04E0A078FCF7ECFBE0
:103AA000FCF720FCBD68002D86D020786946087799
:103AB000A0784877607A08A9087107A80622E11C57
:103AC0000230FCF743FB07A90620A84737E7E8B216
:103AD000FCF7D2FB0028A4D01C491DA0FEF75AFD1C
:103AE000294644A0FEF756FD1EA0FEF753FDE8B29E
:103AF000FCF7A0FCB878012893D1E8B2FDF77AFA78
:103B00001DE7FFE7E8B2FCF7B7FB002889D0E8B271
:103B1000FCF790FC0D490EA0FEF73CFD29463FA0A6
:103B2000FEF738FD0FA0FEF735FD69460D702078D1
:103B300048706078887060680190BA68002A87D001
:103B400007209047FBE6000014000020573C0008C7
:103B500025733A0069676E6F7265206576656E74CD
:103B6000202564000A0000004E45545F4556454E2E
:103B7000545F5345415243483A206D6173746572F6
:103B800020256325632563256325632563000000E5
:103B9000A12A00084E45545F4556454E545F4445A2
:103BA000565F494E464F3A207375624465762074DD
:103BB0007970653A2563256325632563256325634D
:103BC0002C20736C6565703A25642C207569643A05
:103BD00025780000B43D0008B52A00084E45545F22
:103BE0004556454E545F4445565F44454C202100A0
:103BF000003E00084E45545F4556454E545F4445CF
:103C0000564943455F48454152544245415420730B
:103C1000756241646472203D202564004E45545F06
:103C20004556454E545F555345525F4441544120DB
:103C300066726F6D205B25645D0000006E657442E6
:103C400075696C64446F6E6500646D4576656E746D
:103C500048616E646C6500776D4E65746C61796562
:103C6000724576656E7448616E646C6500574D4EA2
:103C700065744275696C6444656C44657669636516
:103C800000574D4E65744275696C644164644465C7
:103C90007669636500574D4E65744275696C64536F
:103CA000656172636800574D5365744D6173746547
:103CB00072536C6176654D6F646500574D53657442
:103CC000536C6565704D6F646500574D5365744D59
:103CD0006F64756C655479706500757064617465A6
:103CE000446576696365496E666F546F466C6173AF
:103CF0006800444D55706461746548656172746212
:103D000065617400464C4153485F49525148616EA9
:103D1000646C657200FFFFFFFF6E6574456E44655D
:103D20006372797074006E6574536C656570446578
:103D3000764461746153617665004E6574427569BD
:103D40006C645374617274004E65744275696C647E
:103D500053746F70004E6574536574536C65657071
:103D60004D6F6465004E65745365744D61634164C5
:103D70006472004E65746275696C64536561726348
:103D80006844657669636500FFFFFFFF504859533B
:103D900077697463684368616E6E656C005048595A
:103DA000496E697469616C697A6500344310103436
:103DB000431010004E45545F4556454E545F4445F0
:103DC000565F4144443A206D7920616464726573A2
:103DD00073203D2025642C2072664368616E6E65F9
:103DE0006C203D2025642C206B6579203D202564C6
:103DF0002C20686274696D65203D202564000000F8
:103E00004E45545F4556454E545F434F4F524449CB
:103E10004E4154494F4E3A206275696C643D2564A9
:103E20002C206B65793D25642C206E65744164649B
:103E3000723D25642C20747970653D2563256325CA
:103E4000632563256325632C207569643D25640023
:103E5000703E0008000000209C000000CE250008F5
:103E60000C3F00089C0000201C120000DE2500080A
:103E700015CD5B07043BD8218C0A2913D20400001E
:103E8000000000000000FF00881300000000000098
:103E90000000000000000000000000000000000022
:103EA0000000000000000000000000000000000012
:103EB0000000000000000000010000000000000001
:103EC00000000000000000000000000000FF0000F3
:103ED000FF00FFFF000000000000000000000000E5
:103EE00000000000000000000000000000000000D2
:103EF0000000000001020304010203040607080990
:0C3F0000000000000000000000000000B5
:04000005080000B53A
:00000001FF
