:020000040800F2
:10000000D00B0020C9000008EF000008F100000834
:1000100000000000000000000000000000000000E0
:10002000000000000000000000000000F3000008D5
:100030000000000000000000F5000008F7000008C4
:10004000F900000800000000F9000008D5030008CE
:10005000F9000008F9000008F9000008F90000089C
:1000600000000000F9000008F9000008F90000088D
:10007000F9000008F9000008F9000008000000007D
:10008000311700080000000000000000F90000081F
:10009000F9000008F9000008F9000008F90000085C
:1000A000F9000008F9000008F9000008E517000849
:1000B000111800080348854600F0AAF800480047D8
:1000C00091260008D00B00200C4880F308880C48CB
:1000D0000168090E0B4A914205D10B480B4901609A
:1000E0000B480C4901600C4880470C480047FEE76C
:1000F000FEE7FEE7FEE7FEE7FEE70000D00B00208C
:10010000040000001F000000181002400100000061
:10011000000001400000000071160008B500000852
:1001200030B50B46014600202022012409E00D468F
:10013000D5409D4205D31D469540491B2546954017
:1001400040191546521E002DF1DC30BD03460B430D
:100150009B0703D009E008C9121F08C0042AFAD27D
:1001600003E00B780370401C491C521EF9D2704703
:10017000D2B201E00270401C491EFBD2704700223F
:10018000F6E710B513460A4604461946FFF7F0FF96
:10019000204610BD30B504460020034600E05B1C3D
:1001A000934203D2E05CCD5C401BF8D030BDF0B58B
:1001B0001FB40646002082B00546402401910090FD
:1001C0001BE0019922460F46304600F043F8049A9E
:1001D000059B801A994110D310461946224600F01B
:1001E00029F8361A8F410197224601200021009FED
:1001F00000F020F838184D4100902046641E002879
:10020000DFDC019B00982946324607B0F0BD0000B4
:10021000064C0125064E05E0E36807CC2B430C3C59
:1002200098471034B442F7D3FFF748FFFC33000877
:100230001C34000810B5202A04DB0146203A914006
:10024000002010BD914020239C1A0346E34019432F
:10025000904010BD10B5202A04DB0846203AD0405B
:10026000002110BD0B46D340D0402024A21A91405B
:100270000843194610BD00001F2805D8182148431F
:1002800003490A5CDD2A01D00020704740187047FE
:1002900064010020F8B50E461049074601241820D5
:1002A0006043085CDD2812D01820DD2560430D5422
:1002B00045182F71EE72EA60681D06221946FFF795
:1002C00045FF002028616861A8612046F8BD641CD4
:1002D000E4B2202CE3D3FF20F8BD0000640100202D
:1002E00010B5002803D0FF221821FFF741FF10BDF1
:1002F00070B518246043094C049D0419DD2020705A
:100300002571E172E26006221946601DFFF71EFFAB
:10031000002020616061A06170BD000064010020C8
:1003200010B50346084A002018214143545CDD2CD7
:1003300003D18918C968994204D0401CC0B2202852
:10034000F2D3FF2010BD0000640100200149486085
:100350007047000038000020704710B502F018F90F
:1003600010BD000010B50346FFF786FF04000DD056
:10037000207C002806D101200A4A207452680021FE
:100380001846904700F05AF9606110BD064907A071
:1003900001F0B2FD09A001F0AFFD0DA001F0ACFD30
:1003A00010BD0000380000209E32000825733A5B23
:1003B0002121214552524F525D000000646576694B
:1003C0006365206E6F7420666F756E642121210055
:1003D0000A00000010B5024902A001F08DFD10BD19
:1003E000B0320008257320456E7472792121210AEC
:1003F00000000000044910220028086801D01043C2
:1004000000E090430860704700200240034A1168F2
:100410004908490001431160704700000020024074
:10042000F0B50022032501230C6893401C409C4238
:100430002AD10C79012C01D0022C12D187685400EA
:100440002E46A640B74387604E79A640846826436F
:10045000866084889C43848084888B7993401C4385
:100460008480066853002C469C40A64306600E79A3
:1004700007689E403E430660C668A643C660CC79C6
:100480009C40C3681C43C460521C102ACBD3F0BDEF
:100490004B07DB0E9A40C90810B589000818016A9D
:1004A0000F249C40A1430162016A1143016210BD07
:1004B0000246128A00200A4200D001207047002A1A
:1004C00001D0816170470185704710B500F090FE42
:1004D000012000F0A3FF00F0D9FF0120FFF78AFF01
:1004E0000120FFF793FF002000F08EFF002000F0B6
:1004F0009DFF0521C904002000F0B0FF012000F09D
:100500009FFF192000F05EFF0028FAD0022000F0C3
:10051000B3FF00F071FF0828FBD103200121400444
:1005200000F042FE0121880300F056FE012148043C
:1005300000F046FE0121022000F042FE0121C80227
:1005400000F04AFE0121080300F046FE01210846A2
:1005500000F042FE10BD7047704700B585B03028EE
:1005600002D9002005B000BD694602F079FA68465C
:1005700081880098FFF79CFFF4E710B588B00C461F
:10058000302818D802A902F06BFA694688890090D1
:10059000032048710020002C02D0012C02D0022040
:1005A000087104E001216A461171D17190716946A8
:1005B0000298FFF735FF08B010BD7047704710B5BF
:1005C00086B00C46302808D8694602F049FA6846D9
:1005D000818822460098FFF772FF06B010BD0EB565
:1005E000FFF773FF00F09CF8FFF7E7FF00F0DAF881
:1005F00000F02AF8FFF7AFFFE12040020090002052
:1006000069460871029000F0BDF80EBD034900284C
:10061000087001D062B6704772B670474000002083
:1006200010B500F01DF910BD10B5FFF7C7FF00F0C1
:100630005BF8FFF791FF00F0F1F810BD014840684A
:10064000704700004000002030B587B020200590A2
:100650000320694648760220087600248C76012023
:10066000C8760925ED0605A92846FFF7D9FE8021A1
:10067000059105A92846FFF7D3FE4021059105A95C
:100680002846FFF7CDFE002220212846FFF700FF75
:10069000002240212846FFF7FBFE00228021284649
:1006A000FFF7F6FE6946FF200C80053048800720E2
:1006B00000028880CC8001200C81400248811020FB
:1006C0008881CC810720074C0882204600F004FF77
:1006D000A114204600F02CFF0121204600F0ECFE82
:1006E00007B030BD003001407047000070B50B4CC2
:1006F00005460221204600F0E8FE0028F9D02946F0
:10070000204600F01FFF0121204600F0DEFE0028F9
:10071000F9D0204600F00AFF70BD00000030014013
:100720001FB51020694608730220487301208873A2
:1007300003A800F0A5F90D4801902F206946088014
:10074000002008810A4C4880204601F011F8012160
:10075000204600F0F7FF01221146204600F0FFFF7F
:100760000121204600F0F1FF1FBD0000E70300005B
:100770000004004002484168491C41607047000085
:100780004000002010B50B46032807D24101044861
:100790000818827A0169184602F040FB10BD00007B
:1007A0006404002070B51A480926E125F6066D029A
:1007B000466100240121C5608902846141800A21CB
:1007C000818001214902C180092101811B21017021
:1007D0004470104901618472C46102F065FB0C48E9
:1007E00008214663C5628463418403218184042116
:1007F000C184022101851C2120300170012141703A
:10080000054901618472C46102F04EFB70BD0000B5
:10081000640400200038014000440040704700009C
:10082000F8B50E460C4900244001174645180BE068
:10083000315D286901F0B3F88021286901F00DF8D5
:100840000028F9D0641CA4B2BC42F1D30349286942
:1008500000F0F4FF3846F8BD6404002006010600ED
:100860000249014808607047AAAA00000030004011
:100870001CB50EA003C801910090052269463020E6
:1008800002F0BFF805226946102002F08BF8002024
:1008900069460A5CA52A03D1401CC0B20528F8D3DA
:1008A000052801D000201CBD01201CBDA5A5A5A5C3
:1008B000A500000010B50120FFF74FFE002801D071
:1008C000002010BD012010BD10B501211020FFF740
:1008D00054FE01210420FFF750FE00210120FFF704
:1008E0004CFE00211020FFF76AFE01210420FFF7D3
:1008F00066FE10BD70B50D46044600211020FFF7BE
:100900005EFE0D21202002F097F801211020FFF754
:1009100056FE1E2001F032FE002C32D000211020A5
:10092000FFF74DFE04222B49302002F06AF82949D6
:100930000422091D2A2002F064F80221232002F07B
:100940007BF80021212002F077F80121222002F01B
:1009500073F80021242002F06FF82946252002F0C8
:100960006BF82721262002F067F80A21202002F0E8
:1009700063F801211020FFF722FE962001F0FEFD12
:1009800070BD00211020FFF71AFE12490422091D34
:100990002A2002F036F80221232002F04DF800212F
:1009A000212002F049F80121222002F045F800211F
:1009B000242002F041F82946252002F03DF82021AC
:1009C000312002F039F82721262002F035F80B21DA
:1009D000CCE7000057330008704770B50546072084
:1009E00001F0FCFF04460146272002F025F86006CE
:1009F0000ED520222946612001F0D4FFFF21E220FC
:100A000002F01AF8FF21E12002F016F8002070BD74
:100A1000012070BD70B50C46054600211020FFF77F
:100A2000CEFD0020FFF7F2FD22462946A02001F06E
:100A3000E8FF01211020FFF7C2FD0120FFF78DFD27
:100A40000028FAD1072001F0C9FF044601462720FB
:100A500001F0F2FFFF21E22001F0EEFF0120FFF79D
:100A6000D5FDE00605D5FF21E12001F0E5FF1020CE
:100A700070BDA00601D5202070BDFF2070BD000014
:100A800030B5827801240178002A15D08B080E4AEF
:100A90009B009A1813688907C90EFF258D40AB4348
:100AA0004578AD072D0E8D401D4315600078C006BA
:100AB000C00E8440054804E0C806C00E84400348C8
:100AC0008030046030BD000000E400E000E100E0A0
:100AD00010B5084908A001F00FFA08A001F00CFABF
:100AE00007A001F009FA0749012008707D2000F0F5
:100AF00039FB10BDE632000825733A000000000003
:100B00000A0000004C00002010B50446084909A066
:100B100001F0F2F9214608A001F0EEF909A001F078
:100B2000EBF9094B00221A70204600F01BFB10BDA8
:100B3000F432000825733A00776F726B2063683ACD
:100B4000256400000A0000004C00002010B500F0F1
:100B50002BF910BD01494860704700004C0000208F
:100B600010B50548C060006100F02AF90349044847
:100B700000F0A6F910BD0000A40400205D270008C5
:100B80002528000810B500F089FA01F091FE10BD8B
:100B90001CB506216A46117101210B4600910349DB
:100BA00001AA497800F04AF91CBD00004C00002061
:100BB00038B5044609490AA001F09EF9E078009092
:100BC000A3786278217807A001F096F90AA001F0D5
:100BD00093F9204600F06AFA38BD0000113300088E
:100BE00025733A00253032783A253032783A25306C
:100BF00032783A25303278000A00000010B500F053
:100C000077FA10BD10B500F089FA10BD10B5044692
:100C1000064907A001F070F9214606A001F06CF921
:100C200005A001F069F90548447010BD01330008C2
:100C300025733A00256400000A0000004C000020E3
:100C40003EB5044603206A46107000A80B2201300E
:100C5000FFF77CFA204600F0FFFC00230C226946D7
:100C600000F05AF83EBD00007CB50C460546012256
:100C700001A901F0A1FD042268460271002C05D0F3
:100C8000012201A9284601F03DFE7CBD0020044957
:100C90000090012301AA4978284600F0CFF87CBDD6
:100CA0004C0000201CB504460C490DA001F024F9AD
:100CB0000CA001F021F90CA001F01EF901226846F8
:100CC000027006222146401CFFF740FA0348002329
:100CD000072269465E3800F01FF81CBD1F3300086C
:100CE00025733A00000000000A0000001CB50C4605
:100CF00002216A461170014600A806220130FFF762
:100D000025FA6A46D471012308226946014800F099
:100D100003F81CBDC1320008FFB5C1B06C46A52068
:100D20002070012060701546A01C1E460746042254
:100D30004199FFF70BFA04221949381DFFF706FA0B
:100D400017496A46103908789072401C0870D572AD
:100D500020462A460C304299FFF7F8F928460C3015
:100D6000C4B22146684601F075FF694608550C3546
:100D7000ECB2641C002E0ED104220A494198FFF700
:100D800009FA002807D06846E2B2807A694601F085
:100D9000CDFE45B0F0BDE1B2684601F02BFCF8E7AE
:100DA000640000203433000810B5002803D004226A
:100DB0000249FFF7CBF9014810BD00006400002094
:100DC00010B50F48C0600061FFF77EFDFFF750FDD2
:100DD000002809D10B490CA001F08EF80BA001F0FE
:100DE0008BF810A001F088F8064907A001F084F8FC
:100DF0000DA001F081F80BA001F07EF810BD0000FD
:100E0000B80400204933000825733A00504859209F
:100E1000646576696365206E6F7420666F756E64B5
:100E2000212121000A00000050485920646576699C
:100E3000636520696E6974206F6B2100FFB5C1B0D6
:100E400006466D46A5204A9F1C462A462870002962
:100E500001D0802000E00020507004221749A81C17
:100E6000FFF774F915496A46967114394878D071BC
:100E700008789072401C0870D472284622460C30C4
:100E80004399FFF763F920460C30C5B229466846FE
:100E900001F0E0FE694648550C34E0B2401C002FDA
:100EA00007D1FF2E05D0C2B2887A01F03FFE45B0CF
:100EB000F0BDC1B2684601F09DFBF8E76800002074
:100EC000014AD1609060704754000020F3B58DB0A6
:100ED00000270546089740783E464006400E099098
:100EE000012812D0AE1C04225C493046FFF752F9AB
:100EF00000281AD15949307914394978884220D1CB
:100F000070790090A87A01901FE05449AF1C042228
:100F1000091F3846FFF73EF9002808D0042250493F
:100F20003846FFF737F900280DD00FB0F0BD00208C
:100F30000090A87A01900422391D4848FFF706F96D
:100F400003E0FF28F1D10120089046A000F0D4FF73
:100F5000002405E0295D45A000F0CEFF641CE4B24A
:100F60000E988442F6D343A000F0C6FF08980028EC
:100F70002AD10998022827D0009C01980A9000A83D
:100F800002300B903CA00A9900F0B6FFA5206946FC
:100F9000087002204870042230490B98FFF7D6F8F9
:100FA0002E4869468C7114384078C8710A98887246
:100FB0000020C8720C21684601F04CFE6946087397
:100FC0000D21684601F016FB0998002808D0012879
:100FD00016D00228A9D12B49C86800281CD01DE0D2
:100FE0001E4814388468002C9FD0E87A00906878F6
:100FF0002B46C109C90170790C33089AA04794E7C0
:1010000016481438C468002C8FD02A460C32EB7A6C
:10101000381D0899A04788E7C9600961CC6819E0C4
:101020002278AB7A9A4214D1D9B217A000F064FFAB
:10103000E068002806D02169C860E0682169016184
:101040000020E060606801F03BFA204601F038FAC9
:101050006BE70446E0688C42E2D166E76800002056
:1010600034330008526563763A0000002530327848
:10107000200000000A00000061636B207069643A80
:1010800025640A00B80400207265637620706964E4
:101090003A25642061636B0A0000000010B5FFF779
:1010A0009BFC01F015FD01F065FD10BD38B504464F
:1010B000C0780090A3786278217804A000F01CFF2B
:1010C000042221460948FFF741F838BD53657420D2
:1010D0004D61633A253032783A253032783A2530FE
:1010E00032783A253032780A00000000640000208F
:1010F00010B50446014603A000F0FEFE0648447009
:1011000010BD0000536574204E6574204164647204
:101110003A25640A000000005400002038B5044657
:10112000C0780090A3786278217804A000F0E4FEF3
:10113000042221460A48FFF709F838BD5365742098
:10114000736567416464723A253032783A253032EB
:10115000783A253032783A253032780A000000009B
:101160006800002010B5044608482146847000201D
:10117000FFF7C0FB064907A000F0BEFE214606A00F
:1011800000F0BAFE07A000F0B7FE10BD540000202A
:101190003833000825733A006368616E6E656C3AF7
:1011A000256400000A000000044A0029516901D0AA
:1011B000014300E08143516170470000001002408C
:1011C000044A0029D16901D0014300E08143D16183
:1011D0007047000000100240044A0029916901D0C4
:1011E000014300E08143916170470000001002401C
:1011F000124801680122114301604168104A114000
:10120000416001680F4A11400160016801229204A7
:101210009143016041683F22120491434160C16AD9
:1012200009090901C162016B074A11400163416B61
:101230004908490041630021816070470010024065
:101240000CB8FFF8FFFFF6FEACFEF0FFF8B5564E07
:101250000446706800210C22544D104005D004282B
:1012600003D0082803D00C281AD025601AE0716832
:10127000706803228902D2030F0F1040BF1C0028A0
:101280000AD0F06A0107090F2846491CFEF748FFFB
:1012900078430146216005E0454839464143F9E776
:1012A000444820607068444F0006000F3B5C206893
:1012B0000246DA40626073685B055B0FFB5CDA40F4
:1012C000A260336BDB0501D43C4B05E073685B0423
:1012D00001D4530800E09308E360336B5F06384B9A
:1012E00003D4374F1237276100E02361376BFF06C5
:1012F00001D4656100E06061376BBF070ED0376BCA
:10130000BF07BF0F012F0BD0376BBF07BF0F022FD7
:1013100008D0376BFF43BF0706D006E0A26104E0A8
:10132000A06102E0A36100E0A561376BBF03BF0FBE
:101330000FD0376BBF03BF0F012F0CD0376BBF032C
:10134000BF0F022F09D0376BBF03BF0F032F06D08B
:1013500006E0E26104E0E06102E0E36100E0E561F3
:10136000376B3F03BF0F0FD0326B1203920F012A6E
:101370000CD0306B0003800F022809D0306B0003C3
:10138000800F032806D006E0226204E0206202E01B
:10139000236200E02562306B000602D405486062DB
:1013A000F8BD6162F8BD00000010024000127A0032
:1013B00000093D00006CDC026C000020809FD5001D
:1013C00000800000034600200A4A59090CD0012978
:1013D0000CD002290CD0516BDA06D20E01239340B7
:1013E0000B4200D0012070471168F5E7116AF3E75E
:1013F000516AF1E700100240024840680C210840A1
:101400007047000000100240034A5168F0239943DE
:101410000143516070470000001002400249002261
:101420008A7088707047000000100240034A5168BB
:1014300007231B029943014351607047001002408B
:101440000122054912060028086801D0104300E077
:1014500090430860704700000010024010B5054A34
:1014600053687B24E403A343536053680843034356
:10147000536010BD00100240034A5168890889007A
:1014800001435160704700000010024018B5002071
:101490000524240300901120FFF794FF0099491CB4
:1014A0000091A14201D00028F5D01120FFF78AFF5A
:1014B000002800D0012018BD40220029018801D059
:1014C000114300E0914301807047024612890020D9
:1014D0000A4200D00120704730B50388C122920132
:1014E00013400A88CC890D892243CC882C4322439F
:1014F0004C8922438C8922431A4302808288094BFB
:101500001A408B88134383800A8A0282028804234C
:1015100049889A4311430180818B034A114081839A
:1015200030BD0000FFF00000FFF70000007B7047B7
:101530008288034B1A40828082880A4382807047E7
:10154000FFEF00000173704710B5FFF748F800F097
:101550003BF800F04FFA10BD024600200146535CF4
:101560000002491CC018C9B20429F8D3704710B54D
:1015700000F004FCFFF758F800F028F810BD000058
:1015800008490868C20242404868086088684860A4
:10159000CB688B60D80C58405040120A5040C8604D
:1015A000704700000000002010B5064C2060FFF7D7
:1015B000E7FF6060FFF7E4FFA060FFF7E1FFE06096
:1015C00010BD0000000000207047000070B50A4EFA
:1015D00000242501705DC0070AD0FFF72FF8A91974
:1015E0004A68801A4A88904202D9084601F0F0FB06
:1015F000641C0A2CEDDB70BD88000020F8B5154690
:1016000006460024134A20460701D75DFF0718D07D
:10161000401C0A28F8DB002C1AD0A660E360618029
:10162000FFF70CF8606020786900C007C00F08431E
:1016300020704008800702D5204601F0C9FB2046F3
:10164000F8BD000184182078012210432070E2E7E1
:101650000020F8BD880000200449020E0A70020C28
:101660004A70020A8A70C87008467047100000204D
:10167000134801680122114301604168114A114079
:1016800041600168104A1140016001680122920422
:101690009143016041683F22120491434160C16A55
:1016A00009090901C162016BFF22143291430163F0
:1016B000416B490849004163002181607047000087
:1016C000001002400CB8FF08FFFFF6FE3EB50A48C6
:1016D00001902F206946088000200881074C48802F
:1016E000204600F045F80121204600F02BF80121AA
:1016F000204600F02AF83EBDE7030000002C014020
:101700003EB52F2001900020694608800881074CD3
:101710004880204600F02CF80121204600F012F805
:101720000121204600F011F83EBD0000002C0140D0
:1017300010B50121024800F005F8FFF71BF810BDB5
:1017400000040040C943018270470029018802D08B
:101750000122114301E04908490001807047002A35
:10176000828901D00A4300E08A43828170470000E9
:1017700010B50288144B984206D00124A407A04259
:1017800002D0124CA04203D17024A2434C882243C1
:101790000F4CA04203D00F4C22400C892243028000
:1017A0004A68C2620A880285984208D00A4A904272
:1017B00005D00A4A904202D0094A904201D1897A62
:1017C00001860121818210BD002C014000040040EF
:1017D00000100040FFFC00000040014000440140B8
:1017E0000048014010B5094C0749204600F03CF87C
:1017F000002807D0204600F0C6F801220821204624
:1018000000F0C5F810BD00000501050000380140DA
:1018100010B5094C0749204600F026F8002807D0EB
:10182000204600F0B0F801220821204600F0AFF871
:1018300010BD00000501050000440040090C012214
:101840008A40026270470029016802D001221143D8
:1018500001E049084900016070470246D269002052
:101860000A4200D00120704730B50A04130E01254A
:101870002A4600248A40012B0ED0022B0ED083680A
:10188000090C1340C0698D402840002B02D000286D
:1018900000D00124204630BD0368F1E74368EFE73C
:1018A00010B50B041C0E01238B40022C02D0032C1C
:1018B00002D002E0001D00E008300168002A01D0DB
:1018C000194300E09943016010BD000030B50446A3
:1018D00000688BB00D46400840002060606803211E
:1018E00009038843A9680143616020681C49EA68CC
:1018F0000840696811432A69024311432160A068C6
:1019000003210902884369690143A1606846FFF722
:101910009DFC1448844201D106980AE01248844292
:1019200001D1079805E01148844201D1089800E0F0
:10193000029821680904296800D54000FEF7F0FBF1
:101940002A6852088A4200D8401C2168090404D53C
:101950000107074A490F10400843A0810BB030BD72
:10196000F3E9FFFF00380140004400400048004018
:10197000F0FF0000826801231B039A4382608268A3
:101980000A4382607047808CC005C00D7047002AF2
:10199000028B01D00A4300E08A4302837047C905E5
:1019A000C90D01857047000001494860704700007B
:1019B00014000020F8B500250D4F06462C462046A1
:1019C0000C214843C1198A68002A0BD0E200B454A4
:1019D0003B5C901943700622801C491CFEF7B6FB45
:1019E0006D1CEDB2641CE4B2052CE8D32846F8BDAA
:1019F0002801002008B5FFF7B3F80A48FFF7AAF856
:101A0000FEF7AAFC0848FEF7A1FC08A000680090B9
:101A10006846FFF7CDF8FF2206210548FEF7A8FB30
:101A200008BD0000052F0008F12300082202031161
:101A300024000020F3B54A4885B040780E460128BE
:101A40000AD0052E0ED8002E0CD0012000F0A4FEE6
:101A5000FFF73EF800255DE0424943A000F04CFA54
:101A600045A06AE03F4940A000F046FA314649A04F
:101A700072E00598405D052867D20C2148434B4928
:101A80004418A068FEF74CFCFF280FD1FEF7D6FDE6
:101A9000FFF78AFDFFF774FDC0B204902078631C45
:101AA000A2680499FEF7F6FBFF2841D06946087149
:101AB000049888712A4806221030407848712849D5
:101AC00002A816310130FEF741FB4B20771BC00006
:101AD0004743FFF755FD7D21C900FEF721FBC819DB
:101AE00087B2380A6946C8710F721E4930A000F0EB
:101AF00003FA694600978B790A792EA0A16800F055
:101B0000FBF938A000F0F8F901A9A068FFF798F8F0
:101B10006D1CEDB2B542ACD34B20C0003146414301
:101B2000032300223048FFF769FD002007B0F0BD15
:101B30000C490DA000F0E0F92CA000F0DDF929A07F
:101B400000F0DAF90020C043F0E7064906A000F0F3
:101B5000D3F90598415D2AA000F0CEF9EFE7000027
:101B6000140000203532000825733A5B21212145FD
:101B700052524F525D000000776169742C20616CF5
:101B80007265616479206275696C64696E67202E84
:101B90002E2E00006E756D5B25645D206F757420C0
:101BA0006F662072616E672100000000280100202E
:101BB00025733A0041646420646576696365205545
:101BC00049443A25782C20616464723A25642C20BB
:101BD0006B65793A25642C20686254696D653A25F5
:101BE000640000000A00000011270008646576699F
:101BF0006365206C6973742066756C6C212121000B
:101C000069645B25645D206F7574206F6620726166
:101C10006E672100F3B581B00646029800272028A0
:101C200001D9781EFEBD00241BE0305DFEF724FBC9
:101C3000050007D02979305DFFF716F82846FEF732
:101C40004FFB0CE009490AA000F056F9315D0CA0E9
:101C500000F052F910A000F04FF90127FF43641C77
:101C6000E4B202988442E0D33846FEBD2132000837
:101C700025733A5B2121214552524F525D000000ED
:101C8000646576696365202564206E6F7420666FD5
:101C9000756E6421000000000A00000010B51E49A6
:101CA00000244A78E443012A03D0887801280CD024
:101CB00009E01A491AA000F01FF91DA000F01CF954
:101CC00022A000F019F9204610BD012000F064FDAB
:101CD000114C10346078FF280AD1FEF7AFFCFFF7F3
:101CE00063FCFFF74DFC1E21FEF71AFA5A316170B2
:101CF0003C211748FEF743FAFEF7EAFE0648163085
:101D0000FEF7D0FF00237D211A46C9001148FFF7D6
:101D100075FC002010BD00001400002049320008AE
:101D200025733A5B2121214552524F525D0000003C
:101D3000776169742C20616C726561647920696EC9
:101D400020736561726368202E2E2E000A00000049
:101D500028010020F12B000810B5074989780029D7
:101D600003D1002802D0FEF7B3FE10BD02481030A8
:101D70004078FEF7C9FE10BD1400002010B5FEF734
:101D800001FF0B4C607802280FD1A07800280CD1FD
:101D9000FEF754FCA168401AE168884205D900208A
:101DA000FEF7F6FEFEF74AFCA060FEF7D6FA10BD7D
:101DB0001400002070B5064600251C491CA000F048
:101DC0009BF831461BA000F097F81EA000F094F895
:101DD0001D4900200C461034002E1CD001228A70B0
:101DE0002178002915D02070FEF728FC0546002038
:101DF000FEF7ACFEC0782818FFF7D6FBFFF7C0FB54
:101E00001E21FEF78DF95A316170A01CFEF79EFE6F
:101E10000125022004E088702078FF28F9D10020F5
:101E200000F0BAFC284600F0EBFF70BD5A32000803
:101E300025733A0069734D6173746572203D2025E6
:101E4000640000000A000000140000203EB50446B3
:101E50000B490CA000F050F8E078627921796B46CC
:101E600007C3A3786278217807A000F045F80AA09C
:101E700000F042F8062221460848FEF767F93EBD09
:101E80007E32000825733A002563256325632563A8
:101E900025632563000000000A0000002A000020DE
:101EA00010B504460B490CA000F026F821460BA003
:101EB00000F022F80CA000F01FF80C48002C047071
:101EC00001D00B4A00E00B4AC2602046FEF79EFE9E
:101ED00010BD00006F32000825733A00736C656511
:101EE00070203D20256400000A000000140000203E
:101EF000E0930400881300000FB410B503A9044B4D
:101F0000044A029800F024F810BC08BC04B018473A
:101F1000B12400087C00002030B47446641E25788B
:101F2000641CAB4200D21D46635D5B00E31830BC0D
:101F3000184702E008C8121F08C1002AFAD17047EA
:101F40007047002001E001C1121F002AFBD1704739
:101F5000FFB591B00F460546002606E025280AD0B9
:101F6000149A139990476D1C761C28780028F5D197
:101F7000304615B0F0BD002400940121F34A0294CC
:101F800000E004436D1C2B780846203B984010422B
:101F9000F7D128782A280ED0022128780246303A34
:101FA000092A15D8009A0A235A43303A80180C435C
:101FB0006D1C0090F1E701CF0090002805DA0120A8
:101FC00040030443009840420090022004436D1CEB
:101FD00028782E2815D10420044368786D1C2A28FF
:101FE0000AD101CF6D1C02900BE002990A225143E5
:101FF000303940186D1C0290287801463039092983
:10200000F3D928786C2810D006DC4C281AD0682820
:102010000ED06A2817D104E0742813D07A2812D180
:1020200010E00120400504430CE00121090501E016
:10203000032109050C436978814203D10120000581
:1020400024186D1C6D1C287803906E281ED00CDCA3
:10205000632831D004DC00288AD0582811D1B2E09E
:1020600064287BD069280CD178E073282DD004DC5B
:102070006F2870D0702804D1A7E075286CD078281C
:102080006BD0149A13999047761C62E06002400F5F
:10209000022807D003280AD0042838680AD006602E
:1020A0003F1D56E03868F11706604160F8E7386870
:1020B0000680F5E70670F3E7387869460874002073
:1020C000487404A80390012003E0386803900020BE
:1020D000C0433F1D61070FD5002101E00199491C54
:1020E000029A0191914213DA8142F7DB019A039936
:1020F000895C0029F2D10BE0002101E00199491C23
:1021000001918142FADB019A0399895C0029F5D19A
:1021100001990098139A401A00902146149B00F0F0
:102120003BF901998019461807E003980399007854
:10213000491C0391149A139990470198401E0190ED
:10214000401CF2D12146149B139A009800F014F918
:1021500086196D1C09E741E033E034E00A200021D4
:10216000049005916002410F022905D001CFC217EA
:102170009446032905D007E0FF1DFF08FF0003CFA9
:1021800006E000B2C2179446042902D140B2C1173A
:102190008C4600226146944506DA0A4600214042F8
:1021A00091418C462D2102E0210504D52B216A4660
:1021B0001176012103E0E10701D02021F7E7019129
:1021C00054E00A200BE0102009E0102004900021C8
:1021D0000420044308200591029003E00820002118
:1021E000059104906002410F022905D001CF002221
:1021F0009446032906D006E0FF1DFF08FF0003CF29
:102200008C4603E080B2042900D1C0B200210191C4
:1022100021072BD50399702906D0049A1021059B1C
:102220004A401A4305D00EE040216A46117601214A
:1022300008E06146014306D030216A4611760399D1
:10224000517602210191049A0821059B4A401A43C4
:102250000CD16146014301D1610707D530216A469F
:102260001176012101910299491E02910399582981
:1022700004D037A103910FA90F910DE039A1F9E71F
:102280006146059B049AFDF792FF039B8C469B5C7D
:102290000F9A521E0F92137061460143F0D10F98AE
:1022A00007A9081A20300390600704D50120000414
:1022B0008443029801E0012002900399884201DDE5
:1022C000401A00E000204118029001980918009877
:1022D000401A0090E00306D42146149B139A0098FC
:1022E00000F05AF886190020049008E006A9085C5E
:1022F000149A139990470498401C761C04900199F5
:102300008842F3DBE0030CD52146149B139A009816
:1023100000F042F8861904E0149A3020139990478F
:10232000761C0299481E02900029F5DC08E00F98FF
:102330000F990078491C0F91149A13999047761CB5
:102340000399481E03900029F1DCFBE609280100EF
:10235000303132333435363738396162636465661B
:1023600000000000303132333435363738394142DD
:102370004344454600000000F8B5044600251E46CB
:102380001746880404D405E039462020B0476D1C68
:10239000641EF9D52846F8BDFFB50446002581B076
:1023A0001E46C80301D5302700E02027880404D545
:1023B00005E038460399B0476D1C641EF9D52846E0
:1023C00005B0F0BD10B5034801781630FEF78EFC5D
:1023D00010BD00001400002010B50020FEF7D8FB4F
:1023E000FEF72CF90149886010BD000014000020A0
:1023F00070B50C460546084908A0FFF77DFD002C86
:1024000008D007A2294608A0FFF776FD0BA0FFF72A
:1024100073FD70BD0AA2F5E7FD31000825733A008F
:102420006F66666C696E65004465762061646472EF
:102430006573732025643A20257300000A000000AC
:102440006F6E6C696E650000F1B5174882B0C168A7
:10245000002901D1C0600061C4680027134EE568FF
:102460001DE021780298814217D100976378717836
:102470006268FEF7E3FCE068002805D02169C860C7
:10248000E06821690161E760606800F019F82046A2
:1024900000F016F8B078401EB0702C46ED68024887
:1024A0008442DED1FEBD0000A40400204C000020C8
:1024B00013B5012269460020FEF7B2F900981CBD51
:1024C00010B5002823D0124B0022001F196803E02A
:1024D000814203D80A4649680029F9D1002A0AD066
:1024E0001368841A9C4204D10068181810601046C2
:1024F00002E0506000E01860002907D002680B1A63
:10250000934203D10B68D21802604968416010BD44
:1025100080000020F8B50E4605460024094F0DE066
:10252000304600F011F8FEF77BF8398A3846C907C3
:1025300004D00121FFF706F9641CA4B2AC42EFD32A
:10254000F8BD0000002C014010B50349097888420D
:1025500001D000F003F810BD4800002010B5064976
:102560000028087004D0012801D1FFF7AFF810BD92
:10257000FFF7C6F810BD00004800002010B5044663
:102580000020FFF7EBFF00212046FFF7C3FF10BD3F
:10259000F8B5144E182130780027484312494418E2
:1025A0002078DD2815D1207C002812D02079002841
:1025B00001D00E4D00E00E4DFEF740F86169401A63
:1025C00069006918884204D927747268012130783B
:1025D00090473078401CC0B23070202800D337704C
:1025E000F8BD00003800002064010020E0930400E2
:1025F00088130000F0B5064689B04809CF06089058
:102600000D46FF0E1CA0FFF777FC002405E0315DAE
:102610001BA0FFF771FC641CE4B2AC42F7D31AA014
:10262000FFF76AFC194881780120FEF763F900245E
:1026300009E0600180192021FEF7ECF93220FFF754
:102640009DFF641CE4B208988442F2D3002F0CD0A2
:10265000E81B81193A466846FDF778FD2021684657
:10266000FEF7D8F93220FFF789FF0848817800206B
:10267000FEF740F909B0F0BD53656E643A00000002
:1026800025303278200000000A00000054000020AD
:10269000FEF75AFF00F058FB00F072FBFEF767FFF1
:1026A000FAE70000F0B50B30C108C900144F00264E
:1026B000144A0FE003688B420BD38B4205D95C1A96
:1026C0004318456830C3083B00E04368136002C00C
:1026D00004E0021D10680028ECD13046002803D128
:1026E0003868002801D00020F0BD064A0648106076
:1026F000064A121AD208D20044C001203860D7E737
:102700008400002080000020D4050020D007002095
:1027100010B5C4B20C490DA0FFF7EEFB0CA0FFF7FB
:10272000EBFB0CA0FFF7E8FB022000F035F80A48AD
:102730004078FEF7E9F9084810384268002A02D0CC
:1027400000212046904710BDF031000825733A0063
:10275000000000000A0000002400002070B514787A
:10276000551CFEF7F9FE01460A480078002809D0FA
:10277000012C08D0022C09D0032C03D12A460220B8
:1027800000F008F970BD2A460020F9E72A4601202A
:10279000F6E700004C00002070B5064C0546607856
:1027A000A84205D06268002A02D029460620904738
:1027B000657070BD1400002070B515460C46FDF71D
:1027C0005BFD002805D0C07A2730C043C2B200208C
:1027D0000FE0094909A0FFF78FFB0CA0FFF78CFB66
:1027E0000FA0FFF789FB70BD215C51402154401CB4
:1027F000C0B2A842F8D370BDC532000825733A5B59
:102800002121214552524F525D0000006B65792015
:102810006E6F7420666F756E6421212100000000C8
:102820000A000000FFB585B01D785C1C0E9E0F46A7
:10283000002A04D1324619460598FFF7BDFF002F44
:1028400002D00598FFF700FE042D10D0052D12D000
:10285000062D28D0072D08D16846761E06706A46D8
:1028600001940620059900F095F809B0F0BD00220A
:1028700003200599F7E7207869460870607888702A
:10288000A01CFEF769FE039000A8A11D06220330DC
:10289000FDF75CFCA07969464872E07948706A46A9
:1028A00004200599DFE7002205200599DBE70000F9
:1028B00010B51148C468844200D10024002C1AD0FD
:1028C000FDF7BCFEA168401A0C49884213D9E068A4
:1028D000002806D02169C860E068216901610020F4
:1028E000E0606068FFF7ECFD2046FFF7E9FD044972
:1028F0008878401E887010BDA404002068A70400DA
:102900004C000020F7B5194D0746A87816460A284E
:102910000AD3174917A0FFF7EFFA17A0FFF7ECFA51
:102920001AA0FFF7E9FAFEBD1420FFF7BBFE0770FF
:10293000044646703046FFF7B5FE606032460199A6
:10294000FDF704FCFDF77AFEA0601148C16800297C
:1029500001D1C0600061E0600169CC600169216162
:102960000461A878401CA870FEBD00004C00002047
:10297000D232000825733A00736C6565702063617C
:102980006368652066756C6C210000000A00000019
:10299000A4040020024B5B68002B00D0184770474E
:1029A0004C000020F8B50E460446154600210420D0
:1029B000FDF705FE2046FDF799FE0746002405E0D9
:1029C000FF20FDF793FE3055641CE4B2AC42F7D310
:1029D00001210420FDF7F3FD3846F8BD10B504468B
:1029E00000210420FDF7EBFD2046FDF77FFEFF20D0
:1029F000FDF77CFE044601210420FDF7E0FD2046A2
:102A000010BDF8B50E460446154600210420FDF71A
:102A1000D6FD2046FDF76AFE0746002404E0305D3F
:102A2000FDF764FE641CE4B2AC42F8D3012104203B
:102A3000FDF7C5FD3846F8BD70B50D4604460021CA
:102A40000420FDF7BCFD2046FDF750FE0446284655
:102A5000FDF74CFE01210420FDF7B1FD204670BDBD
:102A600010B504090207120F012090408880086108
:102A70004A732300FFF750FA06040A0E12171B20B0
:102A80000920C00608600120400414E00B480860DB
:102A9000000210E00A48086000020CE009480860E3
:102AA0000120000507E008480860400203E00748ED
:102AB000086001208005886010BD00000004004807
:102AC00000080048000C00480010004800140048AE
:102AD00010B51548C468844200D10024002C22D0CF
:102AE000FDF7ACFDA168401AC8281CD9A178606820
:102AF000FFF780FD6078401C6070FDF79FFDA060CF
:102B0000607803280FD3E068002806D02169C860E8
:102B1000E068216901610020E0606068FFF7D0FC97
:102B20002046FFF7CDFC10BDB8040020F8B50746DD
:102B300015460E461420FFF7B5FD04460770002029
:102B40006070A570A0602846FFF7ACFD2A463146AC
:102B50006060FDF7FBFA0648C168002901D1C0603A
:102B60000061E0600169CC60016921610461F8BD28
:102B7000B804002070B588B0FDF79CFE002827D06F
:102B80006846FDF72AFF002822D1FDF757FD164CB5
:102B90000025E188401A642800D9E570FDF74EFD54
:102BA000E080124B00206E46E278315C9954521C52
:102BB000D2B2E270012A0DD00C2A0FD021790D314A
:102BC0008A420CD1D1B20948FEF780F9E57025712F
:102BD00008B070BDA52902D0E57000E02171401C4D
:102BE000C0B22028E0D3F3E754000020CC0400203A
:102BF00010B50548FEF756F87D2102230022C900D2
:102C00000248FEF7FBFC10BD2A0000201127000837
:102C1000F8B500270E4E05230C245C43A419803C14
:102C2000E46F002C01D15D1EEDB284420ED05B1E1C
:102C30001B061B0EF0D1002F08D10C235D437255EB
:102C4000AB1998600622581CFDF780FAF8BD000009
:102C500028010020034610B50020024604E09C5CD9
:102C60002018521CC0B2D2B28A42F8D310BD000064
:102C7000F0B50D46044693B0244925A0FFF73CF972
:102C8000214624A0FFF738F925A0FFF735F9022CDB
:102C90000CD0062C08D12806000E35D0012803D010
:102CA00000211120FDF78BFC13B0F0BD05A8FEF745
:102CB00081FE0F900028F7D000241DE0134914A0D6
:102CC000FFF71AF9E50005AEA819C77983794279AB
:102CD0000179019102A98CC1C17800918378427871
:102CE000715D10A0FFF708F90DA0FFF705F9705D01
:102CF00010A90855641CE4B20F988442DED3014643
:102D000010A8FEF797FECFE70121CAE78E32000830
:102D100025733A006576656E742025640000000016
:102D20000A0000007369643A25642C20736C6565A1
:102D3000703A25642C20747970653A2563256325E3
:102D4000632563256325630010B501211120FDF77C
:102D500014FC01211120FDF732FC0120FFF72AF8B5
:102D60000020FFF79DF803A0FFF770F80348FEF777
:102D70001BFE10BD4D53543030310000712C000843
:102D800038B5104C6068002806D0FDF757FC616824
:102D9000401A0D49884204D9FEF780FFFDF74EFC2A
:102DA0006060FDF74BFC0949884209D9207800286A
:102DB00006D10125684605702946FEF72BFF2570D0
:102DC00038BD00003000002060EA0000905F010084
:102DD00010B5044600784108CA0706D0FDF72EFC5E
:102DE0006060A168E068884710BD490703D44008C7
:102DF00040002070F5E70020C0436080F1E700004C
:102E000010B5054CA01CFDF7FDFE2078FDF7F6FE81
:102E10000020FEF7A1FF10BD24000020F7B586B00A
:102E20000646154600210798FEF70DFD1D4F002DA3
:102E300004D1002239460798FEF732FD307901248B
:102E40002403012817D0022819D000200146326837
:102E5000019000200092029005900C2003910490B4
:102E600069460798FEF732FD21460798FEF782FD76
:102E7000002D08D010E0012120468902E7E7032158
:102E800020464902E3E739460798FEF7D7FC0122BE
:102E900039460798FEF704FD01210798FEF7D3FC99
:102EA00009B0F0BD05010500FEB50446807A012594
:102EB000002808D1217860786A46117250729572A4
:102EC00002A8FDF7DDFDA18801226069FDF7E0FAA7
:102ED000218901226069FDF7DBFAE0880090022673
:102EE00069460E7100208871CD71032048716069B8
:102EF000FDF796FA6088694600900E716069FDF7EB
:102F00008FFAFEBDF0B57D4F0646B87887B01446FF
:102F10000D46012802D0002809D013E0300011D05E
:102F2000022E0FD0032E0DD0042E0BD002E030461F
:102F3000012E07D00300FEF7EFFF070C2C497E950A
:102F4000BFD447006E496FA0FEF7D6FF31466EA092
:102F5000CDE06B496BA0FEF7CFFFE0786279217975
:102F60006B4607C3A378627821786BA0FEF7C4FF95
:102F700073A0FEF7C1FFFDF761FBFEF715FBFEF73F
:102F8000FFFA19214901FDF7CBF82B4600226D48C5
:102F90004EE05B495BA0FEF7AFFFA0796179227933
:102FA0000495019202910390E0780090A3786278F2
:102FB000217865A0FEF7A0FF61A0FEF79DFFA27932
:102FC00021462846FFF724FE07B0F0BD4B4E20787F
:102FD00010363070607870700846FEF73DFB014691
:102FE0000422B01CFDF7B2F8E07821790002401805
:102FF00086B2434943A0FEF77FFF0096A37862782C
:1030000021786148FEF778FF4DA0FEF775FF00209C
:103010000090A178631D2A46FDF76AF90120FFF7A9
:10302000EFFE0220FFF7B8FB00231A46314657484F
:10303000FEF7E4FAC8E7324932A0FEF75DFF54A07C
:10304000FEF75AFF3EA0FEF757FF2C48FF2206214D
:103050001030FDF78DF80120FFF7D2FE0020FFF7BA
:103060009BFBB1E7264927A0FEF746FFA079227A0D
:10307000E17903ADE3680FC5E078627921796B46A9
:1030800007C3A378627821784648FEF735FF2CA065
:10309000FEF732FF2078002808D0607A009061782F
:1030A000A078E31CE268FDF723F98DE7A078FDF72F
:1030B000E3F8FDF715F987E7114912A0FEF71CFFA9
:1030C000294639A0FEF718FF1DA0FEF715FFE8B24C
:1030D000FDF748F9B8780128ACD1E8B2FDF758FD02
:1030E00072E7074907A0FEF707FF294638A0FEF759
:1030F00003FF13A0FEF700FF66E7000014000020A6
:103100000B32000825733A0069676E6F726520659F
:1031100076656E74202564004E45545F4556454ED5
:10312000545F5345415243483A206D617374657250
:10313000202563256325632563256325630000003F
:103140000A000000C52300084E45545F4556454E11
:10315000545F4445565F494E464F3A20737562446A
:10316000657620747970653A256325632563256348
:10317000256325632C20736C6565703A25642C20CB
:103180007569643A2578000060330008D923000887
:103190004E45545F4556454E545F4445565F444541
:1031A0004C202100AC3300084E45545F4556454E37
:1031B000545F4445564943455F4845415254424552
:1031C00041542073756241646472203D202564007F
:1031D0004E45545F4556454E545F555345525F44E6
:1031E0004154412066726F6D205B25645D000000D4
:1031F0006E65744275696C64446F6E6500646D45FC
:1032000076656E7448616E646C6500776D4E6574AA
:103210006C617965724576656E7448616E646C6543
:1032200000574D4E65744275696C6444656C446525
:103230007669636500574D4E65744275696C6441EB
:10324000646444657669636500574D4E65744275E4
:10325000696C6453656172636800574D5365744DC2
:103260006173746572536C6176654D6F6465005768
:103270004D536574536C6565704D6F646500574DB3
:103280005365744D6F64756C655479706500746531
:1032900073744576656E7448616E646C6500444D68
:1032A000557064617465486561727462656174002B
:1032B000464C4153485F49525148616E646C657297
:1032C00000FFFFFFFF6E6574456E446563727970A1
:1032D00074006E6574536C65657044657644617402
:1032E0006153617665004E65744275696C64537410
:1032F000617274004E65744275696C6453746F70CA
:10330000004E6574536574536C6565704D6F6465EC
:10331000004E65745365744D616341646472004E80
:1033200065746275696C645365617263684465763F
:1033300069636500FFFFFFFF504859537769746365
:10334000684368616E6E656C00504859496E6974D7
:1033500069616C697A6500344310103443101000C1
:103360004E45545F4556454E545F4445565F414473
:10337000443A206D792061646472657373203D2046
:1033800025642C2072664368616E6E656C203D205A
:1033900025642C206B6579203D2025642C206862F3
:1033A00074696D65203D2025640000004E45545F22
:1033B0004556454E545F434F4F5244494E41544940
:1033C0004F4E3A206275696C643D25642C206B6514
:1033D000793D25642C206E6574416464723D2564DA
:1033E0002C20747970653D2563256325632563254D
:1033F0006325632C207569643D2564001C34000836
:103400000000002088000000321F0008A4340008DB
:1034100088000020480B0000421F000815CD5B0704
:10342000043BD8218C0A2913D204000000000000BC
:10343000000000000000000000000000000000008C
:10344000000000000000000000000000000000007C
:10345000000000000000000000000000010000006B
:10346000000000000000000000000000000000005C
:1034700000FF00000000000000000000000000004D
:103480000000000000000000000000000102030432
:103490000102030406070809000000000000000004
:0434A0000000000028
:04000005080000B53A
:00000001FF
