:020000040800F2
:1000000058130020C9000008EF000008990C0008F0
:1000100000000000000000000000000000000000E0
:10002000000000000000000000000000F3000008D5
:100030000000000000000000F5000008F7000008C4
:10004000F900000800000000F9000008D5050008CC
:10005000F9000008F9000008F9000008F90000089C
:1000600000000000F9000008F9000008F90000088D
:10007000F9000008F9000008F9000008000000007D
:10008000C91F00080000000000000000F90000087F
:10009000F9000008F9000008F9000008F90000085C
:1000A000F9000008F9000008F90000087D200008A8
:1000B000B12000080348854600F0BAF80048004720
:1000C00025340008581300200C4880F308880C4899
:1000D0000168090E0B4A914205D10B480B4901609A
:1000E0000B480C4901600C4880470C480047FEE76C
:1000F000FEE7FEE7FEE7FEE7FEE7000058130020FC
:10010000040000001F000000181002400100000061
:100110000000014000000000091F0008B5000008B1
:1001200030B50B46014600202022012409E00D468F
:10013000D5409D4205D31D469540491B2546954017
:1001400040191546521E002DF1DC30BD03460B430D
:100150009B0703D009E008C9121F08C0042AFAD27D
:1001600003E00B780370401C491C521EF9D2704703
:10017000D2B201E00270401C491EFBD2704700223F
:10018000F6E710B513460A4604461946FFF7F0FF96
:10019000204610BD421C0178401C0029FBD1801A6A
:1001A000704730B504460020034600E05B1C9342D4
:1001B00003D2E05CCD5C401BF8D030BD03460A782A
:1001C0000270401C491C002AF9D118467047F0B54E
:1001D0001FB40646002082B00546402401910090DD
:1001E0001BE0019922460F46304600F043F8049A7E
:1001F000059B801A994110D310461946224600F0FB
:1002000029F8361A8F410197224601200021009FCC
:1002100000F020F838184D4100902046641E002858
:10022000DFDC019B00982946324607B0F0BD000094
:10023000064C0125064E05E0E36807CC2B430C3C39
:1002400098471034B442F7D3FFF738FF444A000808
:10025000644A000810B5202A04DB0146203A914088
:10026000002010BD914020239C1A0346E34019430F
:10027000904010BD10B5202A04DB0846203AD0403B
:10028000002110BD0B46D340D0402024A21A91403B
:100290000843194610BD000010B504461F2801D9B7
:1002A000002010BD1C21484308490A5CDD2A0BD000
:1002B000074908A002F028FC214607A002F024FC10
:1002C0000AA002F021FCEBE7401810BD9C010020C1
:1002D0008B48000825733A00446576205B25645DF1
:1002E000206E6F7420666F756E6421000A00000036
:1002F000F8B5144D064601241C206043285CDD2817
:100300001AD01C20DD2760432F5445192E71E97245
:10031000EA60681D06221946FFF718FF00202861D1
:100320006861A861002E01D0074800E007486861B5
:1003300003F094FF2046F8BD641CE4B2202CDBD30C
:10034000FF20F8BD9C010020E0930400102700006E
:1003500010B5002805D0FF221C21FFF709FF03F08C
:100360007DFF10BD10B50721FF22C9010348FFF72B
:10037000FFFE034800F042FA10BD00009C0100207F
:1003800000F4000870B5049D1F2819D81C24604390
:100390000C4C0419DD2020702571E172E260062208
:1003A0001946601DFFF7D2FE002020616061A06148
:1003B000002D01D0044800E00448606103F04EFFC6
:1003C00070BD00009C010020E09304001027000095
:1003D00010B50346084A00201C214143545CDD2C23
:1003E00003D18918C968994204D0401CC0B22028A2
:1003F000F2D3FF2010BD00009C010020014948609D
:100400007047000034000020F8B50646002004467E
:100410001C210E4A61438D182978DD2910D1297CD1
:1004200000290DD03454401CC7B2F0190622691DB2
:10043000FFF78CFEBF1DF8B229793154401CC0B2C1
:10044000641CE4B2202CE3D3F8BD00009C01002022
:10045000F8B50646002004461C210C4A61438D185D
:100460002978DD290DD13454401CC7B2F019062279
:10047000691DFFF76BFEBF1DF8B229793154401C8E
:10048000C0B2641CE4B2202CE6D3F8BD9C0100206D
:1004900010B50722D2010849084800F0C5F900202C
:1004A000054B02461C214143C918401C0A74C0B2C6
:1004B0008A612028F6D310BD9C01002000F40008BA
:1004C00070B51D461346094CDD22227000262671A8
:1004D000E072E16006221946601DFFF737FE2661D3
:1004E000A661656103F0BAFE70BD00009C010020AA
:1004F00010B502F0DBFE10BD70B50546FFF7CCFE6F
:1005000004000DD0207C002806D101200A4A207466
:10051000526800212846904700F066FAA06170BD3D
:10052000064907A002F0F0FA09A002F0EDFA0DA0CA
:1005300002F0EAFA70BD0000340000209F48000875
:1005400025733A5B2121214552524F525D00000034
:10055000646576696365206E6F7420666F756E647E
:10056000212121000A0000000149C86070470000F5
:1005700000200240F0B50B2706463F04384600F045
:100580008DF804280FD1084C2069022528432061EA
:1005900066612069402108432061384600F07EF8FA
:1005A0002169A9432161F0BD0020024008490420CF
:1005B000CA68D20701D001207047CA68D20601D5A7
:1005C00002207047C9684907FBD503207047000027
:1005D0000020024010B5024902A002F095FA10BDB9
:1005E00034490008257320456E7472792121210A4F
:1005F0000000000002480169802211430161704738
:1006000000200240044910220028086801D010434D
:1006100000E090430860704700200240F8B50646AD
:1006200000200B273F0400900D46384600F036F8B6
:10063000042815D10B4C2069012108432061358025
:10064000384600F02BF8042806D1B61C290C009679
:100650003180384600F022F82169490849002161BB
:10066000F8BD000000200240034A11684908490013
:1006700001431160704700000020024004480169F6
:10068000090603D5034941600349416070470000F2
:100690000020024023016745AB89EFCD00B503463A
:1006A000FFF784FF02E0FFF781FF5B1E012803D004
:1006B000002B00D1052000BD002BF4D1FAE7F0B5E6
:1006C0000022032501230C6893401C409C422AD140
:1006D0000C79012C01D0022C12D1876854002E46CF
:1006E000A640B74387604E79A6408468264386605B
:1006F00084889C43848084888B7993401C438480C5
:10070000066853002C469C40A64306600E79076895
:100710009E403E430660C668A643C660CC799C40B6
:10072000C3681C43C460521C102ACBD3F0BD4B07D6
:10073000DB0E9A40C90810B589000818016A0F2419
:100740009C40A1430162016A1143016210BD02464F
:10075000128A00200A4200D001207047002A01D0EE
:10076000816170470185704710B501F037F90120AC
:1007700001F04AFA01F080FA0120FFF743FF01205F
:10078000FFF772FF002001F035FA002001F044FA73
:100790000521C904002001F057FA012001F046FAB2
:1007A000192001F005FA0028FAD0022001F05AFAC7
:1007B00001F018FA0828FBD103200121400401F0C0
:1007C000E9F80121880301F0FDF80121480401F056
:1007D000EDF80121022001F0E9F80121C80201F041
:1007E000F1F80121080301F0EDF80121084601F0BC
:1007F000E9F80121080701F0D9F810BD70B50546E8
:10080000FFF73CFF00243420FFF7AEFE2846FFF739
:10081000B1FE042803D0641CE4B20A2CF3D3FFF722
:10082000E9FE70BD704770470B4610B5014618468B
:1008300092B2FFF78BFC10BDF0B50027C3B00D4698
:1008400006463C46FF2A01D91004070ED0B200909C
:1008500010E020024119FF220190013202A8FFF7A7
:1008600075FC0198FF228019013202A902F06EFC8A
:10087000641CE4B2BC42ECD30098002810D0FF22E4
:10088000571C394602A8FFF773FC2402611902A81D
:10089000009AFFF75BFCA0193A4602A902F056FC49
:1008A00043B0F0BD00B585B0302802D9002005B0B6
:1008B00000BD694603F008FB684681880098FFF791
:1008C00046FFF4E710B588B00C46302818D802A9C6
:1008D00003F0FAFA694688890090032048710020E5
:1008E000002C02D0012C02D00220087104E001216A
:1008F0006A461171D171907169460298FFF7DFFE67
:1009000008B010BD7047704710B586B00C4630284F
:1009100008D8694603F0D8FA6846818822460098CC
:10092000FFF71CFF06B010BD0EB5FFF71DFF00F06E
:1009300003F9FFF7E7FF00F049F900F05BF8FFF774
:1009400071FF01210846FFF7BDFF01210846FFF7AF
:10095000DBFFE12040020090002069460871029010
:10096000012000F01FF90EBD03490028087001D0D6
:1009700062B6704772B670476400002010B5FFF78A
:10098000C2FF00F087F8FFF74EFF00F05BF900F0C0
:100990009DF810BD10B50D4CE078002814D10C491D
:1009A0000CA002F0B1F80CA002F0AEF80BA002F01F
:1009B000ABF80120E070BFF34F8F0A490848C860C8
:1009C000BFF34F8F00BFFDE710BD000064000020A3
:1009D0002A49000825733A00000000000A000000C0
:1009E0000400FA0500ED00E001484068704700008F
:1009F0006400002030B587B02020059003206946B0
:100A000048760220087600248C760120C8760925D5
:100A1000ED0605A92846FFF752FE8021059105A99C
:100A20002846FFF74CFE4021059105A92846FFF70F
:100A300046FE002220212846FFF779FE00224021B1
:100A40002846FFF774FE002280212846FFF76FFE3C
:100A50006946FF200C80053048800720000288800E
:100A6000CC8001200C814002488110208881CC81FB
:100A70000720074C0882204601F024F9A1142046E3
:100A800001F04CF90121204601F00CF907B030BD0E
:100A9000003001407047000070B50B4C0546022144
:100AA000204601F008F90028F9D02946204601F037
:100AB0003FF90121204601F0FEF80028F9D0204638
:100AC00001F02AF970BD00000030014010B5144C4F
:100AD000A0786178884214D26068A168401A6428BE
:100AE0001CD90120FFF7DEFE002808D000210120DC
:100AF000FFF70AFF6068A060A078401C0DE00121AC
:100B0000F5E701210846FFF7FFFE6068A168401A7B
:100B10007D210901884201D90020A07010BD00008C
:100B20006400002041000348417000218170416849
:100B300081607047640000201FB51020694608736B
:100B4000022048730120887303A800F0F3FA0D48CF
:100B500001902F2069460880002008810A4C4880B7
:100B6000204601F051FA0121204601F037FA012216
:100B70001146204601F03FFA0121204601F031FAEA
:100B80001FBD0000E7030000000400400248416868
:100B9000491C4160704700006400002010B501F05E
:100BA0009BF910BD10B50B46002807D0012804D1D1
:100BB00004490022184603F08FFB10BD00220249B1
:100BC000F8E70000004400400038014070B588B0EC
:100BD000E126092576020024ED06012080026946FF
:100BE00003960595069448800A20888001204002DB
:100BF000C880092008811B2008704C700F480490A1
:100C00008C726846079403F0ADFB08206946039692
:100C1000059506944880032088800420C88002201F
:100C200008811C20087001204870054804908C72CF
:100C30006846079403F096FB08B070BD0038014089
:100C40000044004070470000F8B517460D460028E4
:100C500003D0012803D00020F8BD0C4E00E00C4E5C
:100C600000240BE0295D304601F0EDFA802130468A
:100C700001F047FA0028F9D0641CA4B2BC42F1D3B9
:100C80000449304601F02EFA3846F8BD00380140DC
:100C9000004400400601060010B5064906A001F018
:100CA00033FF06A001F030FF05A001F02DFFFFF794
:100CB00071FE10BD1849000825733A0000000000BD
:100CC0000A000000704710B502F0C8FC10BD00001B
:100CD00070B5164D697900291CD02978AA680024BE
:100CE0005054491CC9B22970012910D0022912D0D0
:100CF000AB79981C81420DD15B1E1646D9B2D01C2F
:100D000002F068F9B178324688420AD006E0AA2893
:100D100000D02C7070BDA871FD28FBD92C70AC716F
:100D200070BD104602F0BAFBF8E70000500000204A
:100D300070B505460B490CA001F0E6FE0BA001F0D2
:100D4000E3FE0BA001F0E0FE0A4CE560A06800287D
:100D500003D1FF2002F06CFBA06000202070012076
:100D6000607170BDB948000825733A0000000000AA
:100D70000A0000005000002070B50A490AA001F0E6
:100D8000C3FE0AA001F0C0FE09A001F0BDFE094C9F
:100D900000256571A068002802D002F01BFAA5604A
:100DA000E56070BDB248000825733A0000000000FD
:100DB0000A00000050000020014840787047000001
:100DC0003C0000200EB50948C0600061084801F0F1
:100DD000CFFA4B2040020090002069460871FFF7CF
:100DE000E1FE0448FFF7A4FF0EBD00001C06002032
:100DF000153800086D33000810B5104C60780028D5
:100E000013D1E068002807D0FFF7EEFDE168401A33
:100E10007D21C900884208D900231A4619460120BD
:100E200002F004FEFFF7E0FDE06002F045FE6078AE
:100E3000002801D002F062FA10BD00003C00002042
:100E4000F8B50446FFF7D0FD214E0027B168401ADF
:100E5000642800D93770FFF7C7FDB0601D493078AE
:100E60000C54401CC1B2317001290ED0032910D09E
:100E7000B078001D81420BD1164DA978281D02F0D3
:100E8000B7F8E978884206D001E0FC2C00D0377032
:100E9000F8BDB470F8BD10A001F036FE002406E0E5
:100EA0000C48015D10A001F02FFE641CE4B2307804
:100EB0008442F5D30EA001F027FE6878AB78C10913
:100EC0004006C901400E2A1D02F026FDDFE70000A2
:100ED0003C0000201C0500204D50726F746F207282
:100EE0006563763A0000000025303278200000006B
:100EF0000A0000001CB515A003C801910090154917
:100F000015A001F001FE15A001F0FEFD14A001F0F6
:100F1000FBFD05226946302002F0A7FFFF220521D4
:100F20006846FFF725F905226946102002F06EFF9A
:100F3000002069460A5CA52A01D000201CBD401C87
:100F4000C0B20528F6D301201CBD0000A5A5A5A5AB
:100F5000A5000000E349000825733A0000000000E6
:100F60000A00000010B50420FFF79CFC002801D007
:100F7000002010BD012010BD10B501211120FFF788
:100F8000A1FC01211020FFF79DFC00210420FFF7A8
:100F900099FC00211120FFF7B7FC01211020FFF779
:100FA000B3FC10BD70B50D46044600F0B2F8002C3D
:100FB00032D000211120FFF7A7FC04222A4930205B
:100FC00002F053FF28490422091D2A2002F04DFF98
:100FD0000221232002F064FF0021212002F060FFA3
:100FE0000121222002F05CFF0021242002F058FFA2
:100FF0002946252002F054FF2721262002F050FF29
:101000000A21202002F04CFF01211120FFF77CFC77
:10101000962002F041F970BD00211120FFF774FC09
:1010200011490422091D2A2002F01FFF022123205A
:1010300002F036FF0021212002F032FF01212220A0
:1010400002F02EFF0021242002F02AFF294625204D
:1010500002F026FF2021312002F022FF2721262046
:1010600002F01EFF0B21CCE7DB490008704770B58A
:101070000546072002F0E6FE04460146272002F05E
:101080000FFF60060ED520222946612002F0BEFE29
:10109000FF21E22002F004FFFF21E12002F000FF27
:1010A000002070BD012070BD70B50C4605460021C2
:1010B0001120FFF729FC0020FFF756FC22462946A5
:1010C000A02002F0D2FE01211120FFF71DFC042018
:1010D000FFF7E8FB0028FAD1072002F0B3FE044630
:1010E0000146272002F0DCFEFF21E22002F0D8FEBC
:1010F0000120FFF739FCE00605D5FF21E12002F0D1
:10110000CFFE102070BDA00601D5202070BDFF20AD
:1011100070BD10B500211120FFF7F6FB0D21202036
:1011200002F0BEFE01211120FFF7EEFB1E2002F0AF
:10113000B3F810BD30B5827801240178002A15D0AB
:101140008B080E4A9B009A1813688907C90EFF2561
:101150008D40AB434578AD072D0E8D401D43156086
:101160000078C006C00E8440054804E0C806C00EE2
:10117000844003488030046030BD000000E400E09B
:1011800000E100E010B5084908A001F0BDFC08A08E
:1011900001F0BAFC07A001F0B7FC07490120087074
:1011A0007D2000F0D5FB10BD6A49000825733A0088
:1011B000000000000A0000007400002010B5044682
:1011C000084909A001F0A0FC214608A001F09CFC00
:1011D00009A001F099FC094B00221A70204600F08A
:1011E000B7FB10BD7849000825733A00776F726B22
:1011F0002063683A256400000A00000074000020A3
:10120000F0B589B00E46074605206946087110788A
:10121000487190788871144601ADD06800F068FE7E
:101220000146E81C0422FEF791FFE81D0622E11C9E
:10123000FEF78CFF607A69464874607888740F22E4
:10124000144601A9384602F0CDFC002E06D02246F5
:1012500001A9384602F076FD09B0F0BD00200090EB
:1012600003482346417801AA384600F0CBF9F3E75A
:101270007400002010B500F059F910BD0149486014
:10128000704700007400002010B50548C060006180
:1012900000F08AF9034A0449044800F0F5F910BD4A
:1012A00030060020513C0008693B0008693C0008FA
:1012B00010B500F0E9FA02F01BFD10BD10B50249AF
:1012C000497800F03FF910BD7400002038B504469D
:1012D00009490AA001F018FCE0780090A378627830
:1012E000217807A001F010FC0AA001F00DFC2046B7
:1012F00000F0D2FA38BD00009549000825733A0085
:10130000253032783A253032783A253032783A250D
:10131000303278000A00000010B500F0DFFA10BD8E
:1013200010B500F0F1FA10BD10B50446064907A04B
:1013300001F0EAFB214606A001F0E6FB05A001F062
:10134000E3FB0548447010BD8549000825733A0049
:10135000256400000A0000007400002070B5C2B0CF
:101360000E460546062069461C460871134601A82C
:10137000224619460130FEF7E9FE641CFF2D04D019
:10138000E2B201A9284602F02DFC002E06D0E2B2FE
:1013900001A9284602F0D6FC42B070BD00200090A2
:1013A0000348E3B2417801AA284600F02BF9F3E79D
:1013B000740000203EB5044603206A46107000A861
:1013C0000B220130FEF7C2FE204600F091FD002303
:1013D0000C22694600F062F83EBD00007CB505466F
:1013E0000422684602710C46012201A9284602F037
:1013F000F9FB002C05D0012201A9284602F0A2FC2D
:101400007CBD002004490090012301AA49782846A8
:1014100000F0F8F87CBD0000740000207CB50C469C
:1014200005460E490EA001F06FFB0EA001F06CFB0B
:101430000DA001F069FB01216846017006222946D2
:10144000401CFEF783FE05480023072269465E38EC
:1014500000F024F8054884607CBD0000A349000822
:1014600025733A00000000000A000000740000200C
:101470001CB50C4602216A461170014600A80622DE
:101480000130FEF763FE6A46D471012308226946E3
:10149000014800F003F81CBD45490008FFB5C1B084
:1014A0006C46A5202070012060701546A01C1E46C9
:1014B000074604224199FEF749FE04221949381DC6
:1014C000FEF744FE17496A460C3908789072401CB2
:1014D0000870D57220462A460C304299FEF736FE37
:1014E00028460C30C4B22146684602F055FE6946D3
:1014F00008550C35ECB2641C002E0ED104220A49AA
:101500004198FEF74EFE002807D06846E2B2807A86
:10151000694602F04FFD45B0F0BDE1B2684601F00A
:101520004DFFF8E78C000020B849000810B50028EE
:1015300003D004220249FEF709FE014810BD000055
:101540008C00002010B590B00446A52268460270B9
:10155000002900D0802103221143417004220E494A
:10156000801CFEF7F3FD0C496A46947120394878D7
:10157000D07108789072401C08700020D0720C2145
:10158000684602F009FE6A4610730D21684601F0B4
:1015900015FF10B010BD0000A00000200148007928
:1015A000704700008000002010B50B48C06000614B
:1015B000FFF7E2FCFFF79EFC00280CD1074908A0CA
:1015C00001F0A2FA07A001F09FFA0CA001F09CFA2A
:1015D0000B490120087110BD44060020CD490008C8
:1015E00025733A0050485920646576696365206E1A
:1015F0006F7420666F756E64212121000A0000005F
:1016000080000020FFB5C1B006466D46A5204A9F68
:101610001C462A462870002901D0802000E00020C6
:10162000507004221749A81CFEF790FD15496A4620
:10163000967120394878D07108789072401C0870F3
:10164000D472284622460C304399FEF77FFD20468F
:101650000C30C5B22946684602F09EFD69464855E1
:101660000C34E0B2401C002F07D1FF2E05D0C2B2CF
:10167000887A02F09FFC45B0F0BDC1B2684601F027
:101680009DFEF8E7A0000020014B07C37047000053
:1016900090000020F0B58DB00027044608974078F0
:1016A0003D464606760E012E53D0A51C0422644901
:1016B0002846FEF776FD002849D16149287920396E
:1016C0004978884262D168790190A07A0090022E10
:1016D00063D0032E2DD001980A900098099000A89D
:1016E00002300B9057A0099901F00EFAA520694627
:1016F000087002204870042251490B98FEF726FD1D
:1017000069460A9888714E4820384078C87109980F
:1017100088720020C8720C21684602F03DFD6946BF
:1017200008730D21684601F049FE012E35D0022EC6
:1017300033D04348A17A2038038999422BD1697963
:101740004279914227D1194641A001F0DDF90DB04F
:10175000F0BD3B49A71C042214393846FEF721FD91
:10176000002809D0042241493846FEF71AFD002816
:10177000EDD10120089010E000200190A07A0090A7
:101780000422391D2E48FEF7E1FCA4E7FF28DED134
:1017900001200890CBE76979417129482246203819
:1017A000A17A0C320181002E0ED0012E19D0022E0A
:1017B0001FD0032ECBD18269002AC8D06078C1091E
:1017C000C90168799047C2E70669002EBFD0E07A68
:1017D000009060781346C109C9016879089AB0473A
:1017E000B5E74569002DB2D0E37A381D0899A847BE
:1017F000ADE71F49C868002801D1C9600961CD68FB
:1018000019E02A78A37A9A4214D1D9B219A001F02A
:101810007BF9E868002806D02969C860E86829696A
:1018200001610020E860686801F0D4FC284601F0FE
:10183000D1FC8CE70546E8688D42E2D187E70000DD
:10184000A000002061636B207069643A25640A007F
:10185000726570656174206D6573736167652C20B6
:1018600069676E6F72652025640A0000B849000838
:101870004406002072656376207069643A2564200E
:1018800061636B0A0000000010B5FFF7EFFB02F088
:1018900053FB02F0B3FB10BD38B50446C07800908E
:1018A000A3786278217804A001F02EF90422214661
:1018B0000948FEF74BFC38BD536574204D61633A0F
:1018C000253032783A253032783A253032783A2548
:1018D0003032780A000000008C00002010B5044669
:1018E000014603A001F010F90648447010BD000045
:1018F000536574204E657420416464723A25640A0D
:10190000000000008000002038B50446C078009038
:10191000A3786278217804A001F0F6F80422214629
:101920000A48FEF713FC38BD5365742073656741A0
:101930006464723A253032783A253032783A25306C
:1019400032783A253032780A00000000A0000020EA
:1019500010B504460848214684700020FFF722FB9A
:10196000064907A001F0D0F8214606A001F0CCF806
:1019700007A001F0C9F810BD80000020BC49000894
:1019800025733A006368616E6E656C3A25640000E9
:101990000A000000044A0029516901D0014300E017
:1019A000814351617047000000100240044A002941
:1019B000D16901D0014300E08143D161704700004B
:1019C00000100240044A0029916901D0014300E05F
:1019D0008143916170470000001002401248016885
:1019E0000122114301604168104A114041600168C1
:1019F0000F4A114001600168012292049143016085
:101A000041683F22120491434160C16A09090901FA
:101A1000C162016B074A11400163416B49084900EB
:101A20004163002181607047001002400CB8FFF84C
:101A3000FFFFF6FEACFEF0FFF8B5564E04467068A8
:101A400000210C22544D104005D0042803D0082852
:101A500003D00C281AD025601AE071687068032240
:101A60008902D2030F0F1040BF1C00280AD0F06A71
:101A70000107090F2846491CFEF752FB784301462F
:101A8000216005E0454839464143F9E74448206074
:101A90007068444F0006000F3B5C20680246DA4045
:101AA000626073685B055B0FFB5CDA40A260336BBE
:101AB000DB0501D43C4B05E073685B0401D453089B
:101AC00000E09308E360336B5F06384B03D4374F75
:101AD0001237276100E02361376BFF0601D465618F
:101AE00000E06061376BBF070ED0376BBF07BF0FD9
:101AF000012F0BD0376BBF07BF0F022F08D0376BFA
:101B0000FF43BF0706D006E0A26104E0A06102E047
:101B1000A36100E0A561376BBF03BF0F0FD0376B28
:101B2000BF03BF0F012F0CD0376BBF03BF0F022FB6
:101B300009D0376BBF03BF0F032F06D006E0E26169
:101B400004E0E06102E0E36100E0E561376B3F0340
:101B5000BF0F0FD0326B1203920F012A0CD0306BE3
:101B60000003800F022809D0306B0003800F032888
:101B700006D006E0226204E0206202E0236200E078
:101B80002562306B000602D405486062F8BD6162D0
:101B9000F8BD00000010024000127A0000093D006C
:101BA000006CDC02A4000020809FD50000800000B3
:101BB000034600200A4A59090CD001290CD00229F9
:101BC0000CD0516BDA06D20E012393400B4200D0A9
:101BD000012070471168F5E7116AF3E7516AF1E7F0
:101BE00000100240024840680C2108407047000085
:101BF00000100240034A5168F023994301435160A9
:101C00007047000000100240024900228A7088706C
:101C10007047000000100240034A516807231B026E
:101C20009943014351607047001002400122054969
:101C300012060028086801D0104300E090430860B5
:101C4000704700000010024010B5054A53687B241D
:101C5000E403A3435360536808430343536010BD38
:101C600000100240034A516889088900014351600D
:101C7000704700000010024018B50020052424031E
:101C800000901120FFF794FF0099491C0091A14298
:101C900001D00028F5D01120FFF78AFF002800D0DE
:101CA000012018BD40220029018801D0114300E025
:101CB0009143018070470246128900200A4200D0F9
:101CC0000120704730B50388C122920113400A8871
:101CD000CC890D892243CC882C4322434C89224352
:101CE0008C8922431A4302808288094B1A408B88D0
:101CF000134383800A8A02820288042349889A4314
:101D000011430180818B034A1140818330BD000063
:101D1000FFF00000FFF70000007B70478288034B54
:101D20001A40828082880A4382807047FFEF000059
:101D30000173704710B50446014604220248FEF7BD
:101D400073FD204610BD000000F8000800487047F1
:101D50000000002010B5FFF72FF810BD10B5FEF7FA
:101D6000E3FD00F071F8FEF7ADFF00F043FBFFF775
:101D700029F810BD024600200146535C0002491CB0
:101D8000C018C9B20429F8D3704710B5FFF734F86A
:101D900000F0EEFDFEF797FFFEF7F0FD00F056F8BD
:101DA00010BD000008494868C20242408868486087
:101DB000C86888600B69CB60D80C58405040120A44
:101DC00050400861704700000000002010B5064C2C
:101DD0006060FFF7E7FFA060FFF7E4FFE060FFF758
:101DE000E1FF206110BD00000000002038B504466E
:101DF0000C490DA000F088FEE0780090A37862788E
:101E000021780AA000F080FE0DA000F07DFE0D4DAF
:101E10002846FEF7F3FC042221462846FEF70CFD77
:101E200038BD00004047000825733A00253032785D
:101E30003A253032783A253032783A2530327800F7
:101E40000A00000000F800087047000070B50A4E54
:101E500000242501705DC0070AD0FEF7C5FDA91951
:101E60004A68801A4A88904202D9084602F0DEF990
:101E7000641C0A2CEDDB70BDC0000020F8B51546CF
:101E800006460024134A20460701D75DFF0718D0F5
:101E9000401C0A28F8DB002C1AD0A660E3606180A1
:101EA000FEF7A2FD606020786900C007C00F0843FC
:101EB00020704008800702D5204602F0B7F920467E
:101EC000F8BD000184182078012210432070E2E759
:101ED0000020F8BDC000002010B50C46002805D138
:101EE0000846FEF7F5FE2046FEF7AAFF10BD0000EB
:101EF0000449020E0A70020C4A70020A8A70C87005
:101F0000084670471400002013480168012211435D
:101F100001604168114A114041600168104A114056
:101F200001600168012292049143016041683F22EF
:101F3000120491434160C16A09090901C162016B40
:101F4000FF22143291430163416B49084900416308
:101F50000021816070470000001002400CB8FF08AB
:101F6000FFFFF6FE3EB50A4801902F206946088023
:101F700000200881074C4880204600F045F80121E8
:101F8000204600F02BF80121204600F02AF83EBD43
:101F9000E7030000002C01403EB52F2001900020F7
:101FA000694608800881074C4880204600F02CF8DC
:101FB0000121204600F012F80121204600F011F81E
:101FC0003EBD0000002C014010B50121024800F088
:101FD00005F8FEF7DBFD10BD00040040C943018297
:101FE00070470029018802D00122114301E049080D
:101FF000490001807047002A828901D00A4300E02D
:102000008A4382817047000010B50288144B9842C1
:1020100006D00124A407A04202D0124CA04203D152
:102020007024A2434C8822430F4CA04203D00F4C93
:1020300022400C89224302804A68C2620A880285D3
:10204000984208D00A4A904205D00A4A904202D0EB
:10205000094A904201D1897A01860121818210BD0D
:10206000002C01400004004000100040FFFC000074
:1020700000400140004401400048014070B50B4D54
:102080000949284600F044F800280CD0284600F002
:10209000CEF8044601220821284600F0CCF8E1B22F
:1020A0000020FEF77BFD70BD0501050000380140F2
:1020B00070B50B4D0949284600F02AF800280CD0CD
:1020C000284600F0B4F8044601220821284600F012
:1020D000B2F8E1B20120FEF761FD70BD0501050017
:1020E00000440040090C01228A4002627047002926
:1020F000016802D00122114301E049084900016052
:1021000070470246D26900200A4200D00120704781
:1021100030B50A04130E01252A4600248A40012BFB
:102120000ED0022B0ED08368090C1340C0698D407D
:102130002840002B02D0002800D00124204630BDCA
:102140000368F1E74368EFE710B50B041C0E0123A9
:102150008B40022C02D0032C02D002E0001D00E0D4
:1021600008300168002A01D0194300E0994301605A
:1021700010BD000030B5044600688BB00D46400825
:10218000400020606068032109038843A968014377
:10219000616020681C49EA680840696811432A693F
:1021A000024311432160A068032109028843696941
:1021B0000143A1606846FFF73FFC1448844201D107
:1021C00006980AE01248844201D1079805E01148B8
:1021D000844201D1089800E0029821680904296826
:1021E00000D54000FDF79CFF2A6852088A4200D8BB
:1021F000401C2168090404D50107074A490F104013
:102200000843A0810BB030BDF3E9FFFF0038014067
:102210000044004000480040F0FF000082680123B5
:102220001B039A43826082680A4382607047808CF5
:10223000C005C00D7047002A028B01D00A4300E0A0
:102240008A4302837047C905C90D018570470000A4
:10225000F7B50746304800268078F64384B0012859
:1022600005D02E492EA000F04FFC2EA04DE0059881
:10227000FEF712F805460698FEF70EF80446002D04
:102280003ED0002C3CD0FEF7AFFB00F0CDFF6946FE
:102290000F70064648700598887028794872E8687B
:1022A000039000A80622691D0330FDF74FFF217936
:1022B0006A460698FEF7A4FF69460F704E700698AE
:1022C000887020794872E068039000A80622611D9A
:1022D0000330FDF73BFF29796A460598FEF790FF2A
:1022E0000E490FA000F010FC394613A0069B059A7A
:1022F00000F00AFC18A000F007FC002007B0F0BDB9
:10230000064907A000F000FC14A000F0FDFB12A09D
:1023100000F0FAFB3046F1E7180000201B480008E7
:1023200025733A004E6F74206D617374657220647A
:1023300065766963652100004275696C643A2564BD
:102340002C204465763A2564203C2D2D3E204465A2
:10235000763A2564000000000A00000063616E27E1
:10236000742066696E6420646576696365000000A8
:102370000149C860704700001800002001484078FB
:102380007047000018000020F1B50025144915A081
:1023900000F0BAFB14A000F0B7FB14A000F0B4FBEF
:1023A000002420460C214843114A064681188868BB
:1023B00000280ED0009BE0001C54009A491C87188E
:1023C000781C0622FDF7C2FE09486D1C805DF8717D
:1023D000EDB2641CE4B2052CE3D3E806000EF8BDB0
:1023E000C047000825733A00000000000A00000002
:1023F0006001002008B515A000680090FEF744FFBA
:102400001348FEF73BFF6846FFF794FCFEF75EFFBC
:10241000FEF73EF80F48FDF7F1FF0320FEF782FBC1
:10242000FF2206210C48FDF7A3FE06220A490B48AD
:10243000FEF7FAF908480078FF2805D0022001F0DD
:10244000B5FB002001F02CFF08BD0000220203555F
:10245000C14300085D3000082800002000F000089B
:1024600003488178012901D0C07870470120704766
:1024700018000020F3B587B00020049005905A485A
:102480000F46417801290ED0052F12D8002F10D009
:102490008078012814D0554955A000F035FB58A08C
:1024A00000F032FB8FE0514951A000F02DFB5CA001
:1024B000F6E74E494EA000F027FB39465FA08FE0BB
:1024C000012001F073FBFEF75DFE00255FE0079839
:1024D000405D05287DD20C2148435E494418A06820
:1024E000FDF776FF0646FF280CD0FDF7D5FEC07A33
:1024F000069020780090631CA26830460699FDF78C
:1025000041FF0EE0FEF770FA00F08EFEC0B20690BA
:102510002078631CA2680699FDF7EAFE0646FF28AC
:102520004BD068460671069981712F4806221030FB
:102530004178684641712C4909301631FDF706FE95
:1025400004A846554B207E1BC0004643FFF72AFCDB
:102550007D21C900FDF7E4FD881986B2310A68467D
:10256000C171067221493CA000F0CEFA009668467F
:102570008379027939A0A16800F0C6FA43A000F07F
:10258000C3FA01A9A068FEF715FF6D1CEDB2BD42AC
:102590009DD31548C268002A02D004A903209047A1
:1025A0004B20C00039464143042300223848FFF73E
:1025B00065FC002009B0F0BD0BE00C490CA000F058
:1025C000A3FA34A06CE731A000F09EFA0020C043CB
:1025D000F0E7064906A000F097FA0798415D32A09F
:1025E00000F092FAEFE7000018000020E64700082C
:1025F00025733A5B2121214552524F525D00000064
:102600004E6F74206D61737465722C2063616E2748
:10261000742061646420646569766365210000004C
:10262000776169742C20616C7265616479206275D0
:10263000696C64696E67202E2E2E00006E756D5BCE
:1026400025645D206F7574206F662072616E67214E
:10265000000000006001002025733A0041646420FE
:10266000646576696365205549443A25782C206174
:102670006464723A25642C206B65793A25642C20B9
:10268000686254696D653A25640000000A00000024
:102690001D3B0008646576696365206C697374206E
:1026A00066756C6C2121210069645B25645D206F77
:1026B0007574206F662072616E672100F3B5054660
:1026C00081B00027224923A000F01EFA22A000F0CA
:1026D0001BFA22A000F018FA21487C1E80780128FD
:1026E0000AD01B491FA000F00FFA22A000F00CFA3C
:1026F0001AA000F009FA02E00298202801D9204629
:10270000FEBD00241FE0285DFDF7C6FD06000BD0CE
:10271000295D20A000F0F8F93179285DFEF75EFE12
:102720003046FDF715FE0CE009490EA000F0ECF96B
:10273000295D1BA000F0E8F908A000F0E5F90127E9
:10274000FF43641CE4B202988442DCD33846FEBDE9
:10275000D247000825733A00000000000A0000007C
:102760001800002025733A5B2121214552524F5217
:102770005D0000004E6F74206D61737465722C20D3
:1027800063616E27742064656C2064656976636597
:102790002100000044656C206465763A25640A00D7
:1027A000646576696365202564206E6F7420666FAA
:1027B000756E64210000000010B51B491BA000F0DD
:1027C000A3F91BA000F0A0F91AA000F09DF91A4986
:1027D00000244A78E443012A03D0887801280CD0E9
:1027E00009E0114915A000F08FF918A000F08CF94C
:1027F00010A000F089F9204610BD012001F0D6F9A3
:102800003C211948FDF7BBFCFEF7BCFC0A48174900
:102810001630FEF703FE00237D211A46C900144836
:10282000FFF72CFB002010BDFA47000825733A0083
:10283000000000000A0000001800002025733A5B29
:102840002121214552524F525D0000007761697489
:102850002C20616C726561647920696E20736561FA
:10286000726368202E2E2E0060010020C5460008ED
:10287000B140000810B504460B490CA000F044F923
:1028800021460BA000F040F90CA000F03DF9002C0F
:1028900005D0012001F08AF9FEF774FC10BD08484C
:1028A0004078FEF78BFC10BD0B48000825733A00FA
:1028B0007374617274203D20256400000A000000DA
:1028C0002800002010B50C490CA000F01DF90CA048
:1028D00000F01AF90BA000F017F9FDF743FD0A48C4
:1028E000FDF78CFF002001F0DBFC08488078002811
:1028F00001D101F05BF910BD6448000825733A006E
:10290000000000000A00000000F00008180000208D
:1029100070B50E46044615460E490FA000F0F4F8B7
:102920002A4621460DA000F0EFF810A000F0ECF8C8
:10293000FF2C0BD02046FDF7AFFC002805D0017915
:102940002B4632462046FEF709FD70BD2B46324627
:102950000021F7E79C47000825733A00746F3A2579
:10296000642C206C656E3A25640000000A000000AB
:1029700010B5FEF79DFC01F0D1FBFDF7B9FD10BDD0
:1029800070B50D4604460A490AA000F0BDF821467C
:1029900009A000F0B9F80AA000F0B6F8002C28460B
:1029A00002D0FDF755FD70BDFDF72EFD70BD000096
:1029B000AE47000825733A00747970653D256400C0
:1029C0000A00000070B5064600251C491CA000F056
:1029D0009BF831461BA000F097F81EA000F094F879
:1029E0001D4900200C461034002E1CD001228A7094
:1029F0002178002915D02070A01CFFF79BF9FDF766
:102A0000F3FF05460020FEF735FCC0782818FFF7D5
:102A1000DDF9FFF7C7F91E21FDF782FB5A3161701E
:102A20000125022004E088702078FF28F9D10020D9
:102A300001F0BCF8284601F033FC70BD30480008B6
:102A400025733A0069734D6173746572203D2025CA
:102A5000640000000A000000180000203EB5044693
:102A60000B490CA000F050F8E078627921796B46B0
:102A700007C3A3786278217807A000F045F80AA080
:102A800000F042F8062221460848FDF75FFB3EBDF4
:102A90005448000825733A002563256325632563A0
:102AA00025632563000000000A0000002E000020BE
:102AB00010B504460B490CA000F026F821460BA0E7
:102AC00000F022F80CA000F01FF80C48002C047055
:102AD00001D00B4A00E00B4A82602046FEF724FC3E
:102AE00010BD00004548000825733A00736C656509
:102AF00070203D20256400000A000000180000201E
:102B0000E0930400102700000FB410B503A9044B94
:102B1000044A029800F024F810BC08BC04B018471E
:102B2000C3310008B400002030B47446641E257818
:102B3000641CAB4200D21D46635D5B00E31830BCF1
:102B4000184702E008C8121F08C1002AFAD17047CE
:102B50007047002001E001C1121F002AFBD170471D
:102B6000FFB591B00F460546002606E025280AD09D
:102B7000149A139990476D1C761C28780028F5D17B
:102B8000304615B0F0BD002400940121F34A0294B0
:102B900000E004436D1C2B780846203B984010420F
:102BA000F7D128782A280ED0022128780246303A18
:102BB000092A15D8009A0A235A43303A80180C4340
:102BC0006D1C0090F1E701CF0090002805DA01208C
:102BD00040030443009840420090022004436D1CCF
:102BE00028782E2815D10420044368786D1C2A28E3
:102BF0000AD101CF6D1C02900BE002990A225143C9
:102C0000303940186D1C0290287801463039092966
:102C1000F3D928786C2810D006DC4C281AD0682804
:102C20000ED06A2817D104E0742813D07A2812D164
:102C300010E00120400504430CE00121090501E0FA
:102C4000032109050C436978814203D10120000565
:102C500024186D1C6D1C287803906E281ED00CDC87
:102C6000632831D004DC00288AD0582811D1B2E082
:102C700064287BD069280CD178E073282DD004DC3F
:102C80006F2870D0702804D1A7E075286CD0782800
:102C90006BD0149A13999047761C62E06002400F43
:102CA000022807D003280AD0042838680AD0066012
:102CB0003F1D56E03868F11706604160F8E7386854
:102CC0000680F5E70670F3E7387869460874002057
:102CD000487404A80390012003E0386803900020A2
:102CE000C0433F1D61070FD5002101E00199491C38
:102CF000029A0191914213DA8142F7DB019A03991A
:102D0000895C0029F2D10BE0002101E00199491C06
:102D100001918142FADB019A0399895C0029F5D17E
:102D200001990098139A401A00902146149B00F0D4
:102D30003BF901998019461807E003980399007838
:102D4000491C0391149A139990470198401E0190D1
:102D5000401CF2D12146149B139A009800F014F9FC
:102D600086196D1C09E741E033E034E00A200021B8
:102D7000049005916002410F022905D001CFC217CE
:102D80009446032905D007E0FF1DFF08FF0003CF8D
:102D900006E000B2C2179446042902D140B2C1171E
:102DA0008C4600226146944506DA0A4600214042DC
:102DB00091418C462D2102E0210504D52B216A4644
:102DC0001176012103E0E10701D02021F7E701910D
:102DD00054E00A200BE0102009E0102004900021AC
:102DE0000420044308200591029003E008200021FC
:102DF000059104906002410F022905D001CF002205
:102E00009446032906D006E0FF1DFF08FF0003CF0C
:102E10008C4603E080B2042900D1C0B200210191A8
:102E200021072BD50399702906D0049A1021059B00
:102E30004A401A4305D00EE040216A46117601212E
:102E400008E06146014306D030216A4611760399B5
:102E5000517602210191049A0821059B4A401A43A8
:102E60000CD16146014301D1610707D530216A4683
:102E70001176012101910299491E02910399582965
:102E800004D037A103910FA90F910DE039A1F9E703
:102E90006146059B049AFDF79AF9039B8C469B5C5F
:102EA0000F9A521E0F92137061460143F0D10F9892
:102EB00007A9081A20300390600704D501200004F8
:102EC0008443029801E0012002900399884201DDC9
:102ED000401A00E00020411802900198091800985B
:102EE000401A0090E00306D42146149B139A0098E0
:102EF00000F05AF886190020049008E006A9085C42
:102F0000149A139990470498401C761C04900199D8
:102F10008842F3DBE0030CD52146149B139A0098FA
:102F200000F042F8861904E0149A30201399904773
:102F3000761C0299481E02900029F5DC08E00F98E3
:102F40000F990078491C0F91149A13999047761C99
:102F50000399481E03900029F1DCFBE609280100D3
:102F600030313233343536373839616263646566FF
:102F700000000000303132333435363738394142C1
:102F80004344454600000000F8B5044600251E46AF
:102F90001746880404D405E039462020B0476D1C4C
:102FA000641EF9D52846F8BDFFB50446002581B05A
:102FB0001E46C80301D5302700E02027880404D529
:102FC00005E038460399B0476D1C641EF9D52846C4
:102FD00005B0F0BD10B500231A4604E0845CE31888
:102FE000521CDBB2D2B28A42F8D3D843C0B210BD71
:102FF000034610B50020024604E09C5C2018521CD9
:10300000C0B292B28A42F8D310BD38B56C46207077
:1030100000290AD000206070A270E37004232246C9
:103020000021092000F002FD38BD0120F3E7000077
:1030300010B5034801781630FEF71AFA10BD0000EB
:103040001800002010B50020FEF738F9FDF7CCFC81
:103050000149486010BD00001800002070B50C4602
:103060000546134913A0FFF74FFD002C12D012A202
:10307000294613A0FFF748FD16A0FFF745FD164AA5
:103080009078002808D0002C29460ED00120D26864
:10309000904770BD11A2EBE7002DFAD1002C02D0B1
:1030A0000020D07070BD0120FBE70020EFE700009A
:1030B0006B47000825733A006F66666C696E6500A1
:1030C00044657620616464726573732025643A20D8
:1030D000257300000A000000180000206F6E6C6964
:1030E0006E650000F1B5174882B0C168002901D1B2
:1030F000C0600061C4680027134EE5681DE02178B8
:103100000298814217D10097637871786268FEF760
:1031100079FAE068002805D02169C860E068216973
:103120000161E760606800F055F8204600F052F851
:10313000B078401EB0702C46ED6802488442DED163
:10314000FEBD00003006002074000020F8B51746D0
:103150000C460646FDF792FA3420FDF705FA002CDE
:103160002CD0BD0828E00021002D0FD00320225CC8
:10317000401E0A4311020128F9DA20780143304643
:10318000241DFDF74BFA042814D014E0B807800F73
:10319000012803D0022801D00328F0D1401EEED42C
:1031A000225C0A43012801DD1102F7E7C300114642
:1031B0009940F3E7361D6D1E002DD4DCFDF71AFA99
:1031C000F8BD13B5012269461046FDF73DFD009894
:1031D0001CBD000010B5002823D0124B0022001F98
:1031E000196803E0814203D80A4649680029F9D1E9
:1031F000002A0AD01368841A9C4204D10068181867
:103200001060104602E0506000E01860002907D00E
:1032100002680B1A934203D10B68D2180260496806
:10322000416010BDB800002010B5FEF7CFFDFEF7DD
:10323000B9FD10BDF8B50E4605460024084F0BE059
:10324000304600F00FF8398A3846C90704D001210A
:10325000FEF7C4FE641CA4B2AC42F1D3F8BD00007A
:10326000002C014010B503490978884201D000F0D4
:1032700003F810BD7000002010B506490028087042
:1032800004D0012801D1FEF76DFE10BDFEF784FECB
:1032900010BD00007000002010B504460020FFF7AC
:1032A000EBFF00212046FFF7C5FF10BD70B5114DA3
:1032B0001C212878002648430F4944182078DD282F
:1032C00010D1207C00280DD0FDF78EFBA169411A9A
:1032D000606942008018814204D926746A6801211D
:1032E000287890472878401CC0B22870202800D346
:1032F0002E7070BD340000209C01002038B5194CA0
:10330000206900280AD0FDF76FFB2169401AA188C7
:10331000884203D800F05EFD002822D0FFF72EF887
:103320004500FFF79DF828186946087001236A4692
:103330000021062000F07AFB2069002801D100F06E
:1033400049FDFDF751FB2061FDF74EFBFEF73EFD09
:10335000FEF728FDFF21F531FCF7E2FE02480818D0
:10336000A08038BD3C0000208813000070B50646E0
:103370000D460BA0FFF7C8FB002405E0315D0CA053
:10338000FFF7C2FB641CE4B2AC42F7D30AA0FFF71C
:10339000BBFB2A4631460020FDF756FC70BD0000FD
:1033A0004D50726F746F2073656E643A00000000B8
:1033B00025303278200000000A000000F0B50746F2
:1033C00089B048090890CD0615480E468178ED0E63
:1033D0000120FDF7E7FD002409E06001C01920216C
:1033E000FDF762FE3220FFF757FF641CE4B2089835
:1033F0008442F2D3002D0CD0701BC1192A466846B6
:10340000FCF7A4FE20216846FDF74EFE3220FFF7B0
:1034100043FF034881780020FDF7C4FD09B0F0BDEB
:1034200080000020FEF79AFCFEF7AFFCFCE70000EE
:10343000F0B50B30C108C900144F0026144A0FE044
:1034400003688B420BD38B4205D95C1A431845683D
:1034500030C3083B00E04368136002C004E0021D73
:1034600010680028ECD13046002803D138680028C5
:1034700001D00020F0BD064A06481060064A121A24
:10348000D208D20044C001203860D7E7BC00002039
:10349000B80000205C070020580F002030B504461B
:1034A00091B02C492CA0FFF72FFBE1782BA0FFF760
:1034B0002BFB2DA0FFF728FBE078002103283BD051
:1034C0001CDC002824D0012828D002281ED16C46FC
:1034D000042525706570FEF739FC01460422A01C06
:1034E000FCF734FE0320694688712046CD71083010
:1034F000FEF720FC0C226946022005E0042824D0B7
:10350000FF2803D10022114600F032F811B030BD7F
:1035100068460170012269460020F5E72079241DE4
:103520000328F3D160780428F0D1A01CFEF75EFCDC
:10353000062221460120E7E700221146032000F081
:1035400017F8207900F0FCF8E0E70848C1708170B6
:10355000DCE700000A49000825733A0074797065B9
:10356000203D2025640000000A00000050000020DB
:1035700070B5A0B00B466D46AA2114462970A11C57
:103580006970E870194601A8FCF7E0FD6A465078BA
:10359000401EC1B2E81CFFF71DFD6A46907021462F
:1035A0000EA0FFF7B1FA00246E4605E0315D0EA0D3
:1035B000FFF7AAFA641CE4B26878801CA042F5D830
:1035C0000BA0FFF7A1FA0B48C268002A04D0687864
:1035D000801CC1B26846904720B070BD6C656E20FB
:1035E0003D2025643A00000025303278200000009C
:1035F0000A000000500000203EB50C0017D00C4916
:103600000CA0FFF781FAE078627921796B4607C355
:10361000A3786278217808A0FFF776FA0DA0FFF76B
:1036200073FA0D4901200871FF20FDF7C7FD3EBD6B
:10363000D248000825733A00666F756E6420646591
:1036400069766365205B25632563256325632563B0
:1036500025635D000A0000005000002070B5244D75
:10366000A0B0E878002840D0286900246E460028E1
:1036700005D0FDF7B9F92969401AC82835D9687805
:1036800069460870AA78FE2A0BD0002048708A701C
:10369000FE2A08D0022A08D0FF2A08D0012A13D017
:1036A00013E00120F2E713A40FE016A40DE01AA422
:1036B0001D491EA0FFF728FA21461DA0FFF724FA96
:1036C0001CA0FFF721FA00E01BA42146F01CFCF728
:1036D00075FD2046FCF75EFDC01CC2B269460420A1
:1036E000FFF746FFFDF780F9286120B070BD0000AC
:1036F0005000002074657374207375636365737381
:103700002E00000063616E27742066696E6420528B
:1037100046206368697021007363616E2074696D6F
:10372000656F757421000000C148000825733A00D8
:10373000257300000A0000006E6F204D41432100F8
:10374000F8B5204C00266070A6706846FEF7F2FAC5
:10375000684600780125FF280BD168464078FF288D
:1037600007D168468078FF2803D16846C078FF28D3
:1037700011D0FDF713FF002815D00220A070E570CE
:10378000114912A0FFF7C0F911A0FFF7BDF918A069
:10379000FFF7BAF9F8BDA570E5700B490BA0FFF76C
:1037A000B3F914A0F1E7FDF7EDFC2671154916A059
:1037B000FDF734FE00237D211A46C9001448FEF7A8
:1037C0005DFBF8BD50000020F948000825733A0061
:1037D0004E524632344C30312B20636F6D6D756E16
:1037E0006963617465206572726F72210000000068
:1037F0000A0000004E6F206D616320616464726591
:1038000073732100F93500085A435445535400009E
:1038100081400008F0B5C1B0002409260127CDB2CF
:103820000300FFF781F90A06192E36777777585D7E
:103830007177C8B2FCF730FD04006BD068460770A2
:1038400045700622611D801CFCF780FC20796946CA
:10385000087233466A4611E0C8B2FCF71DFD040049
:1038600058D000216846017045700622611D801CF9
:10387000FCF76CFC20796A4610723346012108205F
:1038800046E06846FEF780FD034601216A460320B4
:103890003EE00F46002516E0FCF7FEFC060010D0C7
:1038A000795D68460155641CE4B200190622711D59
:1038B000FCF74CFCA41DE0B2327969460A54401C66
:1038C000C4B26D1CEDB2785D0028E5D1012123461C
:1038D0006A4604201CE009230A460121184617E025
:1038E0000C4609786846017061784170A178817052
:1038F000A278C01C6168FCF729FCA0780121C01CDB
:10390000C3B26A46072003E000231A4601210520BE
:1039100000F08CF841B0F0BDF0B5C1B01E461446C1
:103920000746002907D0002F05D000231A46194664
:10393000184600F07BF83B4D6878002801D1012F34
:1039400021D13B00FFF7F0F80D08212F33363B1F44
:10395000401F46565F6A1F003348C468844200D146
:103960000024002C0FD0E068002806D02169C86030
:10397000E068216901610020E0606068FFF72AFCCF
:103980002046FFF727FC41B0F0BD2046FFF766F860
:10399000A079FFF717F8E079FFF78AF8012068703F
:1039A000FDF7EAF9EFE72078FEF764FFEBE7FEF7B3
:1039B00003FFE8E731462046FEF75CFDE3E73146CA
:1039C0002046FEF77BFEDEE762782078A11CFEF73A
:1039D0009FFFD8E7A27861782078FEF739FC0028AD
:1039E000A3786278207801DA002100E00121FFF756
:1039F0000CFBC8E769460020FEF7C2FF0346002122
:103A00006A460A2007E069460120FEF7B9FF03462F
:103A10006A4600210B2000F009F8B4E7FEF752FFD8
:103A2000B1E700003C0000201C060020F0B50C4669
:103A3000C1B001466E46FC2017461D463246307026
:103A4000002C01D0802000E00020084350709570C9
:103A500029463846FFF7CCFA6946C8702A463946E7
:103A6000301DFCF773FB2D1D002C1ED01420FFF71A
:103A7000DFFC0446032020700020A060E8B26070E4
:103A8000FFF7D6FC606062786946FCF75FFB094887
:103A9000C168002901D1C0600061E0600169CC60AB
:103AA00001692161046141B0F0BDE9B26846FFF7E8
:103AB0005DFCF8E71C06002010B51748C468844276
:103AC00000D10024002C14D0FCF78EFFA168401A0E
:103AD000FF21F53188420CD9207800280AD061787E
:103AE0006068FFF743FC2078401E2070FCF77CFFE5
:103AF000A06010BDE068002806D02169C860E068B9
:103B0000216901610020E0606068FFF763FB2046E7
:103B1000FFF760FB10BD00001C06002010B5C4B20A
:103B20000C490DA0FEF7F0FF0CA0FEF7EDFF0CA076
:103B3000FEF7EAFF022000F039F80A484078FDF766
:103B40003DFB08481038C268002A02D000212046F8
:103B5000904710BD5E47000825733A000000000042
:103B60000A0000002800002070B51478551CFEF7EC
:103B700001F90D490A78002A0AD0012C09D0022C3B
:103B80000BD0032C04D101462A46022000F036F95E
:103B900070BD01462A460020F8E78B68002BF7D05D
:103BA0002946984770BD00007400002070B50C4D88
:103BB000044669780120A1420FD0002C02D0012CCC
:103BC00003D101E0032000E00220FCF7ABFFEA682C
:103BD000002A02D02146062090476C7070BD00007C
:103BE0001800002070B515460C46FCF755FB002860
:103BF00002D0C27A002011E00A490BA0FEF784FF30
:103C00000DA0FEF781FF11A0FEF77EFF0020C0434C
:103C100070BD215C51402154401CC0B2A842F8D371
:103C2000002070BD4949000825733A5B21212145D8
:103C300052524F525D0000006B6579206E6F742008
:103C4000666F756E64212121000000000A000000EB
:103C500010B50446002901D0FFF744FA002221469E
:103C6000052000F0CBF810BDFFB585B05C1C0E9EA2
:103C70001F461546002A06D1324639460598FFF7F9
:103C8000B1FF002816DB0698002802D00598FFF740
:103C900029FA387804280FD0052811D0062809D130
:103CA00068460570761E46706A460194062005999E
:103CB00000F0A4F809B0F0BD002203200599F7E751
:103CC00020786946087060788870A01CFEF752F86A
:103CD000039000A8A11D06220330FCF737FA207BD1
:103CE00069464872607B48706A4604200599DFE7A0
:103CF00010B51148C468844200D10024002C1AD0A9
:103D0000FCF772FEA168401A0C49884213D9E0689A
:103D1000002806D02169C860E0682169016100209F
:103D2000E0606068FFF756FA2046FFF753FA04494F
:103D30008878401E887010BD3006002068A70400F7
:103D400074000020F7B5194D0746A87816460A28D2
:103D50000AD3174917A0FEF7D7FE17A0FEF7D4FE27
:103D60001AA0FEF7D1FEFEBD1420FFF761FB07701D
:103D7000044646703046FFF75BFB606032460199AF
:103D8000FCF7E4F9FCF730FEA0601148C168002997
:103D900001D1C0600061E0600169CC60016921610E
:103DA0000461A878401CA870FEBD000074000020CB
:103DB0005649000825733A00736C6565702063618D
:103DC0006368652066756C6C210000000A000000C5
:103DD0003006002010B5FEF7D1FA4400FEF740FB94
:103DE00005492018CA78C0B2904202D0C87001209C
:103DF00010BD002010BD00003C000020024B5B689D
:103E0000002B00D01847704774000020F8B50E460C
:103E10000446154600211020FCF776FD2046FCF7ED
:103E20003BFE0746002405E0FF20FCF735FE305539
:103E3000641CE4B2AC42F7D301211020FCF764FD0E
:103E40003846F8BD10B5044600211020FCF75CFD93
:103E50002046FCF721FEFF20FCF71EFE0446012150
:103E60001020FCF751FD204610BDF8B50E46044663
:103E7000154600211020FCF747FD2046FCF70CFEFC
:103E80000746002404E0305DFCF706FE641CE4B243
:103E9000AC42F8D301211020FCF736FD3846F8BDBE
:103EA00070B50D46044600211020FCF72DFD20467C
:103EB000FCF7F2FD04462846FCF7EEFD0121102038
:103EC000FCF722FD204670BD10B504090207120F51
:103ED00001209040888008614A732300FEF724FE89
:103EE00006040A0E12171B200920C00608600120D4
:103EF000400414E00B480860000210E00A48086023
:103F000000020CE0094808600120000507E00848AD
:103F10000860400203E007480860012080058860CF
:103F200010BD00000004004800080048000C0048D4
:103F3000001000480014004870B51C48C468844252
:103F400000D10024002C2FD0FCF74EFDA168184DA5
:103F5000411A6889C830814226D9A1786068FFF784
:103F60002DFA6078401C6070FCF73EFDA060FCF705
:103F70003BFDFDF72BFFFDF715FF6421FCF7D0F8A3
:103F80006981607803280FD3E068002806D0216992
:103F9000C860E068216901610020E0606068FFF7A7
:103FA00019F92046FFF716F970BD000044060020FD
:103FB00080000020F8B5074615460E461420FFF78E
:103FC00037FA0446077000206070A570A06028468C
:103FD000FFF72EFA2A4631466060FCF7B7F806482C
:103FE000C168002901D1C0600061E0600169CC6056
:103FF000016921610461F8BD4406002070B588B0F4
:1040000020216846FCF7BBF8FCF7ACFF002827D05E
:104010006846FDF72CF8002822D1FCF7E5FC164C89
:104020000025E169401A642800D9E570FCF7DCFC42
:10403000E061124B00206E46E278315C9954521CCC
:10404000D2B2E270012A0DD00C2A0FD0A1790D3125
:104050008A420CD1D1B20948FDF71CFBE570A5716D
:1040600008B070BDA52902D0E57000E0A171401C28
:10407000C0B22028E0D3F3E78000002058060020DB
:1040800010B5FDF77FF8064906A0FDF7C7F9002334
:104090007D211A46C9000548FDF7F0FE10BD00005D
:1040A000F93500085A43544553540000B5410008FF
:1040B00010B506490648FDF7B1F97D21022300221B
:1040C000C9000448FDF7DAFE10BD0000C54600082F
:1040D0002E0000201D3B0008F8B500270E4E0523DA
:1040E0000C245C43A419803CE46F002C01D15D1EBC
:1040F000EDB284420ED05B1E1B061B0EF0D1002FCA
:1041000008D10C235D437255AB1998600622581CE8
:10411000FCF71CF8F8BD00006001002010B5184C39
:10412000607802282AD1A078002827D1207800289A
:1041300024D16068002806D0FCF756FC6168401A5C
:10414000A16888421AD90F490FA0FEF7DDFC0FA025
:10415000FEF7DAFC0EA0FEF7D7FC0020FDF7AEF864
:10416000FCF742FC6060FCF73FFCFFF75DF87D2147
:10417000C900FBF7D5FF07480818A06010BD000074
:10418000180000204E47000825733A000000000088
:104190000A00000010270000034610B50020024668
:1041A00004E09C5C2018521CC0B2D2B28A42F8D300
:1041B00010BD000010B50E4C0120E07020790D49B3
:1041C00000280DA009D0FEF79FFC0CA0FEF79CFC78
:1041D0000EA0FEF799FCFE2008E0FEF795FC0CA06F
:1041E000FEF792FC09A0FEF78FFCFF20A07010BD27
:1041F00050000020E748000825733A007465737486
:104200002073756363657373000000000A0000008B
:1042100074657374206661696C6521207363616ED7
:10422000206E6F20646576696365000010B50446F2
:1042300000784108CA0706D0FCF7D6FB6060A16889
:10424000E068884710BD490703D44008400020704B
:10425000F5E70020C0436080F1E7000010B50A498F
:104260000AA0FEF751FC0AA0FEF74EFC09A0FEF7DB
:104270004BFC094C2046FCF7C1FA0722D201074942
:104280002046FCF7D9FA10BD7348000825733A00A0
:10429000000000000A00000000F400089C0100205B
:1042A00070B50B4C0546A01CFDF73AF82078FDF7D9
:1042B00033F80020FEF7DEFA002D08D0054C20462A
:1042C000FCF79CFA062202492046FCF7B5FA70BDBD
:1042D0002800002000F00008F7B586B00646154615
:1042E00000210798FDF703FF1D4F002D04D1002288
:1042F00039460798FDF728FF307901242403012867
:1043000017D0022819D00020014632680190002001
:104310000092029005900C20039104906946079842
:10432000FDF728FF21460798FDF778FF002D08D0FC
:1043300010E0012120468902E7E7032120464902D7
:10434000E3E739460798FDF7CDFE01223946079885
:10435000FDF7FAFE01210798FDF7C9FE09B0F0BD8F
:1043600005010500FEB50446807A0125002808D124
:10437000217860786A4611725072957202A8FCF733
:10438000D9FEA18801226069FCF7D1F921890122B7
:104390006069FCF7CCF9E0880090022669460E714E
:1043A00000208871CD71032048716069FCF787F99E
:1043B0006088694600900E716069FCF780F9FEBD67
:1043C000F0B58BB015460C460746FDF7C3FC002838
:1043D0001AD0894EB078012802D0002809D013E005
:1043E000380011D0022F0FD0032F0DD0042F0BD087
:1043F00002E03846012F07D00300FEF795FB0712B5
:1044000010306481BFD910007C497DA0FEF77CFB91
:1044100039467CA0FEF778FB7EA0FEF775FB0BB05B
:10442000F0BD764976A0FEF76FFBE8786A792979C6
:104430006B4607C3AB786A78297877A0FEF764FBF0
:1044400074A0FEF761FBFCF7CFFAFEF7EDFE192131
:104450004901FBF765FE23460022764830E0664FAF
:10446000287810373870687878702046FDF740FD5E
:1044700001460422B81CFBF769FEE878297900029E
:10448000401887B25D495EA0FEF73EFB0097AB780F
:104490006A78297868A0FEF737FB5EA0FEF734FB48
:1044A000A8786A1D2146B368FCF70AF80120FFF7D7
:1044B000F7FE0220FFF77AFB00231A4639466E48C2
:1044C000FDF7DCFCABE74D494DA0FEF71DFB6BA0F3
:1044D000FEF71AFB4FA0FEF717FB4748FF22062105
:1044E0001030FBF745FE0120FFF7DAFEF268002AE4
:1044F00002D00021092090470020FFF757FB8EE7EC
:104500003E493FA0FEF700FBE8796B7A297A04ACBC
:10451000EA680FC4E878AB796A7929796C460FC4E8
:10452000AB786A7829785848FEF7EEFA39A0FEF79A
:10453000EBFA2878002808D0687A00906978A87883
:10454000EB1CEA68FBF71EFF04E0A878FBF7A4FE6B
:10455000FBF7FEFEF468002CB4D0287808A9087098
:10456000A8784870687A087208A80622E91C023008
:10457000FBF7ECFD08A90720A04750E7E0B2FBF7E6
:104580008BFE00289ED01D491DA0FEF7BDFA2146D6
:104590003EA0FEF7B9FA1FA0FEF7B6FAE0B2FBF7AD
:1045A000ABFFB07801288DD1E0B2FCF787FE36E78B
:1045B000E0B2FBF771FE002884D0E0B2FBF79CFF6D
:1045C00069460C702878487068788870686801902F
:1045D0000A490BA0FEF798FA6A78214631A0FEF747
:1045E00093FA0CA0FEF790FAF268002A87D0694689
:1045F0000820904713E70000180000208E470008AD
:1046000025733A0069676E6F7265206576656E7412
:10461000202564000A0000005345415243483A20D7
:104620006D61737465722025632563256325632599
:1046300063256300313000084445565F4144443AE5
:10464000206D792061646472657373203D20256458
:104650002C2072664368616E6E656C203D20256477
:104660002C206B6579203D2025642C2068627469BC
:104670006D65203D20256400453000084445565FA7
:1046800044454C2021000000F449000848454152AF
:1046900054424541542C2061646472203D202564BD
:1046A00000000000555345525F444154412066725A
:1046B0006F6D205B25645D2C206C656E67746820CF
:1046C0002564000030B50C46054685B00E490FA0A4
:1046D000FEF71AFAA0796179227904950192029184
:1046E0000390E0780090A3786278217808A0FEF724
:1046F0000BFA12A0FEF708FAA27921462846FFF726
:10470000EBFC05B030BD00007947000825733A0086
:1047100073756244657620747970653A2563256304
:1047200025632563256325632C20736C6565703ACA
:1047300025642C207569643A257800000A00000081
:104740005379735365744D6163416464720073758A
:1047500062446576486561727462656174006E6575
:10476000744275696C64446F6E6500646D4576656E
:104770006E7448616E646C6500776D536561726339
:1047800068526573756C7448616E646C6500776D12
:104790004576656E7448616E646C6500574D4E6574
:1047A00074557365724461746153656E6400574D4E
:1047B0005175657279446576696365496E666F0007
:1047C000574D476574536561726368526573756CC4
:1047D0007400574D4E65744275696C6444656C4451
:1047E000657669636500574D4E65744275696C6402
:1047F00041646444657669636500574D4E65744253
:1048000075696C6453656172636800574D4E6574D9
:104810004275696C64537461727400574D446576D7
:10482000696365436F6F7264696E6174696F6E006E
:10483000574D5365744D6173746572536C61766541
:104840004D6F646500574D536574536C6565704DCD
:104850006F646500574D5365744D6F64756C655496
:1048600079706500574D4E6574496E666F436C658F
:104870006172007570646174654465766963654949
:104880006E666F546F466C61736800444D44657684
:104890006963654164647265737346696E6400445C
:1048A0004D5570646174654F6E6C696E6554696DC9
:1048B00065004D4653746F70004D465374617274B9
:1048C000006D6653656E6454657374526573756CE0
:1048D00074006D66536561726368526573756C74BC
:1048E00048616E646C65007465737454696D656FBE
:1048F000757448616E646C65006D665374617274A2
:1049000053656C66436865636B006D664672616DE6
:104910006548616E646C6500486172644661756CDF
:10492000745F48616E646C65720048616C526562C8
:104930006F6F7400464C4153485F49525148616E55
:10494000646C657200FFFFFFFF6E6574456E446521
:104950006372797074006E6574536C65657044653C
:10496000764461746153617665004E657442756981
:104970006C645374617274004E65744275696C6442
:1049800053746F70004E6574536574536C65657035
:104990004D6F6465004E65745365744D6163416489
:1049A0006472004E65746275696C6453656172630C
:1049B0006844657669636500FFFFFFFF50485953FF
:1049C00077697463684368616E6E656C005048591E
:1049D000496E697469616C697A65003443101034FA
:1049E0004310104E524632344C3031436865636B8D
:1049F00000000000434F4F5244494E4154494F4E2E
:104A00003A206275696C643D25642C206B65793DA4
:104A100025642C206E6574416464723D25642C20ED
:104A2000747970653D2563256325632563256325BA
:104A3000632C207569643D25642C20736C6565705A
:104A40003D256400644A000800000020C00000000A
:104A5000422B0008244B0008C000002098120000E0
:104A6000522B00080100010015CD5B07043BD82143
:104A70008C0A2913D2040000000000000000FF008F
:104A800000000000102700000000000000000000EF
:104A90000000000000000000000000000000000016
:104AA000000000008813000000000000000000006B
:104AB00000000000000000000000000000000000F6
:104AC00000000000000000000100000000000000E5
:104AD00000000000000000000000000000000000D6
:104AE0000000000000FF000000FF0000FFFF0000CA
:104AF00000000000000000000000000000000000B6
:104B0000000000000000000000000000010203049B
:104B1000010203040607080900000000000000006D
:044B20000000000091
:04000005080000B53A
:00000001FF
